{
  "contractName": "References",
  "abi": [
    {
      "inputs": [],
      "stateMutability": "nonpayable",
      "type": "constructor"
    },
    {
      "inputs": [],
      "name": "UNIX_DAY",
      "outputs": [
        {
          "internalType": "uint256",
          "name": "",
          "type": "uint256"
        }
      ],
      "stateMutability": "view",
      "type": "function",
      "constant": true
    },
    {
      "inputs": [
        {
          "internalType": "uint256",
          "name": "",
          "type": "uint256"
        }
      ],
      "name": "accounts",
      "outputs": [
        {
          "internalType": "address",
          "name": "id",
          "type": "address"
        },
        {
          "internalType": "string",
          "name": "name",
          "type": "string"
        },
        {
          "internalType": "uint256",
          "name": "accountType",
          "type": "uint256"
        }
      ],
      "stateMutability": "view",
      "type": "function",
      "constant": true
    },
    {
      "inputs": [
        {
          "internalType": "address",
          "name": "",
          "type": "address"
        }
      ],
      "name": "patients",
      "outputs": [
        {
          "internalType": "string",
          "name": "name",
          "type": "string"
        },
        {
          "internalType": "bool",
          "name": "instanced",
          "type": "bool"
        }
      ],
      "stateMutability": "view",
      "type": "function",
      "constant": true
    },
    {
      "inputs": [
        {
          "internalType": "address",
          "name": "",
          "type": "address"
        },
        {
          "internalType": "uint256",
          "name": "",
          "type": "uint256"
        }
      ],
      "name": "referenceIds",
      "outputs": [
        {
          "internalType": "string",
          "name": "",
          "type": "string"
        }
      ],
      "stateMutability": "view",
      "type": "function",
      "constant": true
    },
    {
      "inputs": [
        {
          "internalType": "address",
          "name": "",
          "type": "address"
        },
        {
          "internalType": "uint256",
          "name": "",
          "type": "uint256"
        }
      ],
      "name": "references",
      "outputs": [
        {
          "internalType": "string",
          "name": "id",
          "type": "string"
        },
        {
          "internalType": "string",
          "name": "name",
          "type": "string"
        },
        {
          "internalType": "string",
          "name": "resourceType",
          "type": "string"
        },
        {
          "internalType": "uint256",
          "name": "date",
          "type": "uint256"
        }
      ],
      "stateMutability": "view",
      "type": "function",
      "constant": true
    },
    {
      "inputs": [
        {
          "internalType": "string",
          "name": "_name",
          "type": "string"
        }
      ],
      "name": "addUser",
      "outputs": [
        {
          "internalType": "bool",
          "name": "",
          "type": "bool"
        }
      ],
      "stateMutability": "nonpayable",
      "type": "function"
    },
    {
      "inputs": [],
      "name": "getUser",
      "outputs": [
        {
          "components": [
            {
              "internalType": "string",
              "name": "name",
              "type": "string"
            },
            {
              "internalType": "bool",
              "name": "instanced",
              "type": "bool"
            }
          ],
          "internalType": "struct References.Patient",
          "name": "",
          "type": "tuple"
        }
      ],
      "stateMutability": "view",
      "type": "function",
      "constant": true
    },
    {
      "inputs": [
        {
          "internalType": "string",
          "name": "_id",
          "type": "string"
        },
        {
          "internalType": "string",
          "name": "_name",
          "type": "string"
        },
        {
          "internalType": "string",
          "name": "_type",
          "type": "string"
        }
      ],
      "name": "createReference",
      "outputs": [
        {
          "internalType": "bool",
          "name": "",
          "type": "bool"
        }
      ],
      "stateMutability": "nonpayable",
      "type": "function"
    },
    {
      "inputs": [],
      "name": "listReferenceIds",
      "outputs": [
        {
          "internalType": "string[]",
          "name": "",
          "type": "string[]"
        }
      ],
      "stateMutability": "view",
      "type": "function",
      "constant": true
    },
    {
      "inputs": [],
      "name": "listReferences",
      "outputs": [
        {
          "components": [
            {
              "internalType": "string",
              "name": "id",
              "type": "string"
            },
            {
              "internalType": "string",
              "name": "name",
              "type": "string"
            },
            {
              "internalType": "string",
              "name": "resourceType",
              "type": "string"
            },
            {
              "internalType": "uint256",
              "name": "date",
              "type": "uint256"
            }
          ],
          "internalType": "struct References.Reference[]",
          "name": "",
          "type": "tuple[]"
        }
      ],
      "stateMutability": "view",
      "type": "function",
      "constant": true
    }
  ],
  "bytecode": "0x608060405234801561001057600080fd5b50611f98806100206000396000f3fe608060405234801561001057600080fd5b506004361061009e5760003560e01c8063832880e711610066578063832880e714610182578063a4dec788146101a0578063c212d65f146101d3578063c5a2a18e146101f1578063f2a40db81461020f5761009e565b80630869cfbc146100a3578063138a5e81146100d4578063177cf2181461010457806318b8275a146101225780636fc5e80b14610152575b600080fd5b6100bd60048036038101906100b8919061128d565b610241565b6040516100cb929190611365565b60405180910390f35b6100ee60048036038101906100e991906113cb565b6102fa565b6040516100fb919061140b565b60405180910390f35b61010c6103b3565b604051610119919061143c565b60405180910390f35b61013c6004803603810190610137919061158c565b6103ba565b60405161014991906115d5565b60405180910390f35b61016c600480360381019061016791906115f0565b6105d7565b60405161017991906115d5565b60405180910390f35b61018a61091d565b604051610197919061172d565b60405180910390f35b6101ba60048036038101906101b591906113cb565b610a21565b6040516101ca949392919061174f565b60405180910390f35b6101db610c06565b6040516101e891906118eb565b60405180910390f35b6101f9610ef1565b60405161020691906119cf565b60405180910390f35b610229600480360381019061022491906119f1565b611096565b60405161023893929190611a2d565b60405180910390f35b600160205280600052604060002060009150905080600001805461026490611a9a565b80601f016020809104026020016040519081016040528092919081815260200182805461029090611a9a565b80156102dd5780601f106102b2576101008083540402835291602001916102dd565b820191906000526020600020905b8154815290600101906020018083116102c057829003601f168201915b5050505050908060010160009054906101000a900460ff16905082565b6003602052816000526040600020818154811061031657600080fd5b9060005260206000200160009150915050805461033290611a9a565b80601f016020809104026020016040519081016040528092919081815260200182805461035e90611a9a565b80156103ab5780601f10610380576101008083540402835291602001916103ab565b820191906000526020600020905b81548152906001019060200180831161038e57829003601f168201915b505050505081565b6201518081565b6000600160003373ffffffffffffffffffffffffffffffffffffffff1673ffffffffffffffffffffffffffffffffffffffff16815260200190815260200160002060010160009054906101000a900460ff161561044c576040517f08c379a000000000000000000000000000000000000000000000000000000000815260040161044390611b17565b60405180910390fd5b600060405180606001604052803373ffffffffffffffffffffffffffffffffffffffff1681526020018481526020016000600181111561048f5761048e611b37565b5b815250908060018154018082558091505060019003906000526020600020906003020160009091909190915060008201518160000160006101000a81548173ffffffffffffffffffffffffffffffffffffffff021916908373ffffffffffffffffffffffffffffffffffffffff16021790555060208201518160010190816105179190611d12565b5060408201518160020155505081600160003373ffffffffffffffffffffffffffffffffffffffff1673ffffffffffffffffffffffffffffffffffffffff16815260200190815260200160002060000190816105739190611d12565b5060018060003373ffffffffffffffffffffffffffffffffffffffff1673ffffffffffffffffffffffffffffffffffffffff16815260200190815260200160002060010160006101000a81548160ff02191690831515021790555060019050919050565b6000600160003373ffffffffffffffffffffffffffffffffffffffff1673ffffffffffffffffffffffffffffffffffffffff16815260200190815260200160002060010160009054906101000a900460ff16610668576040517f08c379a000000000000000000000000000000000000000000000000000000000815260040161065f90611e30565b60405180910390fd5b61078984600360003373ffffffffffffffffffffffffffffffffffffffff1673ffffffffffffffffffffffffffffffffffffffff168152602001908152602001600020805480602002602001604051908101604052809291908181526020016000905b828210156107775783829060005260206000200180546106ea90611a9a565b80601f016020809104026020016040519081016040528092919081815260200182805461071690611a9a565b80156107635780601f1061073857610100808354040283529160200191610763565b820191906000526020600020905b81548152906001019060200180831161074657829003601f168201915b5050505050815260200190600101906106cb565b5050505061117890919063ffffffff16565b156107c9576040517f08c379a00000000000000000000000000000000000000000000000000000000081526004016107c090611e9c565b60405180910390fd5b600360003373ffffffffffffffffffffffffffffffffffffffff1673ffffffffffffffffffffffffffffffffffffffff1681526020019081526020016000208490806001815401808255809150506001900390600052602060002001600090919091909150908161083a9190611d12565b50600260003373ffffffffffffffffffffffffffffffffffffffff1673ffffffffffffffffffffffffffffffffffffffff168152602001908152602001600020604051806080016040528086815260200185815260200184815260200142815250908060018154018082558091505060019003906000526020600020906004020160009091909190915060008201518160000190816108d99190611d12565b5060208201518160010190816108ef9190611d12565b5060408201518160020190816109059190611d12565b50606082015181600301555050600190509392505050565b6109256111ff565b600160003373ffffffffffffffffffffffffffffffffffffffff1673ffffffffffffffffffffffffffffffffffffffff16815260200190815260200160002060405180604001604052908160008201805461097f90611a9a565b80601f01602080910402602001604051908101604052809291908181526020018280546109ab90611a9a565b80156109f85780601f106109cd576101008083540402835291602001916109f8565b820191906000526020600020905b8154815290600101906020018083116109db57829003601f168201915b505050505081526020016001820160009054906101000a900460ff161515151581525050905090565b60026020528160005260406000208181548110610a3d57600080fd5b906000526020600020906004020160009150915050806000018054610a6190611a9a565b80601f0160208091040260200160405190810160405280929190818152602001828054610a8d90611a9a565b8015610ada5780601f10610aaf57610100808354040283529160200191610ada565b820191906000526020600020905b815481529060010190602001808311610abd57829003601f168201915b505050505090806001018054610aef90611a9a565b80601f0160208091040260200160405190810160405280929190818152602001828054610b1b90611a9a565b8015610b685780601f10610b3d57610100808354040283529160200191610b68565b820191906000526020600020905b815481529060010190602001808311610b4b57829003601f168201915b505050505090806002018054610b7d90611a9a565b80601f0160208091040260200160405190810160405280929190818152602001828054610ba990611a9a565b8015610bf65780601f10610bcb57610100808354040283529160200191610bf6565b820191906000526020600020905b815481529060010190602001808311610bd957829003601f168201915b5050505050908060030154905084565b6060600160003373ffffffffffffffffffffffffffffffffffffffff1673ffffffffffffffffffffffffffffffffffffffff16815260200190815260200160002060010160009054906101000a900460ff16610c97576040517f08c379a0000000000000000000000000000000000000000000000000000000008152600401610c8e90611e30565b60405180910390fd5b600260003373ffffffffffffffffffffffffffffffffffffffff1673ffffffffffffffffffffffffffffffffffffffff168152602001908152602001600020805480602002602001604051908101604052809291908181526020016000905b82821015610ee85783829060005260206000209060040201604051806080016040529081600082018054610d2990611a9a565b80601f0160208091040260200160405190810160405280929190818152602001828054610d5590611a9a565b8015610da25780601f10610d7757610100808354040283529160200191610da2565b820191906000526020600020905b815481529060010190602001808311610d8557829003601f168201915b50505050508152602001600182018054610dbb90611a9a565b80601f0160208091040260200160405190810160405280929190818152602001828054610de790611a9a565b8015610e345780601f10610e0957610100808354040283529160200191610e34565b820191906000526020600020905b815481529060010190602001808311610e1757829003601f168201915b50505050508152602001600282018054610e4d90611a9a565b80601f0160208091040260200160405190810160405280929190818152602001828054610e7990611a9a565b8015610ec65780601f10610e9b57610100808354040283529160200191610ec6565b820191906000526020600020905b815481529060010190602001808311610ea957829003601f168201915b5050505050815260200160038201548152505081526020019060010190610cf6565b50505050905090565b6060600160003373ffffffffffffffffffffffffffffffffffffffff1673ffffffffffffffffffffffffffffffffffffffff16815260200190815260200160002060010160009054906101000a900460ff16610f82576040517f08c379a0000000000000000000000000000000000000000000000000000000008152600401610f7990611e30565b60405180910390fd5b600360003373ffffffffffffffffffffffffffffffffffffffff1673ffffffffffffffffffffffffffffffffffffffff168152602001908152602001600020805480602002602001604051908101604052809291908181526020016000905b8282101561108d57838290600052602060002001805461100090611a9a565b80601f016020809104026020016040519081016040528092919081815260200182805461102c90611a9a565b80156110795780601f1061104e57610100808354040283529160200191611079565b820191906000526020600020905b81548152906001019060200180831161105c57829003601f168201915b505050505081526020019060010190610fe1565b50505050905090565b600081815481106110a657600080fd5b90600052602060002090600302016000915090508060000160009054906101000a900473ffffffffffffffffffffffffffffffffffffffff16908060010180546110ef90611a9a565b80601f016020809104026020016040519081016040528092919081815260200182805461111b90611a9a565b80156111685780601f1061113d57610100808354040283529160200191611168565b820191906000526020600020905b81548152906001019060200180831161114b57829003601f168201915b5050505050908060020154905083565b600080600090505b83518110156111d8576111b6838583815181106111a05761119f611ebc565b5b60200260200101516111e490919063ffffffff16565b156111c55760019150506111de565b80806111d090611f1a565b915050611180565b50600090505b92915050565b60008180519060200120838051906020012014905092915050565b6040518060400160405280606081526020016000151581525090565b6000604051905090565b600080fd5b600080fd5b600073ffffffffffffffffffffffffffffffffffffffff82169050919050565b600061125a8261122f565b9050919050565b61126a8161124f565b811461127557600080fd5b50565b60008135905061128781611261565b92915050565b6000602082840312156112a3576112a2611225565b5b60006112b184828501611278565b91505092915050565b600081519050919050565b600082825260208201905092915050565b60005b838110156112f45780820151818401526020810190506112d9565b60008484015250505050565b6000601f19601f8301169050919050565b600061131c826112ba565b61132681856112c5565b93506113368185602086016112d6565b61133f81611300565b840191505092915050565b60008115159050919050565b61135f8161134a565b82525050565b6000604082019050818103600083015261137f8185611311565b905061138e6020830184611356565b9392505050565b6000819050919050565b6113a881611395565b81146113b357600080fd5b50565b6000813590506113c58161139f565b92915050565b600080604083850312156113e2576113e1611225565b5b60006113f085828601611278565b9250506020611401858286016113b6565b9150509250929050565b600060208201905081810360008301526114258184611311565b905092915050565b61143681611395565b82525050565b6000602082019050611451600083018461142d565b92915050565b600080fd5b600080fd5b7f4e487b7100000000000000000000000000000000000000000000000000000000600052604160045260246000fd5b61149982611300565b810181811067ffffffffffffffff821117156114b8576114b7611461565b5b80604052505050565b60006114cb61121b565b90506114d78282611490565b919050565b600067ffffffffffffffff8211156114f7576114f6611461565b5b61150082611300565b9050602081019050919050565b82818337600083830152505050565b600061152f61152a846114dc565b6114c1565b90508281526020810184848401111561154b5761154a61145c565b5b61155684828561150d565b509392505050565b600082601f83011261157357611572611457565b5b813561158384826020860161151c565b91505092915050565b6000602082840312156115a2576115a1611225565b5b600082013567ffffffffffffffff8111156115c0576115bf61122a565b5b6115cc8482850161155e565b91505092915050565b60006020820190506115ea6000830184611356565b92915050565b60008060006060848603121561160957611608611225565b5b600084013567ffffffffffffffff8111156116275761162661122a565b5b6116338682870161155e565b935050602084013567ffffffffffffffff8111156116545761165361122a565b5b6116608682870161155e565b925050604084013567ffffffffffffffff8111156116815761168061122a565b5b61168d8682870161155e565b9150509250925092565b600082825260208201905092915050565b60006116b3826112ba565b6116bd8185611697565b93506116cd8185602086016112d6565b6116d681611300565b840191505092915050565b6116ea8161134a565b82525050565b6000604083016000830151848203600086015261170d82826116a8565b915050602083015161172260208601826116e1565b508091505092915050565b6000602082019050818103600083015261174781846116f0565b905092915050565b600060808201905081810360008301526117698187611311565b9050818103602083015261177d8186611311565b905081810360408301526117918185611311565b90506117a0606083018461142d565b95945050505050565b600081519050919050565b600082825260208201905092915050565b6000819050602082019050919050565b6117de81611395565b82525050565b6000608083016000830151848203600086015261180182826116a8565b9150506020830151848203602086015261181b82826116a8565b9150506040830151848203604086015261183582826116a8565b915050606083015161184a60608601826117d5565b508091505092915050565b600061186183836117e4565b905092915050565b6000602082019050919050565b6000611881826117a9565b61188b81856117b4565b93508360208202850161189d856117c5565b8060005b858110156118d957848403895281516118ba8582611855565b94506118c583611869565b925060208a019950506001810190506118a1565b50829750879550505050505092915050565b600060208201905081810360008301526119058184611876565b905092915050565b600081519050919050565b600082825260208201905092915050565b6000819050602082019050919050565b600061194583836116a8565b905092915050565b6000602082019050919050565b60006119658261190d565b61196f8185611918565b93508360208202850161198185611929565b8060005b858110156119bd578484038952815161199e8582611939565b94506119a98361194d565b925060208a01995050600181019050611985565b50829750879550505050505092915050565b600060208201905081810360008301526119e9818461195a565b905092915050565b600060208284031215611a0757611a06611225565b5b6000611a15848285016113b6565b91505092915050565b611a278161124f565b82525050565b6000606082019050611a426000830186611a1e565b8181036020830152611a548185611311565b9050611a63604083018461142d565b949350505050565b7f4e487b7100000000000000000000000000000000000000000000000000000000600052602260045260246000fd5b60006002820490506001821680611ab257607f821691505b602082108103611ac557611ac4611a6b565b5b50919050565b7f757365725f616c72656164795f65786973747300000000000000000000000000600082015250565b6000611b016013836112c5565b9150611b0c82611acb565b602082019050919050565b60006020820190508181036000830152611b3081611af4565b9050919050565b7f4e487b7100000000000000000000000000000000000000000000000000000000600052602160045260246000fd5b60008190508160005260206000209050919050565b60006020601f8301049050919050565b600082821b905092915050565b600060088302611bc87fffffffffffffffffffffffffffffffffffffffffffffffffffffffffffffffff82611b8b565b611bd28683611b8b565b95508019841693508086168417925050509392505050565b6000819050919050565b6000611c0f611c0a611c0584611395565b611bea565b611395565b9050919050565b6000819050919050565b611c2983611bf4565b611c3d611c3582611c16565b848454611b98565b825550505050565b600090565b611c52611c45565b611c5d818484611c20565b505050565b5b81811015611c8157611c76600082611c4a565b600181019050611c63565b5050565b601f821115611cc657611c9781611b66565b611ca084611b7b565b81016020851015611caf578190505b611cc3611cbb85611b7b565b830182611c62565b50505b505050565b600082821c905092915050565b6000611ce960001984600802611ccb565b1980831691505092915050565b6000611d028383611cd8565b9150826002028217905092915050565b611d1b826112ba565b67ffffffffffffffff811115611d3457611d33611461565b5b611d3e8254611a9a565b611d49828285611c85565b600060209050601f831160018114611d7c5760008415611d6a578287015190505b611d748582611cf6565b865550611ddc565b601f198416611d8a86611b66565b60005b82811015611db257848901518255600182019150602085019450602081019050611d8d565b86831015611dcf5784890151611dcb601f891682611cd8565b8355505b6001600288020188555050505b505050505050565b7f757365725f646f65735f6e6f745f657869737400000000000000000000000000600082015250565b6000611e1a6013836112c5565b9150611e2582611de4565b602082019050919050565b60006020820190508181036000830152611e4981611e0d565b9050919050565b7f7265666572656e63655f616c72656164795f6578697374730000000000000000600082015250565b6000611e866018836112c5565b9150611e9182611e50565b602082019050919050565b60006020820190508181036000830152611eb581611e79565b9050919050565b7f4e487b7100000000000000000000000000000000000000000000000000000000600052603260045260246000fd5b7f4e487b7100000000000000000000000000000000000000000000000000000000600052601160045260246000fd5b6000611f2582611395565b91507fffffffffffffffffffffffffffffffffffffffffffffffffffffffffffffffff8203611f5757611f56611eeb565b5b60018201905091905056fea26469706673582212204606e064961198f207bcbc1b9b2a0a9f95b5aa37f8513664c9ef9513e8b671f464736f6c63430008100033",
  "immutableReferences": {},
  "source": "// SPDX-License-Identifier: GPL-3.0\r\npragma solidity >=0.5.0 <0.9.0;\r\n\r\nimport {StringUtils, ArrayUtils, ByteUtils} from \"../utils/Utilities.sol\";\r\n\r\ncontract References {\r\n    using StringUtils for *;\r\n    using ArrayUtils for *;\r\n    using ByteUtils for *;\r\n\r\n    uint256 public constant UNIX_DAY = 86400;\r\n\r\n    enum AccountType {\r\n        Patient,\r\n        Professional\r\n    }\r\n\r\n    struct Account {\r\n        address id;\r\n        string name;\r\n        uint256 accountType;\r\n    }\r\n\r\n    struct Patient {\r\n        string name;\r\n        bool instanced;\r\n    }\r\n\r\n    struct Professional {\r\n        string name;\r\n        string workplace;\r\n        bool instanced;\r\n    }\r\n\r\n    struct Reference {\r\n        string id;\r\n        string name;\r\n        string resourceType;\r\n        uint256 date;\r\n    }\r\n\r\n    Account[] public accounts;\r\n    mapping(address => Patient) public patients;\r\n    mapping(address => Reference[]) public references;\r\n    mapping(address => string[]) public referenceIds;\r\n\r\n    modifier requireInstancedPatient() {\r\n        require(patients[msg.sender].instanced, \"user_does_not_exist\");\r\n        _;\r\n    }\r\n\r\n    constructor() {}\r\n\r\n    function addUser(string memory _name) public returns (bool) {\r\n        // check if user is already present\r\n        require(!patients[msg.sender].instanced, \"user_already_exists\");\r\n\r\n        // register user\r\n        accounts.push(\r\n            Account({\r\n                id: msg.sender,\r\n                name: _name,\r\n                accountType: uint256(AccountType.Patient)\r\n            })\r\n        );\r\n\r\n        patients[msg.sender].name = _name;\r\n        patients[msg.sender].instanced = true;\r\n        return true;\r\n    }\r\n\r\n    function getUser() public view returns (Patient memory) {\r\n        return patients[msg.sender];\r\n    }\r\n\r\n    function createReference(\r\n        string memory _id,\r\n        string memory _name,\r\n        string memory _type\r\n    ) public requireInstancedPatient returns (bool) {\r\n        // check if a reference with this id is instanced\r\n        require(\r\n            !referenceIds[msg.sender].contains(_id),\r\n            \"reference_already_exists\"\r\n        );\r\n\r\n        //add reference\r\n        referenceIds[msg.sender].push(_id);\r\n\r\n        references[msg.sender].push(\r\n            Reference({\r\n                id: _id,\r\n                name: _name,\r\n                resourceType: _type,\r\n                date: block.timestamp\r\n            })\r\n        );\r\n\r\n        return true;\r\n    }\r\n\r\n    function listReferenceIds()\r\n        public\r\n        view\r\n        requireInstancedPatient\r\n        returns (string[] memory)\r\n    {\r\n        return referenceIds[msg.sender];\r\n    }\r\n\r\n    function listReferences()\r\n        public\r\n        view\r\n        requireInstancedPatient\r\n        returns (Reference[] memory)\r\n    {\r\n        return references[msg.sender];\r\n    }\r\n}\r\n",
  "sourcePath": "D:\\.higia\\backend-smartcontracts\\src\\contracts\\references.sol",
  "compiler": {
    "name": "solc",
    "version": "0.8.16+commit.07a7930e.Emscripten.clang"
  },
  "schemaVersion": "3.4.9",
  "updatedAt": "2022-09-06T03:10:44.485Z",
  "networkType": "ethereum",
  "devdoc": {
    "kind": "dev",
    "methods": {},
    "version": 1
  },
  "userdoc": {
    "kind": "user",
    "methods": {},
    "version": 1
  }
}