{
  "contractName": "References",
  "abi": [
    {
      "inputs": [],
      "stateMutability": "nonpayable",
      "type": "constructor"
    },
    {
      "inputs": [],
      "name": "UNIX_DAY",
      "outputs": [
        {
          "internalType": "uint256",
          "name": "",
          "type": "uint256"
        }
      ],
      "stateMutability": "view",
      "type": "function",
      "constant": true
    },
    {
      "inputs": [
        {
          "internalType": "uint256",
          "name": "",
          "type": "uint256"
        }
      ],
      "name": "accounts",
      "outputs": [
        {
          "internalType": "address",
          "name": "id",
          "type": "address"
        },
        {
          "internalType": "string",
          "name": "name",
          "type": "string"
        },
        {
          "internalType": "uint256",
          "name": "accountType",
          "type": "uint256"
        }
      ],
      "stateMutability": "view",
      "type": "function",
      "constant": true
    },
    {
      "inputs": [
        {
          "internalType": "address",
          "name": "",
          "type": "address"
        }
      ],
      "name": "patients",
      "outputs": [
        {
          "internalType": "string",
          "name": "name",
          "type": "string"
        },
        {
          "internalType": "bool",
          "name": "instanced",
          "type": "bool"
        }
      ],
      "stateMutability": "view",
      "type": "function",
      "constant": true
    },
    {
      "inputs": [
        {
          "internalType": "address",
          "name": "",
          "type": "address"
        },
        {
          "internalType": "uint256",
          "name": "",
          "type": "uint256"
        }
      ],
      "name": "referenceIds",
      "outputs": [
        {
          "internalType": "string",
          "name": "",
          "type": "string"
        }
      ],
      "stateMutability": "view",
      "type": "function",
      "constant": true
    },
    {
      "inputs": [
        {
          "internalType": "address",
          "name": "",
          "type": "address"
        },
        {
          "internalType": "uint256",
          "name": "",
          "type": "uint256"
        }
      ],
      "name": "references",
      "outputs": [
        {
          "internalType": "string",
          "name": "id",
          "type": "string"
        },
        {
          "internalType": "string",
          "name": "name",
          "type": "string"
        },
        {
          "internalType": "string",
          "name": "resourceType",
          "type": "string"
        },
        {
          "internalType": "uint256",
          "name": "date",
          "type": "uint256"
        }
      ],
      "stateMutability": "view",
      "type": "function",
      "constant": true
    },
    {
      "inputs": [
        {
          "internalType": "address",
          "name": "",
          "type": "address"
        },
        {
          "internalType": "bytes32",
          "name": "",
          "type": "bytes32"
        }
      ],
      "name": "tokens",
      "outputs": [
        {
          "internalType": "bytes32",
          "name": "token",
          "type": "bytes32"
        },
        {
          "internalType": "bool",
          "name": "valid",
          "type": "bool"
        },
        {
          "internalType": "uint256",
          "name": "validUntil",
          "type": "uint256"
        },
        {
          "internalType": "uint256",
          "name": "usesLeft",
          "type": "uint256"
        },
        {
          "internalType": "bool",
          "name": "instanced",
          "type": "bool"
        }
      ],
      "stateMutability": "view",
      "type": "function",
      "constant": true
    },
    {
      "inputs": [
        {
          "internalType": "string",
          "name": "_name",
          "type": "string"
        }
      ],
      "name": "addUser",
      "outputs": [
        {
          "internalType": "bool",
          "name": "",
          "type": "bool"
        }
      ],
      "stateMutability": "nonpayable",
      "type": "function"
    },
    {
      "inputs": [],
      "name": "getUser",
      "outputs": [
        {
          "components": [
            {
              "internalType": "string",
              "name": "name",
              "type": "string"
            },
            {
              "internalType": "bool",
              "name": "instanced",
              "type": "bool"
            }
          ],
          "internalType": "struct References.Patient",
          "name": "",
          "type": "tuple"
        }
      ],
      "stateMutability": "view",
      "type": "function",
      "constant": true
    },
    {
      "inputs": [
        {
          "internalType": "string",
          "name": "_id",
          "type": "string"
        },
        {
          "internalType": "string",
          "name": "_name",
          "type": "string"
        },
        {
          "internalType": "string",
          "name": "_type",
          "type": "string"
        }
      ],
      "name": "createReference",
      "outputs": [
        {
          "internalType": "bool",
          "name": "",
          "type": "bool"
        }
      ],
      "stateMutability": "nonpayable",
      "type": "function"
    },
    {
      "inputs": [],
      "name": "listReferenceIds",
      "outputs": [
        {
          "internalType": "string[]",
          "name": "",
          "type": "string[]"
        }
      ],
      "stateMutability": "view",
      "type": "function",
      "constant": true
    },
    {
      "inputs": [],
      "name": "listReferences",
      "outputs": [
        {
          "components": [
            {
              "internalType": "string",
              "name": "id",
              "type": "string"
            },
            {
              "internalType": "string",
              "name": "name",
              "type": "string"
            },
            {
              "internalType": "string",
              "name": "resourceType",
              "type": "string"
            },
            {
              "internalType": "uint256",
              "name": "date",
              "type": "uint256"
            }
          ],
          "internalType": "struct References.Reference[]",
          "name": "",
          "type": "tuple[]"
        }
      ],
      "stateMutability": "view",
      "type": "function",
      "constant": true
    },
    {
      "inputs": [],
      "name": "listPatients",
      "outputs": [
        {
          "components": [
            {
              "internalType": "address",
              "name": "id",
              "type": "address"
            },
            {
              "internalType": "string",
              "name": "name",
              "type": "string"
            },
            {
              "internalType": "uint256",
              "name": "accountType",
              "type": "uint256"
            }
          ],
          "internalType": "struct References.Account[]",
          "name": "",
          "type": "tuple[]"
        }
      ],
      "stateMutability": "view",
      "type": "function",
      "constant": true
    },
    {
      "inputs": [
        {
          "internalType": "string",
          "name": "_token",
          "type": "string"
        }
      ],
      "name": "createToken",
      "outputs": [
        {
          "internalType": "bool",
          "name": "",
          "type": "bool"
        }
      ],
      "stateMutability": "nonpayable",
      "type": "function"
    },
    {
      "inputs": [
        {
          "internalType": "string",
          "name": "_tokenString",
          "type": "string"
        }
      ],
      "name": "getToken",
      "outputs": [
        {
          "components": [
            {
              "internalType": "bytes32",
              "name": "token",
              "type": "bytes32"
            },
            {
              "internalType": "bool",
              "name": "valid",
              "type": "bool"
            },
            {
              "internalType": "uint256",
              "name": "validUntil",
              "type": "uint256"
            },
            {
              "internalType": "uint256",
              "name": "usesLeft",
              "type": "uint256"
            },
            {
              "internalType": "bool",
              "name": "instanced",
              "type": "bool"
            }
          ],
          "internalType": "struct References.Token",
          "name": "",
          "type": "tuple"
        }
      ],
      "stateMutability": "view",
      "type": "function",
      "constant": true
    },
    {
      "inputs": [
        {
          "internalType": "address",
          "name": "_patient",
          "type": "address"
        },
        {
          "internalType": "string",
          "name": "_tokenString",
          "type": "string"
        }
      ],
      "name": "listReferencesThird",
      "outputs": [
        {
          "components": [
            {
              "internalType": "string",
              "name": "id",
              "type": "string"
            },
            {
              "internalType": "string",
              "name": "name",
              "type": "string"
            },
            {
              "internalType": "string",
              "name": "resourceType",
              "type": "string"
            },
            {
              "internalType": "uint256",
              "name": "date",
              "type": "uint256"
            }
          ],
          "internalType": "struct References.Reference[]",
          "name": "",
          "type": "tuple[]"
        }
      ],
      "stateMutability": "view",
      "type": "function",
      "constant": true
    },
    {
      "inputs": [
        {
          "internalType": "string",
          "name": "_tokenString",
          "type": "string"
        },
        {
          "internalType": "string",
          "name": "_id",
          "type": "string"
        },
        {
          "internalType": "string",
          "name": "_name",
          "type": "string"
        },
        {
          "internalType": "string",
          "name": "_type",
          "type": "string"
        }
      ],
      "name": "createReferenceThird",
      "outputs": [
        {
          "internalType": "bool",
          "name": "",
          "type": "bool"
        }
      ],
      "stateMutability": "nonpayable",
      "type": "function"
    }
  ],
  "bytecode": "0x608060405234801561001057600080fd5b50613372806100206000396000f3fe608060405234801561001057600080fd5b50600436106101005760003560e01c8063832880e711610097578063c1733f6811610066578063c1733f6814610317578063c212d65f14610347578063c5a2a18e14610365578063f2a40db81461038357610100565b8063832880e7146102745780639d2ff01e14610292578063a4dec788146102b0578063a9964d1c146102e357610100565b80634208adc7116100d35780634208adc7146101b457806345576f94146101e45780635c64451b146102145780636fc5e80b1461024457610100565b80630869cfbc14610105578063138a5e8114610136578063177cf2181461016657806318b8275a14610184575b600080fd5b61011f600480360381019061011a9190612152565b6103b5565b60405161012d92919061222a565b60405180910390f35b610150600480360381019061014b9190612290565b61046e565b60405161015d91906122d0565b60405180910390f35b61016e610527565b60405161017b9190612301565b60405180910390f35b61019e60048036038101906101999190612451565b61052e565b6040516101ab919061249a565b60405180910390f35b6101ce60048036038101906101c991906124b5565b61074b565b6040516101db919061269d565b60405180910390f35b6101fe60048036038101906101f99190612451565b610b04565b60405161020b919061249a565b60405180910390f35b61022e600480360381019061022991906126bf565b610c99565b60405161023b919061249a565b60405180910390f35b61025e60048036038101906102599190612796565b6111db565b60405161026b919061249a565b60405180910390f35b61027c611521565b6040516102899190612889565b60405180910390f35b61029a611625565b6040516102a791906129cc565b60405180910390f35b6102ca60048036038101906102c59190612290565b611776565b6040516102da94939291906129ee565b60405180910390f35b6102fd60048036038101906102f89190612a7e565b61195b565b60405161030e959493929190612acd565b60405180910390f35b610331600480360381019061032c9190612451565b6119b8565b60405161033e9190612b97565b60405180910390f35b61034f611a84565b60405161035c919061269d565b60405180910390f35b61036d611d6f565b60405161037a9190612c74565b60405180910390f35b61039d60048036038101906103989190612c96565b611f14565b6040516103ac93929190612cd2565b60405180910390f35b60016020528060005260406000206000915090508060000180546103d890612d3f565b80601f016020809104026020016040519081016040528092919081815260200182805461040490612d3f565b80156104515780601f1061042657610100808354040283529160200191610451565b820191906000526020600020905b81548152906001019060200180831161043457829003601f168201915b5050505050908060010160009054906101000a900460ff16905082565b6003602052816000526040600020818154811061048a57600080fd5b906000526020600020016000915091505080546104a690612d3f565b80601f01602080910402602001604051908101604052809291908181526020018280546104d290612d3f565b801561051f5780601f106104f45761010080835404028352916020019161051f565b820191906000526020600020905b81548152906001019060200180831161050257829003601f168201915b505050505081565b6201518081565b6000600160003373ffffffffffffffffffffffffffffffffffffffff1673ffffffffffffffffffffffffffffffffffffffff16815260200190815260200160002060010160009054906101000a900460ff16156105c0576040517f08c379a00000000000000000000000000000000000000000000000000000000081526004016105b790612dbc565b60405180910390fd5b600060405180606001604052803373ffffffffffffffffffffffffffffffffffffffff1681526020018481526020016000600181111561060357610602612ddc565b5b815250908060018154018082558091505060019003906000526020600020906003020160009091909190915060008201518160000160006101000a81548173ffffffffffffffffffffffffffffffffffffffff021916908373ffffffffffffffffffffffffffffffffffffffff160217905550602082015181600101908161068b9190612fb7565b5060408201518160020155505081600160003373ffffffffffffffffffffffffffffffffffffffff1673ffffffffffffffffffffffffffffffffffffffff16815260200190815260200160002060000190816106e79190612fb7565b5060018060003373ffffffffffffffffffffffffffffffffffffffff1673ffffffffffffffffffffffffffffffffffffffff16815260200190815260200160002060010160006101000a81548160ff02191690831515021790555060019050919050565b6060600061075883611ff6565b90506000600460008673ffffffffffffffffffffffffffffffffffffffff1673ffffffffffffffffffffffffffffffffffffffff16815260200190815260200160002060008381526020019081526020016000206040518060a0016040529081600082015481526020016001820160009054906101000a900460ff1615151515815260200160028201548152602001600382015481526020016004820160009054906101000a900460ff16151515158152505090508060800151801561081f575080602001515b61085e576040517f08c379a0000000000000000000000000000000000000000000000000000000008152600401610855906130d5565b60405180910390fd5b42816040015110156108a5576040517f08c379a000000000000000000000000000000000000000000000000000000000815260040161089c90613141565b60405180910390fd5b600260008673ffffffffffffffffffffffffffffffffffffffff1673ffffffffffffffffffffffffffffffffffffffff168152602001908152602001600020805480602002602001604051908101604052809291908181526020016000905b82821015610af6578382906000526020600020906004020160405180608001604052908160008201805461093790612d3f565b80601f016020809104026020016040519081016040528092919081815260200182805461096390612d3f565b80156109b05780601f10610985576101008083540402835291602001916109b0565b820191906000526020600020905b81548152906001019060200180831161099357829003601f168201915b505050505081526020016001820180546109c990612d3f565b80601f01602080910402602001604051908101604052809291908181526020018280546109f590612d3f565b8015610a425780601f10610a1757610100808354040283529160200191610a42565b820191906000526020600020905b815481529060010190602001808311610a2557829003601f168201915b50505050508152602001600282018054610a5b90612d3f565b80601f0160208091040260200160405190810160405280929190818152602001828054610a8790612d3f565b8015610ad45780601f10610aa957610100808354040283529160200191610ad4565b820191906000526020600020905b815481529060010190602001808311610ab757829003601f168201915b5050505050815260200160038201548152505081526020019060010190610904565b505050509250505092915050565b6000600160003373ffffffffffffffffffffffffffffffffffffffff1673ffffffffffffffffffffffffffffffffffffffff16815260200190815260200160002060010160009054906101000a900460ff16610b95576040517f08c379a0000000000000000000000000000000000000000000000000000000008152600401610b8c906131ad565b60405180910390fd5b6000610ba083611ff6565b90506040518060a001604052808281526020016001151581526020016201518042610bcb91906131fc565b81526020016001815260200160011515815250600460003373ffffffffffffffffffffffffffffffffffffffff1673ffffffffffffffffffffffffffffffffffffffff16815260200190815260200160002060008381526020019081526020016000206000820151816000015560208201518160010160006101000a81548160ff021916908315150217905550604082015181600201556060820151816003015560808201518160040160006101000a81548160ff0219169083151502179055509050506001915050919050565b600080610ca586611ff6565b90506000600460003373ffffffffffffffffffffffffffffffffffffffff1673ffffffffffffffffffffffffffffffffffffffff16815260200190815260200160002060008381526020019081526020016000206040518060a0016040529081600082015481526020016001820160009054906101000a900460ff1615151515815260200160028201548152602001600382015481526020016004820160009054906101000a900460ff161515151581525050905080608001518015610d6c575080602001515b610dab576040517f08c379a0000000000000000000000000000000000000000000000000000000008152600401610da2906130d5565b60405180910390fd5b4281604001511015610df2576040517f08c379a0000000000000000000000000000000000000000000000000000000008152600401610de990613141565b60405180910390fd5b610f1386600360003373ffffffffffffffffffffffffffffffffffffffff1673ffffffffffffffffffffffffffffffffffffffff168152602001908152602001600020805480602002602001604051908101604052809291908181526020016000905b82821015610f01578382906000526020600020018054610e7490612d3f565b80601f0160208091040260200160405190810160405280929190818152602001828054610ea090612d3f565b8015610eed5780601f10610ec257610100808354040283529160200191610eed565b820191906000526020600020905b815481529060010190602001808311610ed057829003601f168201915b505050505081526020019060010190610e55565b5050505061200790919063ffffffff16565b15610f53576040517f08c379a0000000000000000000000000000000000000000000000000000000008152600401610f4a9061327c565b60405180910390fd5b600360003373ffffffffffffffffffffffffffffffffffffffff1673ffffffffffffffffffffffffffffffffffffffff16815260200190815260200160002086908060018154018082558091505060019003906000526020600020016000909190919091509081610fc49190612fb7565b50600260003373ffffffffffffffffffffffffffffffffffffffff1673ffffffffffffffffffffffffffffffffffffffff168152602001908152602001600020604051806080016040528088815260200187815260200186815260200142815250908060018154018082558091505060019003906000526020600020906004020160009091909190915060008201518160000190816110639190612fb7565b5060208201518160010190816110799190612fb7565b50604082015181600201908161108f9190612fb7565b50606082015181600301555050600460003373ffffffffffffffffffffffffffffffffffffffff1673ffffffffffffffffffffffffffffffffffffffff168152602001908152602001600020600083815260200190815260200160002060030160008154809291906111009061329c565b91905055506000600460003373ffffffffffffffffffffffffffffffffffffffff1673ffffffffffffffffffffffffffffffffffffffff168152602001908152602001600020600084815260200190815260200160002060030154036111cd576000600460003373ffffffffffffffffffffffffffffffffffffffff1673ffffffffffffffffffffffffffffffffffffffff168152602001908152602001600020600084815260200190815260200160002060010160006101000a81548160ff0219169083151502179055505b600192505050949350505050565b6000600160003373ffffffffffffffffffffffffffffffffffffffff1673ffffffffffffffffffffffffffffffffffffffff16815260200190815260200160002060010160009054906101000a900460ff1661126c576040517f08c379a0000000000000000000000000000000000000000000000000000000008152600401611263906131ad565b60405180910390fd5b61138d84600360003373ffffffffffffffffffffffffffffffffffffffff1673ffffffffffffffffffffffffffffffffffffffff168152602001908152602001600020805480602002602001604051908101604052809291908181526020016000905b8282101561137b5783829060005260206000200180546112ee90612d3f565b80601f016020809104026020016040519081016040528092919081815260200182805461131a90612d3f565b80156113675780601f1061133c57610100808354040283529160200191611367565b820191906000526020600020905b81548152906001019060200180831161134a57829003601f168201915b5050505050815260200190600101906112cf565b5050505061200790919063ffffffff16565b156113cd576040517f08c379a00000000000000000000000000000000000000000000000000000000081526004016113c49061327c565b60405180910390fd5b600360003373ffffffffffffffffffffffffffffffffffffffff1673ffffffffffffffffffffffffffffffffffffffff1681526020019081526020016000208490806001815401808255809150506001900390600052602060002001600090919091909150908161143e9190612fb7565b50600260003373ffffffffffffffffffffffffffffffffffffffff1673ffffffffffffffffffffffffffffffffffffffff168152602001908152602001600020604051806080016040528086815260200185815260200184815260200142815250908060018154018082558091505060019003906000526020600020906004020160009091909190915060008201518160000190816114dd9190612fb7565b5060208201518160010190816114f39190612fb7565b5060408201518160020190816115099190612fb7565b50606082015181600301555050600190509392505050565b61152961208e565b600160003373ffffffffffffffffffffffffffffffffffffffff1673ffffffffffffffffffffffffffffffffffffffff16815260200190815260200160002060405180604001604052908160008201805461158390612d3f565b80601f01602080910402602001604051908101604052809291908181526020018280546115af90612d3f565b80156115fc5780601f106115d1576101008083540402835291602001916115fc565b820191906000526020600020905b8154815290600101906020018083116115df57829003601f168201915b505050505081526020016001820160009054906101000a900460ff161515151581525050905090565b60606000805480602002602001604051908101604052809291908181526020016000905b8282101561176d57838290600052602060002090600302016040518060600160405290816000820160009054906101000a900473ffffffffffffffffffffffffffffffffffffffff1673ffffffffffffffffffffffffffffffffffffffff1673ffffffffffffffffffffffffffffffffffffffff1681526020016001820180546116d290612d3f565b80601f01602080910402602001604051908101604052809291908181526020018280546116fe90612d3f565b801561174b5780601f106117205761010080835404028352916020019161174b565b820191906000526020600020905b81548152906001019060200180831161172e57829003601f168201915b5050505050815260200160028201548152505081526020019060010190611649565b50505050905090565b6002602052816000526040600020818154811061179257600080fd5b9060005260206000209060040201600091509150508060000180546117b690612d3f565b80601f01602080910402602001604051908101604052809291908181526020018280546117e290612d3f565b801561182f5780601f106118045761010080835404028352916020019161182f565b820191906000526020600020905b81548152906001019060200180831161181257829003601f168201915b50505050509080600101805461184490612d3f565b80601f016020809104026020016040519081016040528092919081815260200182805461187090612d3f565b80156118bd5780601f10611892576101008083540402835291602001916118bd565b820191906000526020600020905b8154815290600101906020018083116118a057829003601f168201915b5050505050908060020180546118d290612d3f565b80601f01602080910402602001604051908101604052809291908181526020018280546118fe90612d3f565b801561194b5780601f106119205761010080835404028352916020019161194b565b820191906000526020600020905b81548152906001019060200180831161192e57829003601f168201915b5050505050908060030154905084565b6004602052816000526040600020602052806000526040600020600091509150508060000154908060010160009054906101000a900460ff16908060020154908060030154908060040160009054906101000a900460ff16905085565b6119c06120aa565b60006119cb83611ff6565b9050600460003373ffffffffffffffffffffffffffffffffffffffff1673ffffffffffffffffffffffffffffffffffffffff16815260200190815260200160002060008281526020019081526020016000206040518060a0016040529081600082015481526020016001820160009054906101000a900460ff1615151515815260200160028201548152602001600382015481526020016004820160009054906101000a900460ff161515151581525050915050919050565b6060600160003373ffffffffffffffffffffffffffffffffffffffff1673ffffffffffffffffffffffffffffffffffffffff16815260200190815260200160002060010160009054906101000a900460ff16611b15576040517f08c379a0000000000000000000000000000000000000000000000000000000008152600401611b0c906131ad565b60405180910390fd5b600260003373ffffffffffffffffffffffffffffffffffffffff1673ffffffffffffffffffffffffffffffffffffffff168152602001908152602001600020805480602002602001604051908101604052809291908181526020016000905b82821015611d665783829060005260206000209060040201604051806080016040529081600082018054611ba790612d3f565b80601f0160208091040260200160405190810160405280929190818152602001828054611bd390612d3f565b8015611c205780601f10611bf557610100808354040283529160200191611c20565b820191906000526020600020905b815481529060010190602001808311611c0357829003601f168201915b50505050508152602001600182018054611c3990612d3f565b80601f0160208091040260200160405190810160405280929190818152602001828054611c6590612d3f565b8015611cb25780601f10611c8757610100808354040283529160200191611cb2565b820191906000526020600020905b815481529060010190602001808311611c9557829003601f168201915b50505050508152602001600282018054611ccb90612d3f565b80601f0160208091040260200160405190810160405280929190818152602001828054611cf790612d3f565b8015611d445780601f10611d1957610100808354040283529160200191611d44565b820191906000526020600020905b815481529060010190602001808311611d2757829003601f168201915b5050505050815260200160038201548152505081526020019060010190611b74565b50505050905090565b6060600160003373ffffffffffffffffffffffffffffffffffffffff1673ffffffffffffffffffffffffffffffffffffffff16815260200190815260200160002060010160009054906101000a900460ff16611e00576040517f08c379a0000000000000000000000000000000000000000000000000000000008152600401611df7906131ad565b60405180910390fd5b600360003373ffffffffffffffffffffffffffffffffffffffff1673ffffffffffffffffffffffffffffffffffffffff168152602001908152602001600020805480602002602001604051908101604052809291908181526020016000905b82821015611f0b578382906000526020600020018054611e7e90612d3f565b80601f0160208091040260200160405190810160405280929190818152602001828054611eaa90612d3f565b8015611ef75780601f10611ecc57610100808354040283529160200191611ef7565b820191906000526020600020905b815481529060010190602001808311611eda57829003601f168201915b505050505081526020019060010190611e5f565b50505050905090565b60008181548110611f2457600080fd5b90600052602060002090600302016000915090508060000160009054906101000a900473ffffffffffffffffffffffffffffffffffffffff1690806001018054611f6d90612d3f565b80601f0160208091040260200160405190810160405280929190818152602001828054611f9990612d3f565b8015611fe65780601f10611fbb57610100808354040283529160200191611fe6565b820191906000526020600020905b815481529060010190602001808311611fc957829003601f168201915b5050505050908060020154905083565b600081805190602001209050919050565b600080600090505b8351811015612067576120458385838151811061202f5761202e6132c5565b5b602002602001015161207390919063ffffffff16565b1561205457600191505061206d565b808061205f906132f4565b91505061200f565b50600090505b92915050565b60008180519060200120838051906020012014905092915050565b6040518060400160405280606081526020016000151581525090565b6040518060a001604052806000801916815260200160001515815260200160008152602001600081526020016000151581525090565b6000604051905090565b600080fd5b600080fd5b600073ffffffffffffffffffffffffffffffffffffffff82169050919050565b600061211f826120f4565b9050919050565b61212f81612114565b811461213a57600080fd5b50565b60008135905061214c81612126565b92915050565b600060208284031215612168576121676120ea565b5b60006121768482850161213d565b91505092915050565b600081519050919050565b600082825260208201905092915050565b60005b838110156121b957808201518184015260208101905061219e565b60008484015250505050565b6000601f19601f8301169050919050565b60006121e18261217f565b6121eb818561218a565b93506121fb81856020860161219b565b612204816121c5565b840191505092915050565b60008115159050919050565b6122248161220f565b82525050565b6000604082019050818103600083015261224481856121d6565b9050612253602083018461221b565b9392505050565b6000819050919050565b61226d8161225a565b811461227857600080fd5b50565b60008135905061228a81612264565b92915050565b600080604083850312156122a7576122a66120ea565b5b60006122b58582860161213d565b92505060206122c68582860161227b565b9150509250929050565b600060208201905081810360008301526122ea81846121d6565b905092915050565b6122fb8161225a565b82525050565b600060208201905061231660008301846122f2565b92915050565b600080fd5b600080fd5b7f4e487b7100000000000000000000000000000000000000000000000000000000600052604160045260246000fd5b61235e826121c5565b810181811067ffffffffffffffff8211171561237d5761237c612326565b5b80604052505050565b60006123906120e0565b905061239c8282612355565b919050565b600067ffffffffffffffff8211156123bc576123bb612326565b5b6123c5826121c5565b9050602081019050919050565b82818337600083830152505050565b60006123f46123ef846123a1565b612386565b9050828152602081018484840111156124105761240f612321565b5b61241b8482856123d2565b509392505050565b600082601f8301126124385761243761231c565b5b81356124488482602086016123e1565b91505092915050565b600060208284031215612467576124666120ea565b5b600082013567ffffffffffffffff811115612485576124846120ef565b5b61249184828501612423565b91505092915050565b60006020820190506124af600083018461221b565b92915050565b600080604083850312156124cc576124cb6120ea565b5b60006124da8582860161213d565b925050602083013567ffffffffffffffff8111156124fb576124fa6120ef565b5b61250785828601612423565b9150509250929050565b600081519050919050565b600082825260208201905092915050565b6000819050602082019050919050565b600082825260208201905092915050565b60006125598261217f565b612563818561253d565b935061257381856020860161219b565b61257c816121c5565b840191505092915050565b6125908161225a565b82525050565b600060808301600083015184820360008601526125b3828261254e565b915050602083015184820360208601526125cd828261254e565b915050604083015184820360408601526125e7828261254e565b91505060608301516125fc6060860182612587565b508091505092915050565b60006126138383612596565b905092915050565b6000602082019050919050565b600061263382612511565b61263d818561251c565b93508360208202850161264f8561252d565b8060005b8581101561268b578484038952815161266c8582612607565b94506126778361261b565b925060208a01995050600181019050612653565b50829750879550505050505092915050565b600060208201905081810360008301526126b78184612628565b905092915050565b600080600080608085870312156126d9576126d86120ea565b5b600085013567ffffffffffffffff8111156126f7576126f66120ef565b5b61270387828801612423565b945050602085013567ffffffffffffffff811115612724576127236120ef565b5b61273087828801612423565b935050604085013567ffffffffffffffff811115612751576127506120ef565b5b61275d87828801612423565b925050606085013567ffffffffffffffff81111561277e5761277d6120ef565b5b61278a87828801612423565b91505092959194509250565b6000806000606084860312156127af576127ae6120ea565b5b600084013567ffffffffffffffff8111156127cd576127cc6120ef565b5b6127d986828701612423565b935050602084013567ffffffffffffffff8111156127fa576127f96120ef565b5b61280686828701612423565b925050604084013567ffffffffffffffff811115612827576128266120ef565b5b61283386828701612423565b9150509250925092565b6128468161220f565b82525050565b60006040830160008301518482036000860152612869828261254e565b915050602083015161287e602086018261283d565b508091505092915050565b600060208201905081810360008301526128a3818461284c565b905092915050565b600081519050919050565b600082825260208201905092915050565b6000819050602082019050919050565b6128e081612114565b82525050565b60006060830160008301516128fe60008601826128d7565b5060208301518482036020860152612916828261254e565b915050604083015161292b6040860182612587565b508091505092915050565b600061294283836128e6565b905092915050565b6000602082019050919050565b6000612962826128ab565b61296c81856128b6565b93508360208202850161297e856128c7565b8060005b858110156129ba578484038952815161299b8582612936565b94506129a68361294a565b925060208a01995050600181019050612982565b50829750879550505050505092915050565b600060208201905081810360008301526129e68184612957565b905092915050565b60006080820190508181036000830152612a0881876121d6565b90508181036020830152612a1c81866121d6565b90508181036040830152612a3081856121d6565b9050612a3f60608301846122f2565b95945050505050565b6000819050919050565b612a5b81612a48565b8114612a6657600080fd5b50565b600081359050612a7881612a52565b92915050565b60008060408385031215612a9557612a946120ea565b5b6000612aa38582860161213d565b9250506020612ab485828601612a69565b9150509250929050565b612ac781612a48565b82525050565b600060a082019050612ae26000830188612abe565b612aef602083018761221b565b612afc60408301866122f2565b612b0960608301856122f2565b612b16608083018461221b565b9695505050505050565b612b2981612a48565b82525050565b60a082016000820151612b456000850182612b20565b506020820151612b58602085018261283d565b506040820151612b6b6040850182612587565b506060820151612b7e6060850182612587565b506080820151612b91608085018261283d565b50505050565b600060a082019050612bac6000830184612b2f565b92915050565b600081519050919050565b600082825260208201905092915050565b6000819050602082019050919050565b6000612bea838361254e565b905092915050565b6000602082019050919050565b6000612c0a82612bb2565b612c148185612bbd565b935083602082028501612c2685612bce565b8060005b85811015612c625784840389528151612c438582612bde565b9450612c4e83612bf2565b925060208a01995050600181019050612c2a565b50829750879550505050505092915050565b60006020820190508181036000830152612c8e8184612bff565b905092915050565b600060208284031215612cac57612cab6120ea565b5b6000612cba8482850161227b565b91505092915050565b612ccc81612114565b82525050565b6000606082019050612ce76000830186612cc3565b8181036020830152612cf981856121d6565b9050612d0860408301846122f2565b949350505050565b7f4e487b7100000000000000000000000000000000000000000000000000000000600052602260045260246000fd5b60006002820490506001821680612d5757607f821691505b602082108103612d6a57612d69612d10565b5b50919050565b7f757365725f616c72656164795f65786973747300000000000000000000000000600082015250565b6000612da660138361218a565b9150612db182612d70565b602082019050919050565b60006020820190508181036000830152612dd581612d99565b9050919050565b7f4e487b7100000000000000000000000000000000000000000000000000000000600052602160045260246000fd5b60008190508160005260206000209050919050565b60006020601f8301049050919050565b600082821b905092915050565b600060088302612e6d7fffffffffffffffffffffffffffffffffffffffffffffffffffffffffffffffff82612e30565b612e778683612e30565b95508019841693508086168417925050509392505050565b6000819050919050565b6000612eb4612eaf612eaa8461225a565b612e8f565b61225a565b9050919050565b6000819050919050565b612ece83612e99565b612ee2612eda82612ebb565b848454612e3d565b825550505050565b600090565b612ef7612eea565b612f02818484612ec5565b505050565b5b81811015612f2657612f1b600082612eef565b600181019050612f08565b5050565b601f821115612f6b57612f3c81612e0b565b612f4584612e20565b81016020851015612f54578190505b612f68612f6085612e20565b830182612f07565b50505b505050565b600082821c905092915050565b6000612f8e60001984600802612f70565b1980831691505092915050565b6000612fa78383612f7d565b9150826002028217905092915050565b612fc08261217f565b67ffffffffffffffff811115612fd957612fd8612326565b5b612fe38254612d3f565b612fee828285612f2a565b600060209050601f831160018114613021576000841561300f578287015190505b6130198582612f9b565b865550613081565b601f19841661302f86612e0b565b60005b8281101561305757848901518255600182019150602085019450602081019050613032565b868310156130745784890151613070601f891682612f7d565b8355505b6001600288020188555050505b505050505050565b7f696e76616c69645f746f6b656e00000000000000000000000000000000000000600082015250565b60006130bf600d8361218a565b91506130ca82613089565b602082019050919050565b600060208201905081810360008301526130ee816130b2565b9050919050565b7f657870697265645f746f6b656e00000000000000000000000000000000000000600082015250565b600061312b600d8361218a565b9150613136826130f5565b602082019050919050565b6000602082019050818103600083015261315a8161311e565b9050919050565b7f757365725f646f65735f6e6f745f657869737400000000000000000000000000600082015250565b600061319760138361218a565b91506131a282613161565b602082019050919050565b600060208201905081810360008301526131c68161318a565b9050919050565b7f4e487b7100000000000000000000000000000000000000000000000000000000600052601160045260246000fd5b60006132078261225a565b91506132128361225a565b925082820190508082111561322a576132296131cd565b5b92915050565b7f7265666572656e63655f616c72656164795f6578697374730000000000000000600082015250565b600061326660188361218a565b915061327182613230565b602082019050919050565b6000602082019050818103600083015261329581613259565b9050919050565b60006132a78261225a565b9150600082036132ba576132b96131cd565b5b600182039050919050565b7f4e487b7100000000000000000000000000000000000000000000000000000000600052603260045260246000fd5b60006132ff8261225a565b91507fffffffffffffffffffffffffffffffffffffffffffffffffffffffffffffffff8203613331576133306131cd565b5b60018201905091905056fea26469706673582212200026b37787954fdd29dd398d9fa6476d5418a4d4289487a9a6d35d4c1799526164736f6c63430008110033",
  "immutableReferences": {},
  "source": "// SPDX-License-Identifier: GPL-3.0\r\npragma solidity >=0.5.0 <0.9.0;\r\n\r\nimport {StringUtils, ArrayUtils, ByteUtils} from \"../utils/Utilities.sol\";\r\n\r\ncontract References {\r\n    using StringUtils for *;\r\n    using ArrayUtils for *;\r\n    using ByteUtils for *;\r\n\r\n    uint256 public constant UNIX_DAY = 86400;\r\n\r\n    enum AccountType {\r\n        Patient,\r\n        Professional\r\n    }\r\n\r\n    struct Account {\r\n        address id;\r\n        string name;\r\n        uint256 accountType;\r\n    }\r\n\r\n    struct Patient {\r\n        string name;\r\n        bool instanced;\r\n    }\r\n\r\n    struct Professional {\r\n        string name;\r\n        string workplace;\r\n        bool instanced;\r\n    }\r\n\r\n    struct Reference {\r\n        string id;\r\n        string name;\r\n        string resourceType;\r\n        uint256 date;\r\n    }\r\n\r\n    struct Token {\r\n        bytes32 token;\r\n        bool valid;\r\n        uint256 validUntil;\r\n        uint256 usesLeft;\r\n        bool instanced;\r\n    }\r\n\r\n    Account[] public accounts;\r\n    mapping(address => Patient) public patients;\r\n    mapping(address => Reference[]) public references;\r\n    mapping(address => string[]) public referenceIds;\r\n\r\n    //token mappings\r\n    mapping(address => mapping(bytes32 => Token)) public tokens;\r\n\r\n    modifier requireInstancedPatient() {\r\n        require(patients[msg.sender].instanced, \"user_does_not_exist\");\r\n        _;\r\n    }\r\n\r\n    constructor() {}\r\n\r\n    function addUser(string memory _name) public returns (bool) {\r\n        // check if user is already present\r\n        require(!patients[msg.sender].instanced, \"user_already_exists\");\r\n\r\n        // register user\r\n        accounts.push(\r\n            Account({\r\n                id: msg.sender,\r\n                name: _name,\r\n                accountType: uint256(AccountType.Patient)\r\n            })\r\n        );\r\n\r\n        patients[msg.sender].name = _name;\r\n        patients[msg.sender].instanced = true;\r\n        return true;\r\n    }\r\n\r\n    function getUser() public view returns (Patient memory) {\r\n        return patients[msg.sender];\r\n    }\r\n\r\n    function createReference(\r\n        string memory _id,\r\n        string memory _name,\r\n        string memory _type\r\n    ) public requireInstancedPatient returns (bool) {\r\n        // check if a reference with this id is instanced\r\n        require(\r\n            !referenceIds[msg.sender].contains(_id),\r\n            \"reference_already_exists\"\r\n        );\r\n\r\n        //add reference\r\n        referenceIds[msg.sender].push(_id);\r\n\r\n        references[msg.sender].push(\r\n            Reference({\r\n                id: _id,\r\n                name: _name,\r\n                resourceType: _type,\r\n                date: block.timestamp\r\n            })\r\n        );\r\n\r\n        return true;\r\n    }\r\n\r\n    function listReferenceIds()\r\n        public\r\n        view\r\n        requireInstancedPatient\r\n        returns (string[] memory)\r\n    {\r\n        return referenceIds[msg.sender];\r\n    }\r\n\r\n    function listReferences()\r\n        public\r\n        view\r\n        requireInstancedPatient\r\n        returns (Reference[] memory)\r\n    {\r\n        return references[msg.sender];\r\n    }\r\n\r\n    function listPatients() public view returns (Account[] memory) {\r\n        return accounts;\r\n    }\r\n\r\n    function createToken(string memory _token)\r\n        public\r\n        requireInstancedPatient\r\n        returns (bool)\r\n    {\r\n        bytes32 tokenHash = _token.getHash();\r\n\r\n        tokens[msg.sender][tokenHash] = Token({\r\n            token: tokenHash,\r\n            valid: true,\r\n            validUntil: block.timestamp + UNIX_DAY,\r\n            usesLeft: 1,\r\n            instanced: true\r\n        });\r\n\r\n        return true;\r\n    }\r\n\r\n    function getToken(string memory _tokenString)\r\n        public\r\n        view\r\n        returns (Token memory)\r\n    {\r\n        bytes32 tokenHash = _tokenString.getHash();\r\n        return tokens[msg.sender][tokenHash];\r\n    }\r\n\r\n    function listReferencesThird(address _patient, string memory _tokenString)\r\n        public\r\n        view\r\n        returns (Reference[] memory)\r\n    {\r\n        bytes32 tokenHash = _tokenString.getHash();\r\n\r\n        Token memory token = tokens[_patient][tokenHash];\r\n        require(token.instanced && token.valid, \"invalid_token\");\r\n        require(token.validUntil >= block.timestamp, \"expired_token\");\r\n\r\n        return references[_patient];\r\n    }\r\n\r\n    function createReferenceThird(\r\n        string memory _tokenString,\r\n        string memory _id,\r\n        string memory _name,\r\n        string memory _type\r\n    ) public returns (bool) {\r\n        bytes32 tokenHash = _tokenString.getHash();\r\n\r\n        Token memory token = tokens[msg.sender][tokenHash];\r\n        require(token.instanced && token.valid, \"invalid_token\");\r\n        require(token.validUntil >= block.timestamp, \"expired_token\");\r\n\r\n        // check if a reference with this id is instanced\r\n        require(\r\n            !referenceIds[msg.sender].contains(_id),\r\n            \"reference_already_exists\"\r\n        );\r\n\r\n        //add reference\r\n        referenceIds[msg.sender].push(_id);\r\n\r\n        references[msg.sender].push(\r\n            Reference({\r\n                id: _id,\r\n                name: _name,\r\n                resourceType: _type,\r\n                date: block.timestamp\r\n            })\r\n        );\r\n\r\n        tokens[msg.sender][tokenHash].usesLeft--;\r\n        if (tokens[msg.sender][tokenHash].usesLeft == 0)\r\n            tokens[msg.sender][tokenHash].valid = false;\r\n\r\n        return true;\r\n    }\r\n}\r\n",
  "sourcePath": "C:\\Users\\b_bri\\Documents\\.higia\\backend-smartcontracts\\src\\contracts\\references.sol",
  "compiler": {
    "name": "solc",
    "version": "0.8.17+commit.8df45f5f.Emscripten.clang"
  },
  "schemaVersion": "3.4.9",
  "updatedAt": "2022-09-14T22:52:56.079Z",
  "networkType": "ethereum",
  "devdoc": {
    "kind": "dev",
    "methods": {},
    "version": 1
  },
  "userdoc": {
    "kind": "user",
    "methods": {},
    "version": 1
  }
}