{
  "contractName": "Reference",
  "abi": [
    {
      "inputs": [],
      "stateMutability": "nonpayable",
      "type": "constructor"
    },
    {
      "inputs": [],
      "name": "UNIX_DAY",
      "outputs": [
        {
          "internalType": "uint256",
          "name": "",
          "type": "uint256"
        }
      ],
      "stateMutability": "view",
      "type": "function",
      "constant": true
    },
    {
      "inputs": [
        {
          "internalType": "uint256",
          "name": "",
          "type": "uint256"
        }
      ],
      "name": "accounts",
      "outputs": [
        {
          "internalType": "address",
          "name": "id",
          "type": "address"
        },
        {
          "internalType": "string",
          "name": "name",
          "type": "string"
        },
        {
          "internalType": "uint256",
          "name": "accountType",
          "type": "uint256"
        }
      ],
      "stateMutability": "view",
      "type": "function",
      "constant": true
    },
    {
      "inputs": [
        {
          "internalType": "address",
          "name": "",
          "type": "address"
        }
      ],
      "name": "patients",
      "outputs": [
        {
          "internalType": "string",
          "name": "name",
          "type": "string"
        },
        {
          "internalType": "bool",
          "name": "instanced",
          "type": "bool"
        }
      ],
      "stateMutability": "view",
      "type": "function",
      "constant": true
    },
    {
      "inputs": [
        {
          "internalType": "string",
          "name": "_name",
          "type": "string"
        }
      ],
      "name": "addUser",
      "outputs": [
        {
          "internalType": "bool",
          "name": "",
          "type": "bool"
        }
      ],
      "stateMutability": "nonpayable",
      "type": "function"
    },
    {
      "inputs": [],
      "name": "getUser",
      "outputs": [
        {
          "components": [
            {
              "internalType": "string",
              "name": "name",
              "type": "string"
            },
            {
              "internalType": "bool",
              "name": "instanced",
              "type": "bool"
            }
          ],
          "internalType": "struct Reference.Patient",
          "name": "",
          "type": "tuple"
        }
      ],
      "stateMutability": "view",
      "type": "function",
      "constant": true
    }
  ],
  "bytecode": "0x608060405234801561001057600080fd5b50610e5e806100206000396000f3fe608060405234801561001057600080fd5b50600436106100575760003560e01c80630869cfbc1461005c578063177cf2181461008d57806318b8275a146100ab578063832880e7146100db578063f2a40db8146100f9575b600080fd5b6100766004803603810190610071919061067c565b61012b565b604051610084929190610754565b60405180910390f35b6100956101e4565b6040516100a2919061079d565b60405180910390f35b6100c560048036038101906100c091906108ed565b6101eb565b6040516100d29190610936565b60405180910390f35b6100e3610408565b6040516100f091906109e7565b60405180910390f35b610113600480360381019061010e9190610a35565b61050c565b60405161012293929190610a71565b60405180910390f35b600160205280600052604060002060009150905080600001805461014e90610ade565b80601f016020809104026020016040519081016040528092919081815260200182805461017a90610ade565b80156101c75780601f1061019c576101008083540402835291602001916101c7565b820191906000526020600020905b8154815290600101906020018083116101aa57829003601f168201915b5050505050908060010160009054906101000a900460ff16905082565b6201518081565b6000600160003373ffffffffffffffffffffffffffffffffffffffff1673ffffffffffffffffffffffffffffffffffffffff16815260200190815260200160002060010160009054906101000a900460ff161561027d576040517f08c379a000000000000000000000000000000000000000000000000000000000815260040161027490610b5b565b60405180910390fd5b600060405180606001604052803373ffffffffffffffffffffffffffffffffffffffff168152602001848152602001600060018111156102c0576102bf610b7b565b5b815250908060018154018082558091505060019003906000526020600020906003020160009091909190915060008201518160000160006101000a81548173ffffffffffffffffffffffffffffffffffffffff021916908373ffffffffffffffffffffffffffffffffffffffff16021790555060208201518160010190816103489190610d56565b5060408201518160020155505081600160003373ffffffffffffffffffffffffffffffffffffffff1673ffffffffffffffffffffffffffffffffffffffff16815260200190815260200160002060000190816103a49190610d56565b5060018060003373ffffffffffffffffffffffffffffffffffffffff1673ffffffffffffffffffffffffffffffffffffffff16815260200190815260200160002060010160006101000a81548160ff02191690831515021790555060019050919050565b6104106105ee565b600160003373ffffffffffffffffffffffffffffffffffffffff1673ffffffffffffffffffffffffffffffffffffffff16815260200190815260200160002060405180604001604052908160008201805461046a90610ade565b80601f016020809104026020016040519081016040528092919081815260200182805461049690610ade565b80156104e35780601f106104b8576101008083540402835291602001916104e3565b820191906000526020600020905b8154815290600101906020018083116104c657829003601f168201915b505050505081526020016001820160009054906101000a900460ff161515151581525050905090565b6000818154811061051c57600080fd5b90600052602060002090600302016000915090508060000160009054906101000a900473ffffffffffffffffffffffffffffffffffffffff169080600101805461056590610ade565b80601f016020809104026020016040519081016040528092919081815260200182805461059190610ade565b80156105de5780601f106105b3576101008083540402835291602001916105de565b820191906000526020600020905b8154815290600101906020018083116105c157829003601f168201915b5050505050908060020154905083565b6040518060400160405280606081526020016000151581525090565b6000604051905090565b600080fd5b600080fd5b600073ffffffffffffffffffffffffffffffffffffffff82169050919050565b60006106498261061e565b9050919050565b6106598161063e565b811461066457600080fd5b50565b60008135905061067681610650565b92915050565b60006020828403121561069257610691610614565b5b60006106a084828501610667565b91505092915050565b600081519050919050565b600082825260208201905092915050565b60005b838110156106e35780820151818401526020810190506106c8565b60008484015250505050565b6000601f19601f8301169050919050565b600061070b826106a9565b61071581856106b4565b93506107258185602086016106c5565b61072e816106ef565b840191505092915050565b60008115159050919050565b61074e81610739565b82525050565b6000604082019050818103600083015261076e8185610700565b905061077d6020830184610745565b9392505050565b6000819050919050565b61079781610784565b82525050565b60006020820190506107b2600083018461078e565b92915050565b600080fd5b600080fd5b7f4e487b7100000000000000000000000000000000000000000000000000000000600052604160045260246000fd5b6107fa826106ef565b810181811067ffffffffffffffff82111715610819576108186107c2565b5b80604052505050565b600061082c61060a565b905061083882826107f1565b919050565b600067ffffffffffffffff821115610858576108576107c2565b5b610861826106ef565b9050602081019050919050565b82818337600083830152505050565b600061089061088b8461083d565b610822565b9050828152602081018484840111156108ac576108ab6107bd565b5b6108b784828561086e565b509392505050565b600082601f8301126108d4576108d36107b8565b5b81356108e484826020860161087d565b91505092915050565b60006020828403121561090357610902610614565b5b600082013567ffffffffffffffff81111561092157610920610619565b5b61092d848285016108bf565b91505092915050565b600060208201905061094b6000830184610745565b92915050565b600082825260208201905092915050565b600061096d826106a9565b6109778185610951565b93506109878185602086016106c5565b610990816106ef565b840191505092915050565b6109a481610739565b82525050565b600060408301600083015184820360008601526109c78282610962565b91505060208301516109dc602086018261099b565b508091505092915050565b60006020820190508181036000830152610a0181846109aa565b905092915050565b610a1281610784565b8114610a1d57600080fd5b50565b600081359050610a2f81610a09565b92915050565b600060208284031215610a4b57610a4a610614565b5b6000610a5984828501610a20565b91505092915050565b610a6b8161063e565b82525050565b6000606082019050610a866000830186610a62565b8181036020830152610a988185610700565b9050610aa7604083018461078e565b949350505050565b7f4e487b7100000000000000000000000000000000000000000000000000000000600052602260045260246000fd5b60006002820490506001821680610af657607f821691505b602082108103610b0957610b08610aaf565b5b50919050565b7f757365725f616c72656164795f65786973747300000000000000000000000000600082015250565b6000610b456013836106b4565b9150610b5082610b0f565b602082019050919050565b60006020820190508181036000830152610b7481610b38565b9050919050565b7f4e487b7100000000000000000000000000000000000000000000000000000000600052602160045260246000fd5b60008190508160005260206000209050919050565b60006020601f8301049050919050565b600082821b905092915050565b600060088302610c0c7fffffffffffffffffffffffffffffffffffffffffffffffffffffffffffffffff82610bcf565b610c168683610bcf565b95508019841693508086168417925050509392505050565b6000819050919050565b6000610c53610c4e610c4984610784565b610c2e565b610784565b9050919050565b6000819050919050565b610c6d83610c38565b610c81610c7982610c5a565b848454610bdc565b825550505050565b600090565b610c96610c89565b610ca1818484610c64565b505050565b5b81811015610cc557610cba600082610c8e565b600181019050610ca7565b5050565b601f821115610d0a57610cdb81610baa565b610ce484610bbf565b81016020851015610cf3578190505b610d07610cff85610bbf565b830182610ca6565b50505b505050565b600082821c905092915050565b6000610d2d60001984600802610d0f565b1980831691505092915050565b6000610d468383610d1c565b9150826002028217905092915050565b610d5f826106a9565b67ffffffffffffffff811115610d7857610d776107c2565b5b610d828254610ade565b610d8d828285610cc9565b600060209050601f831160018114610dc05760008415610dae578287015190505b610db88582610d3a565b865550610e20565b601f198416610dce86610baa565b60005b82811015610df657848901518255600182019150602085019450602081019050610dd1565b86831015610e135784890151610e0f601f891682610d1c565b8355505b6001600288020188555050505b50505050505056fea26469706673582212201d21bb8f02dee401efb4260f710d643264d01d3753c67c0861396a9242bf870464736f6c63430008100033",
  "immutableReferences": {},
  "source": "// SPDX-License-Identifier: GPL-3.0\r\npragma solidity >=0.5.0 <0.9.0;\r\n\r\nimport {StringUtils, ArrayUtils, ByteUtils} from \"../utils/Utilities.sol\";\r\n\r\ncontract Reference {\r\n    using StringUtils for *;\r\n    using ArrayUtils for *;\r\n    using ByteUtils for *;\r\n\r\n    uint256 public constant UNIX_DAY = 86400;\r\n\r\n    enum AccountType {\r\n        Patient,\r\n        Professional\r\n    }\r\n\r\n    struct Account {\r\n        address id;\r\n        string name;\r\n        uint256 accountType;\r\n    }\r\n\r\n    struct Patient {\r\n        string name;\r\n        bool instanced;\r\n    }\r\n\r\n    struct Professional {\r\n        string name;\r\n        string workplace;\r\n        bool instanced;\r\n    }\r\n\r\n    Account[] public accounts;\r\n    mapping(address => Patient) public patients;\r\n\r\n    constructor() {}\r\n\r\n    function addUser(string memory _name) public returns (bool) {\r\n        // check if user is already present\r\n        require(!patients[msg.sender].instanced, \"user_already_exists\");\r\n\r\n        // register user\r\n        accounts.push(\r\n            Account({\r\n                id: msg.sender,\r\n                name: _name,\r\n                accountType: uint256(AccountType.Patient)\r\n            })\r\n        );\r\n\r\n        patients[msg.sender].name = _name;\r\n        patients[msg.sender].instanced = true;\r\n        return true;\r\n    }\r\n\r\n    function getUser() public view returns (Patient memory) {\r\n        return patients[msg.sender];\r\n    }\r\n}\r\n",
  "sourcePath": "C:\\Users\\b_bri\\Documents\\.higia\\backend-smartcontracts\\src\\contracts\\reference.sol",
  "compiler": {
    "name": "solc",
    "version": "0.8.16+commit.07a7930e.Emscripten.clang"
  },
  "schemaVersion": "3.4.9",
  "updatedAt": "2022-09-01T15:16:05.178Z",
  "networkType": "ethereum",
  "devdoc": {
    "kind": "dev",
    "methods": {},
    "version": 1
  },
  "userdoc": {
    "kind": "user",
    "methods": {},
    "version": 1
  }
}