{
  "contractName": "References",
  "abi": [
    {
      "inputs": [],
      "stateMutability": "nonpayable",
      "type": "constructor"
    },
    {
      "inputs": [],
      "name": "UNIX_DAY",
      "outputs": [
        {
          "internalType": "uint256",
          "name": "",
          "type": "uint256"
        }
      ],
      "stateMutability": "view",
      "type": "function",
      "constant": true
    },
    {
      "inputs": [
        {
          "internalType": "uint256",
          "name": "",
          "type": "uint256"
        }
      ],
      "name": "accounts",
      "outputs": [
        {
          "internalType": "address",
          "name": "id",
          "type": "address"
        },
        {
          "internalType": "string",
          "name": "name",
          "type": "string"
        },
        {
          "internalType": "uint256",
          "name": "accountType",
          "type": "uint256"
        }
      ],
      "stateMutability": "view",
      "type": "function",
      "constant": true
    },
    {
      "inputs": [
        {
          "internalType": "address",
          "name": "",
          "type": "address"
        }
      ],
      "name": "patients",
      "outputs": [
        {
          "internalType": "string",
          "name": "name",
          "type": "string"
        },
        {
          "internalType": "bool",
          "name": "instanced",
          "type": "bool"
        }
      ],
      "stateMutability": "view",
      "type": "function",
      "constant": true
    },
    {
      "inputs": [
        {
          "internalType": "address",
          "name": "",
          "type": "address"
        },
        {
          "internalType": "uint256",
          "name": "",
          "type": "uint256"
        }
      ],
      "name": "referenceIds",
      "outputs": [
        {
          "internalType": "string",
          "name": "",
          "type": "string"
        }
      ],
      "stateMutability": "view",
      "type": "function",
      "constant": true
    },
    {
      "inputs": [
        {
          "internalType": "address",
          "name": "",
          "type": "address"
        },
        {
          "internalType": "uint256",
          "name": "",
          "type": "uint256"
        }
      ],
      "name": "references",
      "outputs": [
        {
          "internalType": "string",
          "name": "id",
          "type": "string"
        },
        {
          "internalType": "string",
          "name": "name",
          "type": "string"
        },
        {
          "internalType": "string",
          "name": "from",
          "type": "string"
        },
        {
          "internalType": "string",
          "name": "resourceType",
          "type": "string"
        },
        {
          "internalType": "uint256",
          "name": "date",
          "type": "uint256"
        }
      ],
      "stateMutability": "view",
      "type": "function",
      "constant": true
    },
    {
      "inputs": [
        {
          "internalType": "address",
          "name": "",
          "type": "address"
        },
        {
          "internalType": "bytes32",
          "name": "",
          "type": "bytes32"
        }
      ],
      "name": "tokens",
      "outputs": [
        {
          "internalType": "bytes32",
          "name": "token",
          "type": "bytes32"
        },
        {
          "internalType": "bool",
          "name": "valid",
          "type": "bool"
        },
        {
          "internalType": "uint256",
          "name": "validUntil",
          "type": "uint256"
        },
        {
          "internalType": "uint256",
          "name": "usesLeft",
          "type": "uint256"
        },
        {
          "internalType": "bool",
          "name": "instanced",
          "type": "bool"
        }
      ],
      "stateMutability": "view",
      "type": "function",
      "constant": true
    },
    {
      "inputs": [
        {
          "internalType": "string",
          "name": "_name",
          "type": "string"
        }
      ],
      "name": "addUser",
      "outputs": [
        {
          "internalType": "bool",
          "name": "",
          "type": "bool"
        }
      ],
      "stateMutability": "nonpayable",
      "type": "function"
    },
    {
      "inputs": [],
      "name": "getUser",
      "outputs": [
        {
          "components": [
            {
              "internalType": "string",
              "name": "name",
              "type": "string"
            },
            {
              "internalType": "bool",
              "name": "instanced",
              "type": "bool"
            }
          ],
          "internalType": "struct References.Patient",
          "name": "",
          "type": "tuple"
        }
      ],
      "stateMutability": "view",
      "type": "function",
      "constant": true
    },
    {
      "inputs": [
        {
          "internalType": "string",
          "name": "_id",
          "type": "string"
        },
        {
          "internalType": "string",
          "name": "_name",
          "type": "string"
        },
        {
          "internalType": "string",
          "name": "_type",
          "type": "string"
        },
        {
          "internalType": "string",
          "name": "_from",
          "type": "string"
        }
      ],
      "name": "createReference",
      "outputs": [
        {
          "internalType": "bool",
          "name": "",
          "type": "bool"
        }
      ],
      "stateMutability": "nonpayable",
      "type": "function"
    },
    {
      "inputs": [],
      "name": "listReferenceIds",
      "outputs": [
        {
          "internalType": "string[]",
          "name": "",
          "type": "string[]"
        }
      ],
      "stateMutability": "view",
      "type": "function",
      "constant": true
    },
    {
      "inputs": [],
      "name": "listReferences",
      "outputs": [
        {
          "components": [
            {
              "internalType": "string",
              "name": "id",
              "type": "string"
            },
            {
              "internalType": "string",
              "name": "name",
              "type": "string"
            },
            {
              "internalType": "string",
              "name": "from",
              "type": "string"
            },
            {
              "internalType": "string",
              "name": "resourceType",
              "type": "string"
            },
            {
              "internalType": "uint256",
              "name": "date",
              "type": "uint256"
            }
          ],
          "internalType": "struct References.Reference[]",
          "name": "",
          "type": "tuple[]"
        }
      ],
      "stateMutability": "view",
      "type": "function",
      "constant": true
    },
    {
      "inputs": [],
      "name": "listPatients",
      "outputs": [
        {
          "components": [
            {
              "internalType": "address",
              "name": "id",
              "type": "address"
            },
            {
              "internalType": "string",
              "name": "name",
              "type": "string"
            },
            {
              "internalType": "uint256",
              "name": "accountType",
              "type": "uint256"
            }
          ],
          "internalType": "struct References.Account[]",
          "name": "",
          "type": "tuple[]"
        }
      ],
      "stateMutability": "view",
      "type": "function",
      "constant": true
    },
    {
      "inputs": [
        {
          "internalType": "string",
          "name": "_token",
          "type": "string"
        }
      ],
      "name": "createToken",
      "outputs": [
        {
          "internalType": "bool",
          "name": "",
          "type": "bool"
        }
      ],
      "stateMutability": "nonpayable",
      "type": "function"
    },
    {
      "inputs": [
        {
          "internalType": "string",
          "name": "_tokenString",
          "type": "string"
        }
      ],
      "name": "getToken",
      "outputs": [
        {
          "components": [
            {
              "internalType": "bytes32",
              "name": "token",
              "type": "bytes32"
            },
            {
              "internalType": "bool",
              "name": "valid",
              "type": "bool"
            },
            {
              "internalType": "uint256",
              "name": "validUntil",
              "type": "uint256"
            },
            {
              "internalType": "uint256",
              "name": "usesLeft",
              "type": "uint256"
            },
            {
              "internalType": "bool",
              "name": "instanced",
              "type": "bool"
            }
          ],
          "internalType": "struct References.Token",
          "name": "",
          "type": "tuple"
        }
      ],
      "stateMutability": "view",
      "type": "function",
      "constant": true
    },
    {
      "inputs": [
        {
          "internalType": "address",
          "name": "_address",
          "type": "address"
        },
        {
          "internalType": "string",
          "name": "_tokenString",
          "type": "string"
        }
      ],
      "name": "validateToken",
      "outputs": [
        {
          "internalType": "bool",
          "name": "",
          "type": "bool"
        }
      ],
      "stateMutability": "view",
      "type": "function",
      "constant": true
    },
    {
      "inputs": [
        {
          "internalType": "address",
          "name": "_patient",
          "type": "address"
        },
        {
          "internalType": "string",
          "name": "_tokenString",
          "type": "string"
        }
      ],
      "name": "listReferencesThird",
      "outputs": [
        {
          "components": [
            {
              "internalType": "string",
              "name": "id",
              "type": "string"
            },
            {
              "internalType": "string",
              "name": "name",
              "type": "string"
            },
            {
              "internalType": "string",
              "name": "from",
              "type": "string"
            },
            {
              "internalType": "string",
              "name": "resourceType",
              "type": "string"
            },
            {
              "internalType": "uint256",
              "name": "date",
              "type": "uint256"
            }
          ],
          "internalType": "struct References.Reference[]",
          "name": "",
          "type": "tuple[]"
        }
      ],
      "stateMutability": "view",
      "type": "function",
      "constant": true
    },
    {
      "inputs": [
        {
          "internalType": "string",
          "name": "_tokenString",
          "type": "string"
        },
        {
          "internalType": "string",
          "name": "_id",
          "type": "string"
        },
        {
          "internalType": "string",
          "name": "_name",
          "type": "string"
        },
        {
          "internalType": "string",
          "name": "_type",
          "type": "string"
        },
        {
          "internalType": "string",
          "name": "_from",
          "type": "string"
        }
      ],
      "name": "createReferenceThird",
      "outputs": [
        {
          "internalType": "bool",
          "name": "",
          "type": "bool"
        }
      ],
      "stateMutability": "nonpayable",
      "type": "function"
    },
    {
      "inputs": [
        {
          "internalType": "string",
          "name": "a",
          "type": "string"
        },
        {
          "internalType": "string",
          "name": "b",
          "type": "string"
        }
      ],
      "name": "compareStrings",
      "outputs": [
        {
          "internalType": "bool",
          "name": "",
          "type": "bool"
        }
      ],
      "stateMutability": "view",
      "type": "function",
      "constant": true
    }
  ],
  "bytecode": "0x608060405234801561001057600080fd5b5061401e806100206000396000f3fe608060405234801561001057600080fd5b50600436106101165760003560e01c80639e3ce876116100a2578063c1733f6811610071578063c1733f681461035e578063c212d65f1461038e578063c5a2a18e146103ac578063f2a40db8146103ca578063f91d099c146103fc57610116565b80639e3ce87614610296578063a4dec788146102c6578063a9964d1c146102fa578063bed34bba1461032e57610116565b80634208adc7116100e95780634208adc7146101ca57806345576f94146101fa578063605027f11461022a578063832880e71461025a5780639d2ff01e1461027857610116565b80630869cfbc1461011b578063138a5e811461014c578063177cf2181461017c57806318b8275a1461019a575b600080fd5b6101356004803603810190610130919061296b565b61042c565b604051610143929190612a43565b60405180910390f35b61016660048036038101906101619190612aa9565b6104e5565b6040516101739190612ae9565b60405180910390f35b61018461059e565b6040516101919190612b1a565b60405180910390f35b6101b460048036038101906101af9190612c6a565b6105a5565b6040516101c19190612cb3565b60405180910390f35b6101e460048036038101906101df9190612cce565b61090b565b6040516101f19190612ed0565b60405180910390f35b610214600480360381019061020f9190612c6a565b610d56565b6040516102219190612cb3565b60405180910390f35b610244600480360381019061023f9190612ef2565b610eeb565b6040516102519190612cb3565b60405180910390f35b6102626112f4565b60405161026f9190613015565b60405180910390f35b6102806113f8565b60405161028d9190613158565b60405180910390f35b6102b060048036038101906102ab919061317a565b611549565b6040516102bd9190612cb3565b60405180910390f35b6102e060048036038101906102db9190612aa9565b611aa8565b6040516102f1959493929190613281565b60405180910390f35b610314600480360381019061030f9190613326565b611d1b565b604051610325959493929190613375565b60405180910390f35b610348600480360381019061034391906133c8565b611d78565b6040516103559190612cb3565b60405180910390f35b61037860048036038101906103739190612c6a565b611dd1565b60405161038591906134b7565b60405180910390f35b610396611e9d565b6040516103a39190612ed0565b60405180910390f35b6103b461221a565b6040516103c19190613594565b60405180910390f35b6103e460048036038101906103df91906135b6565b6123bf565b6040516103f3939291906135f2565b60405180910390f35b61041660048036038101906104119190612cce565b6124a1565b6040516104239190612cb3565b60405180910390f35b600160205280600052604060002060009150905080600001805461044f9061365f565b80601f016020809104026020016040519081016040528092919081815260200182805461047b9061365f565b80156104c85780601f1061049d576101008083540402835291602001916104c8565b820191906000526020600020905b8154815290600101906020018083116104ab57829003601f168201915b5050505050908060010160009054906101000a900460ff16905082565b6003602052816000526040600020818154811061050157600080fd5b9060005260206000200160009150915050805461051d9061365f565b80601f01602080910402602001604051908101604052809291908181526020018280546105499061365f565b80156105965780601f1061056b57610100808354040283529160200191610596565b820191906000526020600020905b81548152906001019060200180831161057957829003601f168201915b505050505081565b6201518081565b6000600160003373ffffffffffffffffffffffffffffffffffffffff1673ffffffffffffffffffffffffffffffffffffffff16815260200190815260200160002060010160009054906101000a900460ff1615610637576040517f08c379a000000000000000000000000000000000000000000000000000000000815260040161062e906136dc565b60405180910390fd5b600060405180606001604052803373ffffffffffffffffffffffffffffffffffffffff1681526020018481526020016000600181111561067a576106796136fc565b5b815250908060018154018082558091505060019003906000526020600020906003020160009091909190915060008201518160000160006101000a81548173ffffffffffffffffffffffffffffffffffffffff021916908373ffffffffffffffffffffffffffffffffffffffff160217905550602082015181600101908161070291906138d7565b5060408201518160020155505081600160003373ffffffffffffffffffffffffffffffffffffffff1673ffffffffffffffffffffffffffffffffffffffff168152602001908152602001600020600001908161075e91906138d7565b5060018060003373ffffffffffffffffffffffffffffffffffffffff1673ffffffffffffffffffffffffffffffffffffffff16815260200190815260200160002060010160006101000a81548160ff0219169083151502179055506109016107c533612606565b600160003373ffffffffffffffffffffffffffffffffffffffff1673ffffffffffffffffffffffffffffffffffffffff16815260200190815260200160002060000180546108129061365f565b80601f016020809104026020016040519081016040528092919081815260200182805461083e9061365f565b801561088b5780601f106108605761010080835404028352916020019161088b565b820191906000526020600020905b81548152906001019060200180831161086e57829003601f168201915b50505050506040518060400160405280600781526020017f50617469656e74000000000000000000000000000000000000000000000000008152506040518060400160405280600481526020017f73656c6600000000000000000000000000000000000000000000000000000000815250610eeb565b5060019050919050565b60606000610918836127c9565b90506000600460008673ffffffffffffffffffffffffffffffffffffffff1673ffffffffffffffffffffffffffffffffffffffff16815260200190815260200160002060008381526020019081526020016000206040518060a0016040529081600082015481526020016001820160009054906101000a900460ff1615151515815260200160028201548152602001600382015481526020016004820160009054906101000a900460ff1615151515815250509050806080015180156109df575080602001515b610a1e576040517f08c379a0000000000000000000000000000000000000000000000000000000008152600401610a15906139f5565b60405180910390fd5b4281604001511015610a65576040517f08c379a0000000000000000000000000000000000000000000000000000000008152600401610a5c90613a61565b60405180910390fd5b600260008673ffffffffffffffffffffffffffffffffffffffff1673ffffffffffffffffffffffffffffffffffffffff168152602001908152602001600020805480602002602001604051908101604052809291908181526020016000905b82821015610d4857838290600052602060002090600502016040518060a0016040529081600082018054610af79061365f565b80601f0160208091040260200160405190810160405280929190818152602001828054610b239061365f565b8015610b705780601f10610b4557610100808354040283529160200191610b70565b820191906000526020600020905b815481529060010190602001808311610b5357829003601f168201915b50505050508152602001600182018054610b899061365f565b80601f0160208091040260200160405190810160405280929190818152602001828054610bb59061365f565b8015610c025780601f10610bd757610100808354040283529160200191610c02565b820191906000526020600020905b815481529060010190602001808311610be557829003601f168201915b50505050508152602001600282018054610c1b9061365f565b80601f0160208091040260200160405190810160405280929190818152602001828054610c479061365f565b8015610c945780601f10610c6957610100808354040283529160200191610c94565b820191906000526020600020905b815481529060010190602001808311610c7757829003601f168201915b50505050508152602001600382018054610cad9061365f565b80601f0160208091040260200160405190810160405280929190818152602001828054610cd99061365f565b8015610d265780601f10610cfb57610100808354040283529160200191610d26565b820191906000526020600020905b815481529060010190602001808311610d0957829003601f168201915b5050505050815260200160048201548152505081526020019060010190610ac4565b505050509250505092915050565b6000600160003373ffffffffffffffffffffffffffffffffffffffff1673ffffffffffffffffffffffffffffffffffffffff16815260200190815260200160002060010160009054906101000a900460ff16610de7576040517f08c379a0000000000000000000000000000000000000000000000000000000008152600401610dde90613acd565b60405180910390fd5b6000610df2836127c9565b90506040518060a001604052808281526020016001151581526020016201518042610e1d9190613b1c565b81526020016001815260200160011515815250600460003373ffffffffffffffffffffffffffffffffffffffff1673ffffffffffffffffffffffffffffffffffffffff16815260200190815260200160002060008381526020019081526020016000206000820151816000015560208201518160010160006101000a81548160ff021916908315150217905550604082015181600201556060820151816003015560808201518160040160006101000a81548160ff0219169083151502179055509050506001915050919050565b6000600160003373ffffffffffffffffffffffffffffffffffffffff1673ffffffffffffffffffffffffffffffffffffffff16815260200190815260200160002060010160009054906101000a900460ff16610f7c576040517f08c379a0000000000000000000000000000000000000000000000000000000008152600401610f7390613acd565b60405180910390fd5b61109d85600360003373ffffffffffffffffffffffffffffffffffffffff1673ffffffffffffffffffffffffffffffffffffffff168152602001908152602001600020805480602002602001604051908101604052809291908181526020016000905b8282101561108b578382906000526020600020018054610ffe9061365f565b80601f016020809104026020016040519081016040528092919081815260200182805461102a9061365f565b80156110775780601f1061104c57610100808354040283529160200191611077565b820191906000526020600020905b81548152906001019060200180831161105a57829003601f168201915b505050505081526020019060010190610fdf565b505050506127da90919063ffffffff16565b156110dd576040517f08c379a00000000000000000000000000000000000000000000000000000000081526004016110d490613b9c565b60405180910390fd5b61111c836040518060400160405280600781526020017f50617469656e7400000000000000000000000000000000000000000000000000815250611d78565b80156111745750600160003373ffffffffffffffffffffffffffffffffffffffff1673ffffffffffffffffffffffffffffffffffffffff16815260200190815260200160002060010160009054906101000a900460ff165b1561118257600090506112ec565b600360003373ffffffffffffffffffffffffffffffffffffffff1673ffffffffffffffffffffffffffffffffffffffff168152602001908152602001600020859080600181540180825580915050600190039060005260206000200160009091909190915090816111f391906138d7565b50600260003373ffffffffffffffffffffffffffffffffffffffff1673ffffffffffffffffffffffffffffffffffffffff1681526020019081526020016000206040518060a00160405280878152602001868152602001848152602001858152602001428152509080600181540180825580915050600190039060005260206000209060050201600090919091909150600082015181600001908161129891906138d7565b5060208201518160010190816112ae91906138d7565b5060408201518160020190816112c491906138d7565b5060608201518160030190816112da91906138d7565b50608082015181600401555050600190505b949350505050565b6112fc6128a7565b600160003373ffffffffffffffffffffffffffffffffffffffff1673ffffffffffffffffffffffffffffffffffffffff1681526020019081526020016000206040518060400160405290816000820180546113569061365f565b80601f01602080910402602001604051908101604052809291908181526020018280546113829061365f565b80156113cf5780601f106113a4576101008083540402835291602001916113cf565b820191906000526020600020905b8154815290600101906020018083116113b257829003601f168201915b505050505081526020016001820160009054906101000a900460ff161515151581525050905090565b60606000805480602002602001604051908101604052809291908181526020016000905b8282101561154057838290600052602060002090600302016040518060600160405290816000820160009054906101000a900473ffffffffffffffffffffffffffffffffffffffff1673ffffffffffffffffffffffffffffffffffffffff1673ffffffffffffffffffffffffffffffffffffffff1681526020016001820180546114a59061365f565b80601f01602080910402602001604051908101604052809291908181526020018280546114d19061365f565b801561151e5780601f106114f35761010080835404028352916020019161151e565b820191906000526020600020905b81548152906001019060200180831161150157829003601f168201915b505050505081526020016002820154815250508152602001906001019061141c565b50505050905090565b600080611555876127c9565b90506000600460003373ffffffffffffffffffffffffffffffffffffffff1673ffffffffffffffffffffffffffffffffffffffff16815260200190815260200160002060008381526020019081526020016000206040518060a0016040529081600082015481526020016001820160009054906101000a900460ff1615151515815260200160028201548152602001600382015481526020016004820160009054906101000a900460ff16151515158152505090508060800151801561161c575080602001515b61165b576040517f08c379a0000000000000000000000000000000000000000000000000000000008152600401611652906139f5565b60405180910390fd5b42816040015110156116a2576040517f08c379a000000000000000000000000000000000000000000000000000000000815260040161169990613a61565b60405180910390fd5b6117c387600360003373ffffffffffffffffffffffffffffffffffffffff1673ffffffffffffffffffffffffffffffffffffffff168152602001908152602001600020805480602002602001604051908101604052809291908181526020016000905b828210156117b15783829060005260206000200180546117249061365f565b80601f01602080910402602001604051908101604052809291908181526020018280546117509061365f565b801561179d5780601f106117725761010080835404028352916020019161179d565b820191906000526020600020905b81548152906001019060200180831161178057829003601f168201915b505050505081526020019060010190611705565b505050506127da90919063ffffffff16565b15611803576040517f08c379a00000000000000000000000000000000000000000000000000000000081526004016117fa90613b9c565b60405180910390fd5b600360003373ffffffffffffffffffffffffffffffffffffffff1673ffffffffffffffffffffffffffffffffffffffff1681526020019081526020016000208790806001815401808255809150506001900390600052602060002001600090919091909150908161187491906138d7565b50600260003373ffffffffffffffffffffffffffffffffffffffff1673ffffffffffffffffffffffffffffffffffffffff1681526020019081526020016000206040518060a00160405280898152602001888152602001868152602001878152602001428152509080600181540180825580915050600190039060005260206000209060050201600090919091909150600082015181600001908161191991906138d7565b50602082015181600101908161192f91906138d7565b50604082015181600201908161194591906138d7565b50606082015181600301908161195b91906138d7565b50608082015181600401555050600460003373ffffffffffffffffffffffffffffffffffffffff1673ffffffffffffffffffffffffffffffffffffffff168152602001908152602001600020600083815260200190815260200160002060030160008154809291906119cc90613bbc565b91905055506000600460003373ffffffffffffffffffffffffffffffffffffffff1673ffffffffffffffffffffffffffffffffffffffff16815260200190815260200160002060008481526020019081526020016000206003015403611a99576000600460003373ffffffffffffffffffffffffffffffffffffffff1673ffffffffffffffffffffffffffffffffffffffff168152602001908152602001600020600084815260200190815260200160002060010160006101000a81548160ff0219169083151502179055505b60019250505095945050505050565b60026020528160005260406000208181548110611ac457600080fd5b906000526020600020906005020160009150915050806000018054611ae89061365f565b80601f0160208091040260200160405190810160405280929190818152602001828054611b149061365f565b8015611b615780601f10611b3657610100808354040283529160200191611b61565b820191906000526020600020905b815481529060010190602001808311611b4457829003601f168201915b505050505090806001018054611b769061365f565b80601f0160208091040260200160405190810160405280929190818152602001828054611ba29061365f565b8015611bef5780601f10611bc457610100808354040283529160200191611bef565b820191906000526020600020905b815481529060010190602001808311611bd257829003601f168201915b505050505090806002018054611c049061365f565b80601f0160208091040260200160405190810160405280929190818152602001828054611c309061365f565b8015611c7d5780601f10611c5257610100808354040283529160200191611c7d565b820191906000526020600020905b815481529060010190602001808311611c6057829003601f168201915b505050505090806003018054611c929061365f565b80601f0160208091040260200160405190810160405280929190818152602001828054611cbe9061365f565b8015611d0b5780601f10611ce057610100808354040283529160200191611d0b565b820191906000526020600020905b815481529060010190602001808311611cee57829003601f168201915b5050505050908060040154905085565b6004602052816000526040600020602052806000526040600020600091509150508060000154908060010160009054906101000a900460ff16908060020154908060030154908060040160009054906101000a900460ff16905085565b600081604051602001611d8b9190613c21565b6040516020818303038152906040528051906020012083604051602001611db29190613c21565b6040516020818303038152906040528051906020012014905092915050565b611dd96128c3565b6000611de4836127c9565b9050600460003373ffffffffffffffffffffffffffffffffffffffff1673ffffffffffffffffffffffffffffffffffffffff16815260200190815260200160002060008281526020019081526020016000206040518060a0016040529081600082015481526020016001820160009054906101000a900460ff1615151515815260200160028201548152602001600382015481526020016004820160009054906101000a900460ff161515151581525050915050919050565b6060600160003373ffffffffffffffffffffffffffffffffffffffff1673ffffffffffffffffffffffffffffffffffffffff16815260200190815260200160002060010160009054906101000a900460ff16611f2e576040517f08c379a0000000000000000000000000000000000000000000000000000000008152600401611f2590613acd565b60405180910390fd5b600260003373ffffffffffffffffffffffffffffffffffffffff1673ffffffffffffffffffffffffffffffffffffffff168152602001908152602001600020805480602002602001604051908101604052809291908181526020016000905b8282101561221157838290600052602060002090600502016040518060a0016040529081600082018054611fc09061365f565b80601f0160208091040260200160405190810160405280929190818152602001828054611fec9061365f565b80156120395780601f1061200e57610100808354040283529160200191612039565b820191906000526020600020905b81548152906001019060200180831161201c57829003601f168201915b505050505081526020016001820180546120529061365f565b80601f016020809104026020016040519081016040528092919081815260200182805461207e9061365f565b80156120cb5780601f106120a0576101008083540402835291602001916120cb565b820191906000526020600020905b8154815290600101906020018083116120ae57829003601f168201915b505050505081526020016002820180546120e49061365f565b80601f01602080910402602001604051908101604052809291908181526020018280546121109061365f565b801561215d5780601f106121325761010080835404028352916020019161215d565b820191906000526020600020905b81548152906001019060200180831161214057829003601f168201915b505050505081526020016003820180546121769061365f565b80601f01602080910402602001604051908101604052809291908181526020018280546121a29061365f565b80156121ef5780601f106121c4576101008083540402835291602001916121ef565b820191906000526020600020905b8154815290600101906020018083116121d257829003601f168201915b5050505050815260200160048201548152505081526020019060010190611f8d565b50505050905090565b6060600160003373ffffffffffffffffffffffffffffffffffffffff1673ffffffffffffffffffffffffffffffffffffffff16815260200190815260200160002060010160009054906101000a900460ff166122ab576040517f08c379a00000000000000000000000000000000000000000000000000000000081526004016122a290613acd565b60405180910390fd5b600360003373ffffffffffffffffffffffffffffffffffffffff1673ffffffffffffffffffffffffffffffffffffffff168152602001908152602001600020805480602002602001604051908101604052809291908181526020016000905b828210156123b65783829060005260206000200180546123299061365f565b80601f01602080910402602001604051908101604052809291908181526020018280546123559061365f565b80156123a25780601f10612377576101008083540402835291602001916123a2565b820191906000526020600020905b81548152906001019060200180831161238557829003601f168201915b50505050508152602001906001019061230a565b50505050905090565b600081815481106123cf57600080fd5b90600052602060002090600302016000915090508060000160009054906101000a900473ffffffffffffffffffffffffffffffffffffffff16908060010180546124189061365f565b80601f01602080910402602001604051908101604052809291908181526020018280546124449061365f565b80156124915780601f1061246657610100808354040283529160200191612491565b820191906000526020600020905b81548152906001019060200180831161247457829003601f168201915b5050505050908060020154905083565b6000806124ad836127c9565b90506000600460008673ffffffffffffffffffffffffffffffffffffffff1673ffffffffffffffffffffffffffffffffffffffff16815260200190815260200160002060008381526020019081526020016000206040518060a0016040529081600082015481526020016001820160009054906101000a900460ff1615151515815260200160028201548152602001600382015481526020016004820160009054906101000a900460ff161515151581525050905080608001518015612574575080602001515b6125b3576040517f08c379a00000000000000000000000000000000000000000000000000000000081526004016125aa906139f5565b60405180910390fd5b42816040015110156125fa576040517f08c379a00000000000000000000000000000000000000000000000000000000081526004016125f190613a61565b60405180910390fd5b60019250505092915050565b60606000602867ffffffffffffffff81111561262557612624612b3f565b5b6040519080825280601f01601f1916602001820160405280156126575781602001600182028036833780820191505090505b50905060005b60148110156127bf5760008160136126759190613c38565b60086126819190613c6c565b600261268d9190613de1565b8573ffffffffffffffffffffffffffffffffffffffff166126ae9190613e5b565b60f81b9050600060108260f81c6126c59190613e99565b60f81b905060008160f81c60106126dc9190613eca565b8360f81c6126ea9190613f07565b60f81b90506126f882612846565b858560026127069190613c6c565b8151811061271757612716613f3c565b5b60200101907effffffffffffffffffffffffffffffffffffffffffffffffffffffffffffff1916908160001a90535061274f81612846565b85600186600261275f9190613c6c565b6127699190613b1c565b8151811061277a57612779613f3c565b5b60200101907effffffffffffffffffffffffffffffffffffffffffffffffffffffffffffff1916908160001a90535050505080806127b790613f6b565b91505061265d565b5080915050919050565b600081805190602001209050919050565b600080600090505b835181101561283a576128188385838151811061280257612801613f3c565b5b602002602001015161288c90919063ffffffff16565b15612827576001915050612840565b808061283290613f6b565b9150506127e2565b50600090505b92915050565b6000600a8260f81c60ff1610156128715760308260f81c6128679190613fb3565b60f81b9050612887565b60578260f81c6128819190613fb3565b60f81b90505b919050565b60008180519060200120838051906020012014905092915050565b6040518060400160405280606081526020016000151581525090565b6040518060a001604052806000801916815260200160001515815260200160008152602001600081526020016000151581525090565b6000604051905090565b600080fd5b600080fd5b600073ffffffffffffffffffffffffffffffffffffffff82169050919050565b60006129388261290d565b9050919050565b6129488161292d565b811461295357600080fd5b50565b6000813590506129658161293f565b92915050565b60006020828403121561298157612980612903565b5b600061298f84828501612956565b91505092915050565b600081519050919050565b600082825260208201905092915050565b60005b838110156129d25780820151818401526020810190506129b7565b60008484015250505050565b6000601f19601f8301169050919050565b60006129fa82612998565b612a0481856129a3565b9350612a148185602086016129b4565b612a1d816129de565b840191505092915050565b60008115159050919050565b612a3d81612a28565b82525050565b60006040820190508181036000830152612a5d81856129ef565b9050612a6c6020830184612a34565b9392505050565b6000819050919050565b612a8681612a73565b8114612a9157600080fd5b50565b600081359050612aa381612a7d565b92915050565b60008060408385031215612ac057612abf612903565b5b6000612ace85828601612956565b9250506020612adf85828601612a94565b9150509250929050565b60006020820190508181036000830152612b0381846129ef565b905092915050565b612b1481612a73565b82525050565b6000602082019050612b2f6000830184612b0b565b92915050565b600080fd5b600080fd5b7f4e487b7100000000000000000000000000000000000000000000000000000000600052604160045260246000fd5b612b77826129de565b810181811067ffffffffffffffff82111715612b9657612b95612b3f565b5b80604052505050565b6000612ba96128f9565b9050612bb58282612b6e565b919050565b600067ffffffffffffffff821115612bd557612bd4612b3f565b5b612bde826129de565b9050602081019050919050565b82818337600083830152505050565b6000612c0d612c0884612bba565b612b9f565b905082815260208101848484011115612c2957612c28612b3a565b5b612c34848285612beb565b509392505050565b600082601f830112612c5157612c50612b35565b5b8135612c61848260208601612bfa565b91505092915050565b600060208284031215612c8057612c7f612903565b5b600082013567ffffffffffffffff811115612c9e57612c9d612908565b5b612caa84828501612c3c565b91505092915050565b6000602082019050612cc86000830184612a34565b92915050565b60008060408385031215612ce557612ce4612903565b5b6000612cf385828601612956565b925050602083013567ffffffffffffffff811115612d1457612d13612908565b5b612d2085828601612c3c565b9150509250929050565b600081519050919050565b600082825260208201905092915050565b6000819050602082019050919050565b600082825260208201905092915050565b6000612d7282612998565b612d7c8185612d56565b9350612d8c8185602086016129b4565b612d95816129de565b840191505092915050565b612da981612a73565b82525050565b600060a0830160008301518482036000860152612dcc8282612d67565b91505060208301518482036020860152612de68282612d67565b91505060408301518482036040860152612e008282612d67565b91505060608301518482036060860152612e1a8282612d67565b9150506080830151612e2f6080860182612da0565b508091505092915050565b6000612e468383612daf565b905092915050565b6000602082019050919050565b6000612e6682612d2a565b612e708185612d35565b935083602082028501612e8285612d46565b8060005b85811015612ebe5784840389528151612e9f8582612e3a565b9450612eaa83612e4e565b925060208a01995050600181019050612e86565b50829750879550505050505092915050565b60006020820190508181036000830152612eea8184612e5b565b905092915050565b60008060008060808587031215612f0c57612f0b612903565b5b600085013567ffffffffffffffff811115612f2a57612f29612908565b5b612f3687828801612c3c565b945050602085013567ffffffffffffffff811115612f5757612f56612908565b5b612f6387828801612c3c565b935050604085013567ffffffffffffffff811115612f8457612f83612908565b5b612f9087828801612c3c565b925050606085013567ffffffffffffffff811115612fb157612fb0612908565b5b612fbd87828801612c3c565b91505092959194509250565b612fd281612a28565b82525050565b60006040830160008301518482036000860152612ff58282612d67565b915050602083015161300a6020860182612fc9565b508091505092915050565b6000602082019050818103600083015261302f8184612fd8565b905092915050565b600081519050919050565b600082825260208201905092915050565b6000819050602082019050919050565b61306c8161292d565b82525050565b600060608301600083015161308a6000860182613063565b50602083015184820360208601526130a28282612d67565b91505060408301516130b76040860182612da0565b508091505092915050565b60006130ce8383613072565b905092915050565b6000602082019050919050565b60006130ee82613037565b6130f88185613042565b93508360208202850161310a85613053565b8060005b85811015613146578484038952815161312785826130c2565b9450613132836130d6565b925060208a0199505060018101905061310e565b50829750879550505050505092915050565b6000602082019050818103600083015261317281846130e3565b905092915050565b600080600080600060a0868803121561319657613195612903565b5b600086013567ffffffffffffffff8111156131b4576131b3612908565b5b6131c088828901612c3c565b955050602086013567ffffffffffffffff8111156131e1576131e0612908565b5b6131ed88828901612c3c565b945050604086013567ffffffffffffffff81111561320e5761320d612908565b5b61321a88828901612c3c565b935050606086013567ffffffffffffffff81111561323b5761323a612908565b5b61324788828901612c3c565b925050608086013567ffffffffffffffff81111561326857613267612908565b5b61327488828901612c3c565b9150509295509295909350565b600060a082019050818103600083015261329b81886129ef565b905081810360208301526132af81876129ef565b905081810360408301526132c381866129ef565b905081810360608301526132d781856129ef565b90506132e66080830184612b0b565b9695505050505050565b6000819050919050565b613303816132f0565b811461330e57600080fd5b50565b600081359050613320816132fa565b92915050565b6000806040838503121561333d5761333c612903565b5b600061334b85828601612956565b925050602061335c85828601613311565b9150509250929050565b61336f816132f0565b82525050565b600060a08201905061338a6000830188613366565b6133976020830187612a34565b6133a46040830186612b0b565b6133b16060830185612b0b565b6133be6080830184612a34565b9695505050505050565b600080604083850312156133df576133de612903565b5b600083013567ffffffffffffffff8111156133fd576133fc612908565b5b61340985828601612c3c565b925050602083013567ffffffffffffffff81111561342a57613429612908565b5b61343685828601612c3c565b9150509250929050565b613449816132f0565b82525050565b60a0820160008201516134656000850182613440565b5060208201516134786020850182612fc9565b50604082015161348b6040850182612da0565b50606082015161349e6060850182612da0565b5060808201516134b16080850182612fc9565b50505050565b600060a0820190506134cc600083018461344f565b92915050565b600081519050919050565b600082825260208201905092915050565b6000819050602082019050919050565b600061350a8383612d67565b905092915050565b6000602082019050919050565b600061352a826134d2565b61353481856134dd565b935083602082028501613546856134ee565b8060005b85811015613582578484038952815161356385826134fe565b945061356e83613512565b925060208a0199505060018101905061354a565b50829750879550505050505092915050565b600060208201905081810360008301526135ae818461351f565b905092915050565b6000602082840312156135cc576135cb612903565b5b60006135da84828501612a94565b91505092915050565b6135ec8161292d565b82525050565b600060608201905061360760008301866135e3565b818103602083015261361981856129ef565b90506136286040830184612b0b565b949350505050565b7f4e487b7100000000000000000000000000000000000000000000000000000000600052602260045260246000fd5b6000600282049050600182168061367757607f821691505b60208210810361368a57613689613630565b5b50919050565b7f757365725f616c72656164795f65786973747300000000000000000000000000600082015250565b60006136c66013836129a3565b91506136d182613690565b602082019050919050565b600060208201905081810360008301526136f5816136b9565b9050919050565b7f4e487b7100000000000000000000000000000000000000000000000000000000600052602160045260246000fd5b60008190508160005260206000209050919050565b60006020601f8301049050919050565b600082821b905092915050565b60006008830261378d7fffffffffffffffffffffffffffffffffffffffffffffffffffffffffffffffff82613750565b6137978683613750565b95508019841693508086168417925050509392505050565b6000819050919050565b60006137d46137cf6137ca84612a73565b6137af565b612a73565b9050919050565b6000819050919050565b6137ee836137b9565b6138026137fa826137db565b84845461375d565b825550505050565b600090565b61381761380a565b6138228184846137e5565b505050565b5b818110156138465761383b60008261380f565b600181019050613828565b5050565b601f82111561388b5761385c8161372b565b61386584613740565b81016020851015613874578190505b61388861388085613740565b830182613827565b50505b505050565b600082821c905092915050565b60006138ae60001984600802613890565b1980831691505092915050565b60006138c7838361389d565b9150826002028217905092915050565b6138e082612998565b67ffffffffffffffff8111156138f9576138f8612b3f565b5b613903825461365f565b61390e82828561384a565b600060209050601f831160018114613941576000841561392f578287015190505b61393985826138bb565b8655506139a1565b601f19841661394f8661372b565b60005b8281101561397757848901518255600182019150602085019450602081019050613952565b868310156139945784890151613990601f89168261389d565b8355505b6001600288020188555050505b505050505050565b7f696e76616c69645f746f6b656e00000000000000000000000000000000000000600082015250565b60006139df600d836129a3565b91506139ea826139a9565b602082019050919050565b60006020820190508181036000830152613a0e816139d2565b9050919050565b7f657870697265645f746f6b656e00000000000000000000000000000000000000600082015250565b6000613a4b600d836129a3565b9150613a5682613a15565b602082019050919050565b60006020820190508181036000830152613a7a81613a3e565b9050919050565b7f757365725f646f65735f6e6f745f657869737400000000000000000000000000600082015250565b6000613ab76013836129a3565b9150613ac282613a81565b602082019050919050565b60006020820190508181036000830152613ae681613aaa565b9050919050565b7f4e487b7100000000000000000000000000000000000000000000000000000000600052601160045260246000fd5b6000613b2782612a73565b9150613b3283612a73565b9250828201905080821115613b4a57613b49613aed565b5b92915050565b7f7265666572656e63655f616c72656164795f6578697374730000000000000000600082015250565b6000613b866018836129a3565b9150613b9182613b50565b602082019050919050565b60006020820190508181036000830152613bb581613b79565b9050919050565b6000613bc782612a73565b915060008203613bda57613bd9613aed565b5b600182039050919050565b600081905092915050565b6000613bfb82612998565b613c058185613be5565b9350613c158185602086016129b4565b80840191505092915050565b6000613c2d8284613bf0565b915081905092915050565b6000613c4382612a73565b9150613c4e83612a73565b9250828203905081811115613c6657613c65613aed565b5b92915050565b6000613c7782612a73565b9150613c8283612a73565b9250828202613c9081612a73565b91508282048414831517613ca757613ca6613aed565b5b5092915050565b60008160011c9050919050565b6000808291508390505b6001851115613d0557808604811115613ce157613ce0613aed565b5b6001851615613cf05780820291505b8081029050613cfe85613cae565b9450613cc5565b94509492505050565b600082613d1e5760019050613dda565b81613d2c5760009050613dda565b8160018114613d425760028114613d4c57613d7b565b6001915050613dda565b60ff841115613d5e57613d5d613aed565b5b8360020a915084821115613d7557613d74613aed565b5b50613dda565b5060208310610133831016604e8410600b8410161715613db05782820a905083811115613dab57613daa613aed565b5b613dda565b613dbd8484846001613cbb565b92509050818404811115613dd457613dd3613aed565b5b81810290505b9392505050565b6000613dec82612a73565b9150613df783612a73565b9250613e247fffffffffffffffffffffffffffffffffffffffffffffffffffffffffffffffff8484613d0e565b905092915050565b7f4e487b7100000000000000000000000000000000000000000000000000000000600052601260045260246000fd5b6000613e6682612a73565b9150613e7183612a73565b925082613e8157613e80613e2c565b5b828204905092915050565b600060ff82169050919050565b6000613ea482613e8c565b9150613eaf83613e8c565b925082613ebf57613ebe613e2c565b5b828204905092915050565b6000613ed582613e8c565b9150613ee083613e8c565b9250828202613eee81613e8c565b9150808214613f0057613eff613aed565b5b5092915050565b6000613f1282613e8c565b9150613f1d83613e8c565b9250828203905060ff811115613f3657613f35613aed565b5b92915050565b7f4e487b7100000000000000000000000000000000000000000000000000000000600052603260045260246000fd5b6000613f7682612a73565b91507fffffffffffffffffffffffffffffffffffffffffffffffffffffffffffffffff8203613fa857613fa7613aed565b5b600182019050919050565b6000613fbe82613e8c565b9150613fc983613e8c565b9250828201905060ff811115613fe257613fe1613aed565b5b9291505056fea264697066735822122038ff72e243dfedce1be1de17e1ebb0a17bf86f2d7e4e3eae95f078b947c5169264736f6c63430008110033",
  "immutableReferences": {},
  "source": "// SPDX-License-Identifier: GPL-3.0\r\npragma solidity >=0.5.0 <0.9.0;\r\n\r\nimport {StringUtils, ArrayUtils, ByteUtils} from \"../utils/Utilities.sol\";\r\n\r\ncontract References {\r\n    using StringUtils for *;\r\n    using ArrayUtils for *;\r\n    using ByteUtils for *;\r\n\r\n    uint256 public constant UNIX_DAY = 86400;\r\n\r\n    enum AccountType {\r\n        Patient,\r\n        Professional\r\n    }\r\n\r\n    struct Account {\r\n        address id;\r\n        string name;\r\n        uint256 accountType;\r\n    }\r\n\r\n    struct Patient {\r\n        string name;\r\n        bool instanced;\r\n    }\r\n\r\n    struct Professional {\r\n        string name;\r\n        string workplace;\r\n        bool instanced;\r\n    }\r\n\r\n    struct Reference {\r\n        string id;\r\n        string name;\r\n        string from;\r\n        string resourceType;\r\n        uint256 date;\r\n    }\r\n\r\n    struct Token {\r\n        bytes32 token;\r\n        bool valid;\r\n        uint256 validUntil;\r\n        uint256 usesLeft;\r\n        bool instanced;\r\n    }\r\n\r\n    Account[] public accounts;\r\n    mapping(address => Patient) public patients;\r\n    mapping(address => Reference[]) public references;\r\n    mapping(address => string[]) public referenceIds;\r\n\r\n    //token mappings\r\n    mapping(address => mapping(bytes32 => Token)) public tokens;\r\n\r\n    modifier requireInstancedPatient() {\r\n        require(patients[msg.sender].instanced, \"user_does_not_exist\");\r\n        _;\r\n    }\r\n\r\n    constructor() {}\r\n\r\n    function addUser(string memory _name) public returns (bool) {\r\n        // check if user is already present\r\n        require(!patients[msg.sender].instanced, \"user_already_exists\");\r\n\r\n        // register user\r\n        accounts.push(\r\n            Account({\r\n                id: msg.sender,\r\n                name: _name,\r\n                accountType: uint256(AccountType.Patient)\r\n            })\r\n        );\r\n\r\n        patients[msg.sender].name = _name;\r\n        patients[msg.sender].instanced = true;\r\n        //TODO: Verificar se o mtodo toAsciiString est funcionando correntamente\r\n        //Tambm verificar se a referncia  criada corretamente\r\n        createReference(toAsciiString(msg.sender), patients[msg.sender].name, \"Patient\", \"self\");\r\n\r\n        return true;\r\n    }\r\n\r\n    function getUser() public view returns (Patient memory) {\r\n        return patients[msg.sender];\r\n    }\r\n\r\n    function createReference(\r\n        string memory _id,\r\n        string memory _name,\r\n        string memory _type,\r\n        string memory _from\r\n    ) public requireInstancedPatient returns (bool) {\r\n        // check if a reference with this id is instanced\r\n        require(\r\n            !referenceIds[msg.sender].contains(_id),\r\n            \"reference_already_exists\"\r\n        );\r\n\r\n        if(compareStrings(_type, 'Patient') && patients[msg.sender].instanced){\r\n            return false;\r\n        }\r\n\r\n        //add reference\r\n        referenceIds[msg.sender].push(_id);\r\n\r\n        references[msg.sender].push(\r\n            Reference({\r\n                id: _id,\r\n                name: _name,\r\n                from: _from,\r\n                resourceType: _type,\r\n                date: block.timestamp\r\n            })\r\n        );\r\n\r\n        return true;\r\n    }\r\n\r\n    function listReferenceIds()\r\n        public\r\n        view\r\n        requireInstancedPatient\r\n        returns (string[] memory)\r\n    {\r\n        return referenceIds[msg.sender];\r\n    }\r\n\r\n    function listReferences()\r\n        public\r\n        view\r\n        requireInstancedPatient\r\n        returns (Reference[] memory)\r\n    {\r\n        return references[msg.sender];\r\n    }\r\n\r\n    function listPatients() public view returns (Account[] memory) {\r\n        return accounts;\r\n    }\r\n\r\n    function createToken(string memory _token)\r\n        public\r\n        requireInstancedPatient\r\n        returns (bool)\r\n    {\r\n        bytes32 tokenHash = _token.getHash();\r\n\r\n        tokens[msg.sender][tokenHash] = Token({\r\n            token: tokenHash,\r\n            valid: true,\r\n            validUntil: block.timestamp + UNIX_DAY,\r\n            usesLeft: 1,\r\n            instanced: true\r\n        });\r\n\r\n        return true;\r\n    }\r\n\r\n    function getToken(string memory _tokenString)\r\n        public\r\n        view\r\n        returns (Token memory)\r\n    {\r\n        bytes32 tokenHash = _tokenString.getHash();\r\n        return tokens[msg.sender][tokenHash];\r\n    }\r\n\r\n    function validateToken(address _address, string memory _tokenString)\r\n        public\r\n        view\r\n        returns (bool)\r\n    {\r\n        bytes32 tokenHash = _tokenString.getHash();\r\n\r\n        Token memory token = tokens[_address][tokenHash];\r\n        require(token.instanced && token.valid, \"invalid_token\");\r\n        require(token.validUntil >= block.timestamp, \"expired_token\");\r\n\r\n        return true;\r\n    }\r\n\r\n    function listReferencesThird(address _patient, string memory _tokenString)\r\n        public\r\n        view\r\n        returns (Reference[] memory)\r\n    {\r\n        bytes32 tokenHash = _tokenString.getHash();\r\n\r\n        Token memory token = tokens[_patient][tokenHash];\r\n        require(token.instanced && token.valid, \"invalid_token\");\r\n        require(token.validUntil >= block.timestamp, \"expired_token\");\r\n\r\n        return references[_patient];\r\n    }\r\n\r\n    function createReferenceThird(\r\n        string memory _tokenString,\r\n        string memory _id,\r\n        string memory _name,\r\n        string memory _type,\r\n        string memory _from\r\n    ) public returns (bool) {\r\n        bytes32 tokenHash = _tokenString.getHash();\r\n\r\n        Token memory token = tokens[msg.sender][tokenHash];\r\n        require(token.instanced && token.valid, \"invalid_token\");\r\n        require(token.validUntil >= block.timestamp, \"expired_token\");\r\n\r\n        // check if a reference with this id is instanced\r\n        require(\r\n            !referenceIds[msg.sender].contains(_id),\r\n            \"reference_already_exists\"\r\n        );\r\n\r\n        //add reference\r\n        referenceIds[msg.sender].push(_id);\r\n\r\n        references[msg.sender].push(\r\n            Reference({\r\n                id: _id,\r\n                name: _name,\r\n                from: _from,\r\n                resourceType: _type,\r\n                date: block.timestamp\r\n            })\r\n        );\r\n\r\n        tokens[msg.sender][tokenHash].usesLeft--;\r\n        if (tokens[msg.sender][tokenHash].usesLeft == 0)\r\n            tokens[msg.sender][tokenHash].valid = false;\r\n\r\n        return true;\r\n    }\r\n\r\n    function toAsciiString(address x) internal pure returns (string memory) {\r\n    bytes memory s = new bytes(40);\r\n    for (uint i = 0; i < 20; i++) {\r\n        bytes1 b = bytes1(uint8(uint(uint160(x)) / (2**(8*(19 - i)))));\r\n        bytes1 hi = bytes1(uint8(b) / 16);\r\n        bytes1 lo = bytes1(uint8(b) - 16 * uint8(hi));\r\n        s[2*i] = char(hi);\r\n        s[2*i+1] = char(lo);            \r\n    }\r\n    return string(s);\r\n    }\r\n\r\n    function char(bytes1 b) internal pure returns (bytes1 c) {\r\n        if (uint8(b) < 10) return bytes1(uint8(b) + 0x30);\r\n        else return bytes1(uint8(b) + 0x57);\r\n    }\r\n\r\n    function compareStrings(string memory a, string memory b) public view returns (bool) {\r\n        return (keccak256(abi.encodePacked((a))) == keccak256(abi.encodePacked((b))));\r\n    }\r\n}\r\n",
  "sourcePath": "C:\\Users\\felip\\OneDrive\\rea de Trabalho\\FEI\\TCC\\Projeto Higia\\backend-smartcontracts\\src\\contracts\\references.sol",
  "compiler": {
    "name": "solc",
    "version": "0.8.17+commit.8df45f5f.Emscripten.clang"
  },
  "schemaVersion": "3.4.4",
  "updatedAt": "2022-10-10T20:09:28.707Z",
  "networkType": "ethereum",
  "devdoc": {
    "kind": "dev",
    "methods": {},
    "version": 1
  },
  "userdoc": {
    "kind": "user",
    "methods": {},
    "version": 1
  }
}