{
  "contractName": "References",
  "abi": [
    {
      "inputs": [],
      "stateMutability": "nonpayable",
      "type": "constructor"
    },
    {
      "inputs": [],
      "name": "UNIX_DAY",
      "outputs": [
        {
          "internalType": "uint256",
          "name": "",
          "type": "uint256"
        }
      ],
      "stateMutability": "view",
      "type": "function",
      "constant": true
    },
    {
      "inputs": [
        {
          "internalType": "uint256",
          "name": "",
          "type": "uint256"
        }
      ],
      "name": "accounts",
      "outputs": [
        {
          "internalType": "address",
          "name": "id",
          "type": "address"
        },
        {
          "internalType": "string",
          "name": "name",
          "type": "string"
        },
        {
          "internalType": "uint256",
          "name": "accountType",
          "type": "uint256"
        }
      ],
      "stateMutability": "view",
      "type": "function",
      "constant": true
    },
    {
      "inputs": [
        {
          "internalType": "address",
          "name": "",
          "type": "address"
        }
      ],
      "name": "patients",
      "outputs": [
        {
          "internalType": "string",
          "name": "name",
          "type": "string"
        },
        {
          "internalType": "bool",
          "name": "instanced",
          "type": "bool"
        }
      ],
      "stateMutability": "view",
      "type": "function",
      "constant": true
    },
    {
      "inputs": [
        {
          "internalType": "address",
          "name": "",
          "type": "address"
        },
        {
          "internalType": "uint256",
          "name": "",
          "type": "uint256"
        }
      ],
      "name": "referenceIds",
      "outputs": [
        {
          "internalType": "string",
          "name": "",
          "type": "string"
        }
      ],
      "stateMutability": "view",
      "type": "function",
      "constant": true
    },
    {
      "inputs": [
        {
          "internalType": "address",
          "name": "",
          "type": "address"
        },
        {
          "internalType": "uint256",
          "name": "",
          "type": "uint256"
        }
      ],
      "name": "references",
      "outputs": [
        {
          "internalType": "string",
          "name": "id",
          "type": "string"
        },
        {
          "internalType": "string",
          "name": "name",
          "type": "string"
        },
        {
          "internalType": "string",
          "name": "from",
          "type": "string"
        },
        {
          "internalType": "string",
          "name": "resourceType",
          "type": "string"
        },
        {
          "internalType": "uint256",
          "name": "date",
          "type": "uint256"
        }
      ],
      "stateMutability": "view",
      "type": "function",
      "constant": true
    },
    {
      "inputs": [
        {
          "internalType": "address",
          "name": "",
          "type": "address"
        },
        {
          "internalType": "bytes32",
          "name": "",
          "type": "bytes32"
        }
      ],
      "name": "tokens",
      "outputs": [
        {
          "internalType": "bytes32",
          "name": "token",
          "type": "bytes32"
        },
        {
          "internalType": "bool",
          "name": "valid",
          "type": "bool"
        },
        {
          "internalType": "uint256",
          "name": "validUntil",
          "type": "uint256"
        },
        {
          "internalType": "uint256",
          "name": "usesLeft",
          "type": "uint256"
        },
        {
          "internalType": "bool",
          "name": "instanced",
          "type": "bool"
        }
      ],
      "stateMutability": "view",
      "type": "function",
      "constant": true
    },
    {
      "inputs": [
        {
          "internalType": "string",
          "name": "_id",
          "type": "string"
        },
        {
          "internalType": "string",
          "name": "_name",
          "type": "string"
        }
      ],
      "name": "addUser",
      "outputs": [
        {
          "internalType": "bool",
          "name": "",
          "type": "bool"
        }
      ],
      "stateMutability": "nonpayable",
      "type": "function"
    },
    {
      "inputs": [],
      "name": "getUser",
      "outputs": [
        {
          "components": [
            {
              "internalType": "string",
              "name": "name",
              "type": "string"
            },
            {
              "internalType": "bool",
              "name": "instanced",
              "type": "bool"
            }
          ],
          "internalType": "struct References.Patient",
          "name": "",
          "type": "tuple"
        }
      ],
      "stateMutability": "view",
      "type": "function",
      "constant": true
    },
    {
      "inputs": [
        {
          "internalType": "string",
          "name": "_id",
          "type": "string"
        },
        {
          "internalType": "string",
          "name": "_name",
          "type": "string"
        },
        {
          "internalType": "string",
          "name": "_type",
          "type": "string"
        },
        {
          "internalType": "string",
          "name": "_from",
          "type": "string"
        }
      ],
      "name": "createReference",
      "outputs": [
        {
          "internalType": "bool",
          "name": "",
          "type": "bool"
        }
      ],
      "stateMutability": "nonpayable",
      "type": "function"
    },
    {
      "inputs": [],
      "name": "listReferenceIds",
      "outputs": [
        {
          "internalType": "string[]",
          "name": "",
          "type": "string[]"
        }
      ],
      "stateMutability": "view",
      "type": "function",
      "constant": true
    },
    {
      "inputs": [],
      "name": "listReferences",
      "outputs": [
        {
          "components": [
            {
              "internalType": "string",
              "name": "id",
              "type": "string"
            },
            {
              "internalType": "string",
              "name": "name",
              "type": "string"
            },
            {
              "internalType": "string",
              "name": "from",
              "type": "string"
            },
            {
              "internalType": "string",
              "name": "resourceType",
              "type": "string"
            },
            {
              "internalType": "uint256",
              "name": "date",
              "type": "uint256"
            }
          ],
          "internalType": "struct References.Reference[]",
          "name": "",
          "type": "tuple[]"
        }
      ],
      "stateMutability": "view",
      "type": "function",
      "constant": true
    },
    {
      "inputs": [],
      "name": "listPatients",
      "outputs": [
        {
          "components": [
            {
              "internalType": "address",
              "name": "id",
              "type": "address"
            },
            {
              "internalType": "string",
              "name": "name",
              "type": "string"
            },
            {
              "internalType": "uint256",
              "name": "accountType",
              "type": "uint256"
            }
          ],
          "internalType": "struct References.Account[]",
          "name": "",
          "type": "tuple[]"
        }
      ],
      "stateMutability": "view",
      "type": "function",
      "constant": true
    },
    {
      "inputs": [
        {
          "internalType": "string",
          "name": "_token",
          "type": "string"
        }
      ],
      "name": "createToken",
      "outputs": [
        {
          "internalType": "bool",
          "name": "",
          "type": "bool"
        }
      ],
      "stateMutability": "nonpayable",
      "type": "function"
    },
    {
      "inputs": [
        {
          "internalType": "string",
          "name": "_tokenString",
          "type": "string"
        }
      ],
      "name": "getToken",
      "outputs": [
        {
          "components": [
            {
              "internalType": "bytes32",
              "name": "token",
              "type": "bytes32"
            },
            {
              "internalType": "bool",
              "name": "valid",
              "type": "bool"
            },
            {
              "internalType": "uint256",
              "name": "validUntil",
              "type": "uint256"
            },
            {
              "internalType": "uint256",
              "name": "usesLeft",
              "type": "uint256"
            },
            {
              "internalType": "bool",
              "name": "instanced",
              "type": "bool"
            }
          ],
          "internalType": "struct References.Token",
          "name": "",
          "type": "tuple"
        }
      ],
      "stateMutability": "view",
      "type": "function",
      "constant": true
    },
    {
      "inputs": [
        {
          "internalType": "address",
          "name": "_address",
          "type": "address"
        },
        {
          "internalType": "string",
          "name": "_tokenString",
          "type": "string"
        }
      ],
      "name": "validateToken",
      "outputs": [
        {
          "internalType": "bool",
          "name": "",
          "type": "bool"
        }
      ],
      "stateMutability": "view",
      "type": "function",
      "constant": true
    },
    {
      "inputs": [
        {
          "internalType": "address",
          "name": "_patient",
          "type": "address"
        },
        {
          "internalType": "string",
          "name": "_tokenString",
          "type": "string"
        }
      ],
      "name": "listReferencesThird",
      "outputs": [
        {
          "components": [
            {
              "internalType": "string",
              "name": "id",
              "type": "string"
            },
            {
              "internalType": "string",
              "name": "name",
              "type": "string"
            },
            {
              "internalType": "string",
              "name": "from",
              "type": "string"
            },
            {
              "internalType": "string",
              "name": "resourceType",
              "type": "string"
            },
            {
              "internalType": "uint256",
              "name": "date",
              "type": "uint256"
            }
          ],
          "internalType": "struct References.Reference[]",
          "name": "",
          "type": "tuple[]"
        }
      ],
      "stateMutability": "view",
      "type": "function",
      "constant": true
    },
    {
      "inputs": [
        {
          "internalType": "string",
          "name": "_tokenString",
          "type": "string"
        },
        {
          "internalType": "string",
          "name": "_id",
          "type": "string"
        },
        {
          "internalType": "string",
          "name": "_name",
          "type": "string"
        },
        {
          "internalType": "string",
          "name": "_type",
          "type": "string"
        },
        {
          "internalType": "string",
          "name": "_from",
          "type": "string"
        }
      ],
      "name": "createReferenceThird",
      "outputs": [
        {
          "internalType": "bool",
          "name": "",
          "type": "bool"
        }
      ],
      "stateMutability": "nonpayable",
      "type": "function"
    },
    {
      "inputs": [
        {
          "internalType": "string",
          "name": "a",
          "type": "string"
        },
        {
          "internalType": "string",
          "name": "b",
          "type": "string"
        }
      ],
      "name": "compareStrings",
      "outputs": [
        {
          "internalType": "bool",
          "name": "",
          "type": "bool"
        }
      ],
      "stateMutability": "view",
      "type": "function",
      "constant": true
    }
  ],
  "bytecode": "0x608060405234801561001057600080fd5b50613a0b806100206000396000f3fe608060405234801561001057600080fd5b50600436106101165760003560e01c80639e3ce876116100a2578063c1733f6811610071578063c1733f681461035e578063c212d65f1461038e578063c5a2a18e146103ac578063f2a40db8146103ca578063f91d099c146103fc57610116565b80639e3ce87614610296578063a4dec788146102c6578063a9964d1c146102fa578063bed34bba1461032e57610116565b80634208adc7116100e95780634208adc7146101ca57806345576f94146101fa578063605027f11461022a578063832880e71461025a5780639d2ff01e1461027857610116565b8063079eaf341461011b5780630869cfbc1461014b578063138a5e811461017c578063177cf218146101ac575b600080fd5b61013560048036038101906101309190612779565b61042c565b604051610142919061280c565b60405180910390f35b61016560048036038101906101609190612885565b6106c1565b604051610173929190612931565b60405180910390f35b61019660048036038101906101919190612997565b61077a565b6040516101a391906129d7565b60405180910390f35b6101b4610833565b6040516101c19190612a08565b60405180910390f35b6101e460048036038101906101df9190612a23565b61083a565b6040516101f19190612c25565b60405180910390f35b610214600480360381019061020f9190612c47565b610c85565b604051610221919061280c565b60405180910390f35b610244600480360381019061023f9190612c90565b610e1a565b604051610251919061280c565b60405180910390f35b610262611223565b60405161026f9190612db3565b60405180910390f35b610280611327565b60405161028d9190612ef6565b60405180910390f35b6102b060048036038101906102ab9190612f18565b611478565b6040516102bd919061280c565b60405180910390f35b6102e060048036038101906102db9190612997565b6119d7565b6040516102f195949392919061301f565b60405180910390f35b610314600480360381019061030f91906130c4565b611c4a565b604051610325959493929190613113565b60405180910390f35b61034860048036038101906103439190612779565b611ca7565b604051610355919061280c565b60405180910390f35b61037860048036038101906103739190612c47565b611d00565b60405161038591906131dd565b60405180910390f35b610396611dcc565b6040516103a39190612c25565b60405180910390f35b6103b4612149565b6040516103c191906132ba565b60405180910390f35b6103e460048036038101906103df91906132dc565b6122ee565b6040516103f393929190613318565b60405180910390f35b61041660048036038101906104119190612a23565b6123d0565b604051610423919061280c565b60405180910390f35b6000600160003373ffffffffffffffffffffffffffffffffffffffff1673ffffffffffffffffffffffffffffffffffffffff16815260200190815260200160002060010160009054906101000a900460ff16156104be576040517f08c379a00000000000000000000000000000000000000000000000000000000081526004016104b5906133a2565b60405180910390fd5b600060405180606001604052803373ffffffffffffffffffffffffffffffffffffffff16815260200184815260200160006001811115610501576105006133c2565b5b815250908060018154018082558091505060019003906000526020600020906003020160009091909190915060008201518160000160006101000a81548173ffffffffffffffffffffffffffffffffffffffff021916908373ffffffffffffffffffffffffffffffffffffffff160217905550602082015181600101908161058991906135fd565b5060408201518160020155505081600160003373ffffffffffffffffffffffffffffffffffffffff1673ffffffffffffffffffffffffffffffffffffffff16815260200190815260200160002060000190816105e591906135fd565b5060018060003373ffffffffffffffffffffffffffffffffffffffff1673ffffffffffffffffffffffffffffffffffffffff16815260200190815260200160002060010160006101000a81548160ff0219169083151502179055506106b683836040518060400160405280600781526020017f50617469656e74000000000000000000000000000000000000000000000000008152506040518060400160405280600481526020017f73656c6600000000000000000000000000000000000000000000000000000000815250610e1a565b506001905092915050565b60016020528060005260406000206000915090508060000180546106e490613420565b80601f016020809104026020016040519081016040528092919081815260200182805461071090613420565b801561075d5780601f106107325761010080835404028352916020019161075d565b820191906000526020600020905b81548152906001019060200180831161074057829003601f168201915b5050505050908060010160009054906101000a900460ff16905082565b6003602052816000526040600020818154811061079657600080fd5b906000526020600020016000915091505080546107b290613420565b80601f01602080910402602001604051908101604052809291908181526020018280546107de90613420565b801561082b5780601f106108005761010080835404028352916020019161082b565b820191906000526020600020905b81548152906001019060200180831161080e57829003601f168201915b505050505081565b6201518081565b6060600061084783612535565b90506000600460008673ffffffffffffffffffffffffffffffffffffffff1673ffffffffffffffffffffffffffffffffffffffff16815260200190815260200160002060008381526020019081526020016000206040518060a0016040529081600082015481526020016001820160009054906101000a900460ff1615151515815260200160028201548152602001600382015481526020016004820160009054906101000a900460ff16151515158152505090508060800151801561090e575080602001515b61094d576040517f08c379a00000000000000000000000000000000000000000000000000000000081526004016109449061371b565b60405180910390fd5b4281604001511015610994576040517f08c379a000000000000000000000000000000000000000000000000000000000815260040161098b90613787565b60405180910390fd5b600260008673ffffffffffffffffffffffffffffffffffffffff1673ffffffffffffffffffffffffffffffffffffffff168152602001908152602001600020805480602002602001604051908101604052809291908181526020016000905b82821015610c7757838290600052602060002090600502016040518060a0016040529081600082018054610a2690613420565b80601f0160208091040260200160405190810160405280929190818152602001828054610a5290613420565b8015610a9f5780601f10610a7457610100808354040283529160200191610a9f565b820191906000526020600020905b815481529060010190602001808311610a8257829003601f168201915b50505050508152602001600182018054610ab890613420565b80601f0160208091040260200160405190810160405280929190818152602001828054610ae490613420565b8015610b315780601f10610b0657610100808354040283529160200191610b31565b820191906000526020600020905b815481529060010190602001808311610b1457829003601f168201915b50505050508152602001600282018054610b4a90613420565b80601f0160208091040260200160405190810160405280929190818152602001828054610b7690613420565b8015610bc35780601f10610b9857610100808354040283529160200191610bc3565b820191906000526020600020905b815481529060010190602001808311610ba657829003601f168201915b50505050508152602001600382018054610bdc90613420565b80601f0160208091040260200160405190810160405280929190818152602001828054610c0890613420565b8015610c555780601f10610c2a57610100808354040283529160200191610c55565b820191906000526020600020905b815481529060010190602001808311610c3857829003601f168201915b50505050508152602001600482015481525050815260200190600101906109f3565b505050509250505092915050565b6000600160003373ffffffffffffffffffffffffffffffffffffffff1673ffffffffffffffffffffffffffffffffffffffff16815260200190815260200160002060010160009054906101000a900460ff16610d16576040517f08c379a0000000000000000000000000000000000000000000000000000000008152600401610d0d906137f3565b60405180910390fd5b6000610d2183612535565b90506040518060a001604052808281526020016001151581526020016201518042610d4c9190613842565b81526020016001815260200160011515815250600460003373ffffffffffffffffffffffffffffffffffffffff1673ffffffffffffffffffffffffffffffffffffffff16815260200190815260200160002060008381526020019081526020016000206000820151816000015560208201518160010160006101000a81548160ff021916908315150217905550604082015181600201556060820151816003015560808201518160040160006101000a81548160ff0219169083151502179055509050506001915050919050565b6000600160003373ffffffffffffffffffffffffffffffffffffffff1673ffffffffffffffffffffffffffffffffffffffff16815260200190815260200160002060010160009054906101000a900460ff16610eab576040517f08c379a0000000000000000000000000000000000000000000000000000000008152600401610ea2906137f3565b60405180910390fd5b610fcc85600360003373ffffffffffffffffffffffffffffffffffffffff1673ffffffffffffffffffffffffffffffffffffffff168152602001908152602001600020805480602002602001604051908101604052809291908181526020016000905b82821015610fba578382906000526020600020018054610f2d90613420565b80601f0160208091040260200160405190810160405280929190818152602001828054610f5990613420565b8015610fa65780601f10610f7b57610100808354040283529160200191610fa6565b820191906000526020600020905b815481529060010190602001808311610f8957829003601f168201915b505050505081526020019060010190610f0e565b5050505061254690919063ffffffff16565b1561100c576040517f08c379a0000000000000000000000000000000000000000000000000000000008152600401611003906138c2565b60405180910390fd5b61104b836040518060400160405280600781526020017f50617469656e7400000000000000000000000000000000000000000000000000815250611ca7565b80156110a35750600160003373ffffffffffffffffffffffffffffffffffffffff1673ffffffffffffffffffffffffffffffffffffffff16815260200190815260200160002060010160009054906101000a900460ff165b156110b1576000905061121b565b600360003373ffffffffffffffffffffffffffffffffffffffff1673ffffffffffffffffffffffffffffffffffffffff1681526020019081526020016000208590806001815401808255809150506001900390600052602060002001600090919091909150908161112291906135fd565b50600260003373ffffffffffffffffffffffffffffffffffffffff1673ffffffffffffffffffffffffffffffffffffffff1681526020019081526020016000206040518060a0016040528087815260200186815260200184815260200185815260200142815250908060018154018082558091505060019003906000526020600020906005020160009091909190915060008201518160000190816111c791906135fd565b5060208201518160010190816111dd91906135fd565b5060408201518160020190816111f391906135fd565b50606082015181600301908161120991906135fd565b50608082015181600401555050600190505b949350505050565b61122b6125cd565b600160003373ffffffffffffffffffffffffffffffffffffffff1673ffffffffffffffffffffffffffffffffffffffff16815260200190815260200160002060405180604001604052908160008201805461128590613420565b80601f01602080910402602001604051908101604052809291908181526020018280546112b190613420565b80156112fe5780601f106112d3576101008083540402835291602001916112fe565b820191906000526020600020905b8154815290600101906020018083116112e157829003601f168201915b505050505081526020016001820160009054906101000a900460ff161515151581525050905090565b60606000805480602002602001604051908101604052809291908181526020016000905b8282101561146f57838290600052602060002090600302016040518060600160405290816000820160009054906101000a900473ffffffffffffffffffffffffffffffffffffffff1673ffffffffffffffffffffffffffffffffffffffff1673ffffffffffffffffffffffffffffffffffffffff1681526020016001820180546113d490613420565b80601f016020809104026020016040519081016040528092919081815260200182805461140090613420565b801561144d5780601f106114225761010080835404028352916020019161144d565b820191906000526020600020905b81548152906001019060200180831161143057829003601f168201915b505050505081526020016002820154815250508152602001906001019061134b565b50505050905090565b60008061148487612535565b90506000600460003373ffffffffffffffffffffffffffffffffffffffff1673ffffffffffffffffffffffffffffffffffffffff16815260200190815260200160002060008381526020019081526020016000206040518060a0016040529081600082015481526020016001820160009054906101000a900460ff1615151515815260200160028201548152602001600382015481526020016004820160009054906101000a900460ff16151515158152505090508060800151801561154b575080602001515b61158a576040517f08c379a00000000000000000000000000000000000000000000000000000000081526004016115819061371b565b60405180910390fd5b42816040015110156115d1576040517f08c379a00000000000000000000000000000000000000000000000000000000081526004016115c890613787565b60405180910390fd5b6116f287600360003373ffffffffffffffffffffffffffffffffffffffff1673ffffffffffffffffffffffffffffffffffffffff168152602001908152602001600020805480602002602001604051908101604052809291908181526020016000905b828210156116e057838290600052602060002001805461165390613420565b80601f016020809104026020016040519081016040528092919081815260200182805461167f90613420565b80156116cc5780601f106116a1576101008083540402835291602001916116cc565b820191906000526020600020905b8154815290600101906020018083116116af57829003601f168201915b505050505081526020019060010190611634565b5050505061254690919063ffffffff16565b15611732576040517f08c379a0000000000000000000000000000000000000000000000000000000008152600401611729906138c2565b60405180910390fd5b600360003373ffffffffffffffffffffffffffffffffffffffff1673ffffffffffffffffffffffffffffffffffffffff168152602001908152602001600020879080600181540180825580915050600190039060005260206000200160009091909190915090816117a391906135fd565b50600260003373ffffffffffffffffffffffffffffffffffffffff1673ffffffffffffffffffffffffffffffffffffffff1681526020019081526020016000206040518060a00160405280898152602001888152602001868152602001878152602001428152509080600181540180825580915050600190039060005260206000209060050201600090919091909150600082015181600001908161184891906135fd565b50602082015181600101908161185e91906135fd565b50604082015181600201908161187491906135fd565b50606082015181600301908161188a91906135fd565b50608082015181600401555050600460003373ffffffffffffffffffffffffffffffffffffffff1673ffffffffffffffffffffffffffffffffffffffff168152602001908152602001600020600083815260200190815260200160002060030160008154809291906118fb906138e2565b91905055506000600460003373ffffffffffffffffffffffffffffffffffffffff1673ffffffffffffffffffffffffffffffffffffffff168152602001908152602001600020600084815260200190815260200160002060030154036119c8576000600460003373ffffffffffffffffffffffffffffffffffffffff1673ffffffffffffffffffffffffffffffffffffffff168152602001908152602001600020600084815260200190815260200160002060010160006101000a81548160ff0219169083151502179055505b60019250505095945050505050565b600260205281600052604060002081815481106119f357600080fd5b906000526020600020906005020160009150915050806000018054611a1790613420565b80601f0160208091040260200160405190810160405280929190818152602001828054611a4390613420565b8015611a905780601f10611a6557610100808354040283529160200191611a90565b820191906000526020600020905b815481529060010190602001808311611a7357829003601f168201915b505050505090806001018054611aa590613420565b80601f0160208091040260200160405190810160405280929190818152602001828054611ad190613420565b8015611b1e5780601f10611af357610100808354040283529160200191611b1e565b820191906000526020600020905b815481529060010190602001808311611b0157829003601f168201915b505050505090806002018054611b3390613420565b80601f0160208091040260200160405190810160405280929190818152602001828054611b5f90613420565b8015611bac5780601f10611b8157610100808354040283529160200191611bac565b820191906000526020600020905b815481529060010190602001808311611b8f57829003601f168201915b505050505090806003018054611bc190613420565b80601f0160208091040260200160405190810160405280929190818152602001828054611bed90613420565b8015611c3a5780601f10611c0f57610100808354040283529160200191611c3a565b820191906000526020600020905b815481529060010190602001808311611c1d57829003601f168201915b5050505050908060040154905085565b6004602052816000526040600020602052806000526040600020600091509150508060000154908060010160009054906101000a900460ff16908060020154908060030154908060040160009054906101000a900460ff16905085565b600081604051602001611cba9190613947565b6040516020818303038152906040528051906020012083604051602001611ce19190613947565b6040516020818303038152906040528051906020012014905092915050565b611d086125e9565b6000611d1383612535565b9050600460003373ffffffffffffffffffffffffffffffffffffffff1673ffffffffffffffffffffffffffffffffffffffff16815260200190815260200160002060008281526020019081526020016000206040518060a0016040529081600082015481526020016001820160009054906101000a900460ff1615151515815260200160028201548152602001600382015481526020016004820160009054906101000a900460ff161515151581525050915050919050565b6060600160003373ffffffffffffffffffffffffffffffffffffffff1673ffffffffffffffffffffffffffffffffffffffff16815260200190815260200160002060010160009054906101000a900460ff16611e5d576040517f08c379a0000000000000000000000000000000000000000000000000000000008152600401611e54906137f3565b60405180910390fd5b600260003373ffffffffffffffffffffffffffffffffffffffff1673ffffffffffffffffffffffffffffffffffffffff168152602001908152602001600020805480602002602001604051908101604052809291908181526020016000905b8282101561214057838290600052602060002090600502016040518060a0016040529081600082018054611eef90613420565b80601f0160208091040260200160405190810160405280929190818152602001828054611f1b90613420565b8015611f685780601f10611f3d57610100808354040283529160200191611f68565b820191906000526020600020905b815481529060010190602001808311611f4b57829003601f168201915b50505050508152602001600182018054611f8190613420565b80601f0160208091040260200160405190810160405280929190818152602001828054611fad90613420565b8015611ffa5780601f10611fcf57610100808354040283529160200191611ffa565b820191906000526020600020905b815481529060010190602001808311611fdd57829003601f168201915b5050505050815260200160028201805461201390613420565b80601f016020809104026020016040519081016040528092919081815260200182805461203f90613420565b801561208c5780601f106120615761010080835404028352916020019161208c565b820191906000526020600020905b81548152906001019060200180831161206f57829003601f168201915b505050505081526020016003820180546120a590613420565b80601f01602080910402602001604051908101604052809291908181526020018280546120d190613420565b801561211e5780601f106120f35761010080835404028352916020019161211e565b820191906000526020600020905b81548152906001019060200180831161210157829003601f168201915b5050505050815260200160048201548152505081526020019060010190611ebc565b50505050905090565b6060600160003373ffffffffffffffffffffffffffffffffffffffff1673ffffffffffffffffffffffffffffffffffffffff16815260200190815260200160002060010160009054906101000a900460ff166121da576040517f08c379a00000000000000000000000000000000000000000000000000000000081526004016121d1906137f3565b60405180910390fd5b600360003373ffffffffffffffffffffffffffffffffffffffff1673ffffffffffffffffffffffffffffffffffffffff168152602001908152602001600020805480602002602001604051908101604052809291908181526020016000905b828210156122e557838290600052602060002001805461225890613420565b80601f016020809104026020016040519081016040528092919081815260200182805461228490613420565b80156122d15780601f106122a6576101008083540402835291602001916122d1565b820191906000526020600020905b8154815290600101906020018083116122b457829003601f168201915b505050505081526020019060010190612239565b50505050905090565b600081815481106122fe57600080fd5b90600052602060002090600302016000915090508060000160009054906101000a900473ffffffffffffffffffffffffffffffffffffffff169080600101805461234790613420565b80601f016020809104026020016040519081016040528092919081815260200182805461237390613420565b80156123c05780601f10612395576101008083540402835291602001916123c0565b820191906000526020600020905b8154815290600101906020018083116123a357829003601f168201915b5050505050908060020154905083565b6000806123dc83612535565b90506000600460008673ffffffffffffffffffffffffffffffffffffffff1673ffffffffffffffffffffffffffffffffffffffff16815260200190815260200160002060008381526020019081526020016000206040518060a0016040529081600082015481526020016001820160009054906101000a900460ff1615151515815260200160028201548152602001600382015481526020016004820160009054906101000a900460ff1615151515815250509050806080015180156124a3575080602001515b6124e2576040517f08c379a00000000000000000000000000000000000000000000000000000000081526004016124d99061371b565b60405180910390fd5b4281604001511015612529576040517f08c379a000000000000000000000000000000000000000000000000000000000815260040161252090613787565b60405180910390fd5b60019250505092915050565b600081805190602001209050919050565b600080600090505b83518110156125a6576125848385838151811061256e5761256d61395e565b5b60200260200101516125b290919063ffffffff16565b156125935760019150506125ac565b808061259e9061398d565b91505061254e565b50600090505b92915050565b60008180519060200120838051906020012014905092915050565b6040518060400160405280606081526020016000151581525090565b6040518060a001604052806000801916815260200160001515815260200160008152602001600081526020016000151581525090565b6000604051905090565b600080fd5b600080fd5b600080fd5b600080fd5b6000601f19601f8301169050919050565b7f4e487b7100000000000000000000000000000000000000000000000000000000600052604160045260246000fd5b6126868261263d565b810181811067ffffffffffffffff821117156126a5576126a461264e565b5b80604052505050565b60006126b861261f565b90506126c4828261267d565b919050565b600067ffffffffffffffff8211156126e4576126e361264e565b5b6126ed8261263d565b9050602081019050919050565b82818337600083830152505050565b600061271c612717846126c9565b6126ae565b90508281526020810184848401111561273857612737612638565b5b6127438482856126fa565b509392505050565b600082601f8301126127605761275f612633565b5b8135612770848260208601612709565b91505092915050565b600080604083850312156127905761278f612629565b5b600083013567ffffffffffffffff8111156127ae576127ad61262e565b5b6127ba8582860161274b565b925050602083013567ffffffffffffffff8111156127db576127da61262e565b5b6127e78582860161274b565b9150509250929050565b60008115159050919050565b612806816127f1565b82525050565b600060208201905061282160008301846127fd565b92915050565b600073ffffffffffffffffffffffffffffffffffffffff82169050919050565b600061285282612827565b9050919050565b61286281612847565b811461286d57600080fd5b50565b60008135905061287f81612859565b92915050565b60006020828403121561289b5761289a612629565b5b60006128a984828501612870565b91505092915050565b600081519050919050565b600082825260208201905092915050565b60005b838110156128ec5780820151818401526020810190506128d1565b60008484015250505050565b6000612903826128b2565b61290d81856128bd565b935061291d8185602086016128ce565b6129268161263d565b840191505092915050565b6000604082019050818103600083015261294b81856128f8565b905061295a60208301846127fd565b9392505050565b6000819050919050565b61297481612961565b811461297f57600080fd5b50565b6000813590506129918161296b565b92915050565b600080604083850312156129ae576129ad612629565b5b60006129bc85828601612870565b92505060206129cd85828601612982565b9150509250929050565b600060208201905081810360008301526129f181846128f8565b905092915050565b612a0281612961565b82525050565b6000602082019050612a1d60008301846129f9565b92915050565b60008060408385031215612a3a57612a39612629565b5b6000612a4885828601612870565b925050602083013567ffffffffffffffff811115612a6957612a6861262e565b5b612a758582860161274b565b9150509250929050565b600081519050919050565b600082825260208201905092915050565b6000819050602082019050919050565b600082825260208201905092915050565b6000612ac7826128b2565b612ad18185612aab565b9350612ae18185602086016128ce565b612aea8161263d565b840191505092915050565b612afe81612961565b82525050565b600060a0830160008301518482036000860152612b218282612abc565b91505060208301518482036020860152612b3b8282612abc565b91505060408301518482036040860152612b558282612abc565b91505060608301518482036060860152612b6f8282612abc565b9150506080830151612b846080860182612af5565b508091505092915050565b6000612b9b8383612b04565b905092915050565b6000602082019050919050565b6000612bbb82612a7f565b612bc58185612a8a565b935083602082028501612bd785612a9b565b8060005b85811015612c135784840389528151612bf48582612b8f565b9450612bff83612ba3565b925060208a01995050600181019050612bdb565b50829750879550505050505092915050565b60006020820190508181036000830152612c3f8184612bb0565b905092915050565b600060208284031215612c5d57612c5c612629565b5b600082013567ffffffffffffffff811115612c7b57612c7a61262e565b5b612c878482850161274b565b91505092915050565b60008060008060808587031215612caa57612ca9612629565b5b600085013567ffffffffffffffff811115612cc857612cc761262e565b5b612cd48782880161274b565b945050602085013567ffffffffffffffff811115612cf557612cf461262e565b5b612d018782880161274b565b935050604085013567ffffffffffffffff811115612d2257612d2161262e565b5b612d2e8782880161274b565b925050606085013567ffffffffffffffff811115612d4f57612d4e61262e565b5b612d5b8782880161274b565b91505092959194509250565b612d70816127f1565b82525050565b60006040830160008301518482036000860152612d938282612abc565b9150506020830151612da86020860182612d67565b508091505092915050565b60006020820190508181036000830152612dcd8184612d76565b905092915050565b600081519050919050565b600082825260208201905092915050565b6000819050602082019050919050565b612e0a81612847565b82525050565b6000606083016000830151612e286000860182612e01565b5060208301518482036020860152612e408282612abc565b9150506040830151612e556040860182612af5565b508091505092915050565b6000612e6c8383612e10565b905092915050565b6000602082019050919050565b6000612e8c82612dd5565b612e968185612de0565b935083602082028501612ea885612df1565b8060005b85811015612ee45784840389528151612ec58582612e60565b9450612ed083612e74565b925060208a01995050600181019050612eac565b50829750879550505050505092915050565b60006020820190508181036000830152612f108184612e81565b905092915050565b600080600080600060a08688031215612f3457612f33612629565b5b600086013567ffffffffffffffff811115612f5257612f5161262e565b5b612f5e8882890161274b565b955050602086013567ffffffffffffffff811115612f7f57612f7e61262e565b5b612f8b8882890161274b565b945050604086013567ffffffffffffffff811115612fac57612fab61262e565b5b612fb88882890161274b565b935050606086013567ffffffffffffffff811115612fd957612fd861262e565b5b612fe58882890161274b565b925050608086013567ffffffffffffffff8111156130065761300561262e565b5b6130128882890161274b565b9150509295509295909350565b600060a082019050818103600083015261303981886128f8565b9050818103602083015261304d81876128f8565b9050818103604083015261306181866128f8565b9050818103606083015261307581856128f8565b905061308460808301846129f9565b9695505050505050565b6000819050919050565b6130a18161308e565b81146130ac57600080fd5b50565b6000813590506130be81613098565b92915050565b600080604083850312156130db576130da612629565b5b60006130e985828601612870565b92505060206130fa858286016130af565b9150509250929050565b61310d8161308e565b82525050565b600060a0820190506131286000830188613104565b61313560208301876127fd565b61314260408301866129f9565b61314f60608301856129f9565b61315c60808301846127fd565b9695505050505050565b61316f8161308e565b82525050565b60a08201600082015161318b6000850182613166565b50602082015161319e6020850182612d67565b5060408201516131b16040850182612af5565b5060608201516131c46060850182612af5565b5060808201516131d76080850182612d67565b50505050565b600060a0820190506131f26000830184613175565b92915050565b600081519050919050565b600082825260208201905092915050565b6000819050602082019050919050565b60006132308383612abc565b905092915050565b6000602082019050919050565b6000613250826131f8565b61325a8185613203565b93508360208202850161326c85613214565b8060005b858110156132a857848403895281516132898582613224565b945061329483613238565b925060208a01995050600181019050613270565b50829750879550505050505092915050565b600060208201905081810360008301526132d48184613245565b905092915050565b6000602082840312156132f2576132f1612629565b5b600061330084828501612982565b91505092915050565b61331281612847565b82525050565b600060608201905061332d6000830186613309565b818103602083015261333f81856128f8565b905061334e60408301846129f9565b949350505050565b7f757365725f616c72656164795f65786973747300000000000000000000000000600082015250565b600061338c6013836128bd565b915061339782613356565b602082019050919050565b600060208201905081810360008301526133bb8161337f565b9050919050565b7f4e487b7100000000000000000000000000000000000000000000000000000000600052602160045260246000fd5b7f4e487b7100000000000000000000000000000000000000000000000000000000600052602260045260246000fd5b6000600282049050600182168061343857607f821691505b60208210810361344b5761344a6133f1565b5b50919050565b60008190508160005260206000209050919050565b60006020601f8301049050919050565b600082821b905092915050565b6000600883026134b37fffffffffffffffffffffffffffffffffffffffffffffffffffffffffffffffff82613476565b6134bd8683613476565b95508019841693508086168417925050509392505050565b6000819050919050565b60006134fa6134f56134f084612961565b6134d5565b612961565b9050919050565b6000819050919050565b613514836134df565b61352861352082613501565b848454613483565b825550505050565b600090565b61353d613530565b61354881848461350b565b505050565b5b8181101561356c57613561600082613535565b60018101905061354e565b5050565b601f8211156135b15761358281613451565b61358b84613466565b8101602085101561359a578190505b6135ae6135a685613466565b83018261354d565b50505b505050565b600082821c905092915050565b60006135d4600019846008026135b6565b1980831691505092915050565b60006135ed83836135c3565b9150826002028217905092915050565b613606826128b2565b67ffffffffffffffff81111561361f5761361e61264e565b5b6136298254613420565b613634828285613570565b600060209050601f8311600181146136675760008415613655578287015190505b61365f85826135e1565b8655506136c7565b601f19841661367586613451565b60005b8281101561369d57848901518255600182019150602085019450602081019050613678565b868310156136ba57848901516136b6601f8916826135c3565b8355505b6001600288020188555050505b505050505050565b7f696e76616c69645f746f6b656e00000000000000000000000000000000000000600082015250565b6000613705600d836128bd565b9150613710826136cf565b602082019050919050565b60006020820190508181036000830152613734816136f8565b9050919050565b7f657870697265645f746f6b656e00000000000000000000000000000000000000600082015250565b6000613771600d836128bd565b915061377c8261373b565b602082019050919050565b600060208201905081810360008301526137a081613764565b9050919050565b7f757365725f646f65735f6e6f745f657869737400000000000000000000000000600082015250565b60006137dd6013836128bd565b91506137e8826137a7565b602082019050919050565b6000602082019050818103600083015261380c816137d0565b9050919050565b7f4e487b7100000000000000000000000000000000000000000000000000000000600052601160045260246000fd5b600061384d82612961565b915061385883612961565b92508282019050808211156138705761386f613813565b5b92915050565b7f7265666572656e63655f616c72656164795f6578697374730000000000000000600082015250565b60006138ac6018836128bd565b91506138b782613876565b602082019050919050565b600060208201905081810360008301526138db8161389f565b9050919050565b60006138ed82612961565b915060008203613900576138ff613813565b5b600182039050919050565b600081905092915050565b6000613921826128b2565b61392b818561390b565b935061393b8185602086016128ce565b80840191505092915050565b60006139538284613916565b915081905092915050565b7f4e487b7100000000000000000000000000000000000000000000000000000000600052603260045260246000fd5b600061399882612961565b91507fffffffffffffffffffffffffffffffffffffffffffffffffffffffffffffffff82036139ca576139c9613813565b5b60018201905091905056fea26469706673582212208af12c0c7c8a45a5060e24347fb47bea466ecde458bd476314feb122674d603d64736f6c63430008110033",
  "immutableReferences": {},
  "source": "// SPDX-License-Identifier: GPL-3.0\r\npragma solidity >=0.5.0 <0.9.0;\r\n\r\nimport {StringUtils, ArrayUtils, ByteUtils} from \"../utils/Utilities.sol\";\r\n\r\ncontract References {\r\n    using StringUtils for *;\r\n    using ArrayUtils for *;\r\n    using ByteUtils for *;\r\n\r\n    uint256 public constant UNIX_DAY = 86400;\r\n\r\n    enum AccountType {\r\n        Patient,\r\n        Professional\r\n    }\r\n\r\n    struct Account {\r\n        address id;\r\n        string name;\r\n        uint256 accountType;\r\n    }\r\n\r\n    struct Patient {\r\n        string name;\r\n        bool instanced;\r\n    }\r\n\r\n    struct Professional {\r\n        string name;\r\n        string workplace;\r\n        bool instanced;\r\n    }\r\n\r\n    struct Reference {\r\n        string id;\r\n        string name;\r\n        string from;\r\n        string resourceType;\r\n        uint256 date;\r\n    }\r\n\r\n    struct Token {\r\n        bytes32 token;\r\n        bool valid;\r\n        uint256 validUntil;\r\n        uint256 usesLeft;\r\n        bool instanced;\r\n    }\r\n\r\n    Account[] public accounts;\r\n    mapping(address => Patient) public patients;\r\n    mapping(address => Reference[]) public references;\r\n    mapping(address => string[]) public referenceIds;\r\n\r\n    //token mappings\r\n    mapping(address => mapping(bytes32 => Token)) public tokens;\r\n\r\n    modifier requireInstancedPatient() {\r\n        require(patients[msg.sender].instanced, \"user_does_not_exist\");\r\n        _;\r\n    }\r\n\r\n    constructor() {}\r\n\r\n    function addUser(string memory _id, string memory _name) public returns (bool) {\r\n        // check if user is already present\r\n        require(!patients[msg.sender].instanced, \"user_already_exists\");\r\n\r\n        // register user\r\n        accounts.push(\r\n            Account({\r\n                id: msg.sender,\r\n                name: _name,\r\n                accountType: uint256(AccountType.Patient)\r\n            })\r\n        );\r\n\r\n        patients[msg.sender].name = _name;\r\n        patients[msg.sender].instanced = true;\r\n\r\n        createReference(_id, _name, \"Patient\", \"self\");\r\n\r\n        return true;\r\n    }\r\n\r\n    function getUser() public view returns (Patient memory) {\r\n        return patients[msg.sender];\r\n    }\r\n\r\n    function createReference(\r\n        string memory _id,\r\n        string memory _name,\r\n        string memory _type,\r\n        string memory _from\r\n    ) public requireInstancedPatient returns (bool) {\r\n        // check if a reference with this id is instanced\r\n        require(\r\n            !referenceIds[msg.sender].contains(_id),\r\n            \"reference_already_exists\"\r\n        );\r\n\r\n        if(compareStrings(_type, 'Patient') && patients[msg.sender].instanced){\r\n            return false;\r\n        }\r\n\r\n        //add reference\r\n        referenceIds[msg.sender].push(_id);\r\n\r\n        references[msg.sender].push(\r\n            Reference({\r\n                id: _id,\r\n                name: _name,\r\n                from: _from,\r\n                resourceType: _type,\r\n                date: block.timestamp\r\n            })\r\n        );\r\n\r\n        return true;\r\n    }\r\n\r\n    function listReferenceIds()\r\n        public\r\n        view\r\n        requireInstancedPatient\r\n        returns (string[] memory)\r\n    {\r\n        return referenceIds[msg.sender];\r\n    }\r\n\r\n    function listReferences()\r\n        public\r\n        view\r\n        requireInstancedPatient\r\n        returns (Reference[] memory)\r\n    {\r\n        return references[msg.sender];\r\n    }\r\n\r\n    function listPatients() public view returns (Account[] memory) {\r\n        return accounts;\r\n    }\r\n\r\n    function createToken(string memory _token)\r\n        public\r\n        requireInstancedPatient\r\n        returns (bool)\r\n    {\r\n        bytes32 tokenHash = _token.getHash();\r\n\r\n        tokens[msg.sender][tokenHash] = Token({\r\n            token: tokenHash,\r\n            valid: true,\r\n            validUntil: block.timestamp + UNIX_DAY,\r\n            usesLeft: 1,\r\n            instanced: true\r\n        });\r\n\r\n        return true;\r\n    }\r\n\r\n    function getToken(string memory _tokenString)\r\n        public\r\n        view\r\n        returns (Token memory)\r\n    {\r\n        bytes32 tokenHash = _tokenString.getHash();\r\n        return tokens[msg.sender][tokenHash];\r\n    }\r\n\r\n    function validateToken(address _address, string memory _tokenString)\r\n        public\r\n        view\r\n        returns (bool)\r\n    {\r\n        bytes32 tokenHash = _tokenString.getHash();\r\n\r\n        Token memory token = tokens[_address][tokenHash];\r\n        require(token.instanced && token.valid, \"invalid_token\");\r\n        require(token.validUntil >= block.timestamp, \"expired_token\");\r\n\r\n        return true;\r\n    }\r\n\r\n    function listReferencesThird(address _patient, string memory _tokenString)\r\n        public\r\n        view\r\n        returns (Reference[] memory)\r\n    {\r\n        bytes32 tokenHash = _tokenString.getHash();\r\n\r\n        Token memory token = tokens[_patient][tokenHash];\r\n        require(token.instanced && token.valid, \"invalid_token\");\r\n        require(token.validUntil >= block.timestamp, \"expired_token\");\r\n\r\n        return references[_patient];\r\n    }\r\n\r\n    function createReferenceThird(\r\n        string memory _tokenString,\r\n        string memory _id,\r\n        string memory _name,\r\n        string memory _type,\r\n        string memory _from\r\n    ) public returns (bool) {\r\n        bytes32 tokenHash = _tokenString.getHash();\r\n\r\n        Token memory token = tokens[msg.sender][tokenHash];\r\n        require(token.instanced && token.valid, \"invalid_token\");\r\n        require(token.validUntil >= block.timestamp, \"expired_token\");\r\n\r\n        // check if a reference with this id is instanced\r\n        require(\r\n            !referenceIds[msg.sender].contains(_id),\r\n            \"reference_already_exists\"\r\n        );\r\n\r\n        //add reference\r\n        referenceIds[msg.sender].push(_id);\r\n\r\n        references[msg.sender].push(\r\n            Reference({\r\n                id: _id,\r\n                name: _name,\r\n                from: _from,\r\n                resourceType: _type,\r\n                date: block.timestamp\r\n            })\r\n        );\r\n\r\n        tokens[msg.sender][tokenHash].usesLeft--;\r\n        if (tokens[msg.sender][tokenHash].usesLeft == 0)\r\n            tokens[msg.sender][tokenHash].valid = false;\r\n\r\n        return true;\r\n    }\r\n\r\n    function toAsciiString(address x) internal pure returns (string memory) {\r\n    bytes memory s = new bytes(40);\r\n    for (uint i = 0; i < 20; i++) {\r\n        bytes1 b = bytes1(uint8(uint(uint160(x)) / (2**(8*(19 - i)))));\r\n        bytes1 hi = bytes1(uint8(b) / 16);\r\n        bytes1 lo = bytes1(uint8(b) - 16 * uint8(hi));\r\n        s[2*i] = char(hi);\r\n        s[2*i+1] = char(lo);            \r\n    }\r\n    return string(s);\r\n    }\r\n\r\n    function char(bytes1 b) internal pure returns (bytes1 c) {\r\n        if (uint8(b) < 10) return bytes1(uint8(b) + 0x30);\r\n        else return bytes1(uint8(b) + 0x57);\r\n    }\r\n\r\n    function compareStrings(string memory a, string memory b) public view returns (bool) {\r\n        return (keccak256(abi.encodePacked((a))) == keccak256(abi.encodePacked((b))));\r\n    }\r\n}\r\n",
  "sourcePath": "C:\\Users\\felip\\OneDrive\\rea de Trabalho\\FEI\\TCC\\Projeto Higia\\backend-smartcontracts\\src\\contracts\\references.sol",
  "compiler": {
    "name": "solc",
    "version": "0.8.17+commit.8df45f5f.Emscripten.clang"
  },
  "schemaVersion": "3.4.4",
  "updatedAt": "2022-10-12T21:28:34.343Z",
  "networkType": "ethereum",
  "devdoc": {
    "kind": "dev",
    "methods": {},
    "version": 1
  },
  "userdoc": {
    "kind": "user",
    "methods": {},
    "version": 1
  }
}