{
  "contractName": "References",
  "abi": [
    {
      "inputs": [],
      "stateMutability": "nonpayable",
      "type": "constructor"
    },
    {
      "inputs": [],
      "name": "UNIX_DAY",
      "outputs": [
        {
          "internalType": "uint256",
          "name": "",
          "type": "uint256"
        }
      ],
      "stateMutability": "view",
      "type": "function",
      "constant": true
    },
    {
      "inputs": [
        {
          "internalType": "uint256",
          "name": "",
          "type": "uint256"
        }
      ],
      "name": "accounts",
      "outputs": [
        {
          "internalType": "address",
          "name": "id",
          "type": "address"
        },
        {
          "internalType": "string",
          "name": "name",
          "type": "string"
        },
        {
          "internalType": "uint256",
          "name": "accountType",
          "type": "uint256"
        }
      ],
      "stateMutability": "view",
      "type": "function",
      "constant": true
    },
    {
      "inputs": [
        {
          "internalType": "address",
          "name": "",
          "type": "address"
        }
      ],
      "name": "patients",
      "outputs": [
        {
          "internalType": "string",
          "name": "name",
          "type": "string"
        },
        {
          "internalType": "bool",
          "name": "instanced",
          "type": "bool"
        }
      ],
      "stateMutability": "view",
      "type": "function",
      "constant": true
    },
    {
      "inputs": [
        {
          "internalType": "address",
          "name": "",
          "type": "address"
        },
        {
          "internalType": "uint256",
          "name": "",
          "type": "uint256"
        }
      ],
      "name": "referenceIds",
      "outputs": [
        {
          "internalType": "string",
          "name": "",
          "type": "string"
        }
      ],
      "stateMutability": "view",
      "type": "function",
      "constant": true
    },
    {
      "inputs": [
        {
          "internalType": "address",
          "name": "",
          "type": "address"
        },
        {
          "internalType": "uint256",
          "name": "",
          "type": "uint256"
        }
      ],
      "name": "references",
      "outputs": [
        {
          "internalType": "string",
          "name": "id",
          "type": "string"
        },
        {
          "internalType": "string",
          "name": "name",
          "type": "string"
        },
        {
          "internalType": "string",
          "name": "from",
          "type": "string"
        },
        {
          "internalType": "string",
          "name": "resourceType",
          "type": "string"
        },
        {
          "internalType": "uint256",
          "name": "date",
          "type": "uint256"
        }
      ],
      "stateMutability": "view",
      "type": "function",
      "constant": true
    },
    {
      "inputs": [
        {
          "internalType": "address",
          "name": "",
          "type": "address"
        },
        {
          "internalType": "bytes32",
          "name": "",
          "type": "bytes32"
        }
      ],
      "name": "tokens",
      "outputs": [
        {
          "internalType": "bytes32",
          "name": "token",
          "type": "bytes32"
        },
        {
          "internalType": "bool",
          "name": "valid",
          "type": "bool"
        },
        {
          "internalType": "uint256",
          "name": "validUntil",
          "type": "uint256"
        },
        {
          "internalType": "uint256",
          "name": "usesLeft",
          "type": "uint256"
        },
        {
          "internalType": "bool",
          "name": "instanced",
          "type": "bool"
        }
      ],
      "stateMutability": "view",
      "type": "function",
      "constant": true
    },
    {
      "inputs": [
        {
          "internalType": "string",
          "name": "_name",
          "type": "string"
        }
      ],
      "name": "addUser",
      "outputs": [
        {
          "internalType": "bool",
          "name": "",
          "type": "bool"
        }
      ],
      "stateMutability": "nonpayable",
      "type": "function"
    },
    {
      "inputs": [],
      "name": "getUser",
      "outputs": [
        {
          "components": [
            {
              "internalType": "string",
              "name": "name",
              "type": "string"
            },
            {
              "internalType": "bool",
              "name": "instanced",
              "type": "bool"
            }
          ],
          "internalType": "struct References.Patient",
          "name": "",
          "type": "tuple"
        }
      ],
      "stateMutability": "view",
      "type": "function",
      "constant": true
    },
    {
      "inputs": [
        {
          "internalType": "string",
          "name": "_id",
          "type": "string"
        },
        {
          "internalType": "string",
          "name": "_name",
          "type": "string"
        },
        {
          "internalType": "string",
          "name": "_type",
          "type": "string"
        },
        {
          "internalType": "string",
          "name": "_from",
          "type": "string"
        }
      ],
      "name": "createReference",
      "outputs": [
        {
          "internalType": "bool",
          "name": "",
          "type": "bool"
        }
      ],
      "stateMutability": "nonpayable",
      "type": "function"
    },
    {
      "inputs": [],
      "name": "listReferenceIds",
      "outputs": [
        {
          "internalType": "string[]",
          "name": "",
          "type": "string[]"
        }
      ],
      "stateMutability": "view",
      "type": "function",
      "constant": true
    },
    {
      "inputs": [],
      "name": "listReferences",
      "outputs": [
        {
          "components": [
            {
              "internalType": "string",
              "name": "id",
              "type": "string"
            },
            {
              "internalType": "string",
              "name": "name",
              "type": "string"
            },
            {
              "internalType": "string",
              "name": "from",
              "type": "string"
            },
            {
              "internalType": "string",
              "name": "resourceType",
              "type": "string"
            },
            {
              "internalType": "uint256",
              "name": "date",
              "type": "uint256"
            }
          ],
          "internalType": "struct References.Reference[]",
          "name": "",
          "type": "tuple[]"
        }
      ],
      "stateMutability": "view",
      "type": "function",
      "constant": true
    },
    {
      "inputs": [],
      "name": "listPatients",
      "outputs": [
        {
          "components": [
            {
              "internalType": "address",
              "name": "id",
              "type": "address"
            },
            {
              "internalType": "string",
              "name": "name",
              "type": "string"
            },
            {
              "internalType": "uint256",
              "name": "accountType",
              "type": "uint256"
            }
          ],
          "internalType": "struct References.Account[]",
          "name": "",
          "type": "tuple[]"
        }
      ],
      "stateMutability": "view",
      "type": "function",
      "constant": true
    },
    {
      "inputs": [
        {
          "internalType": "string",
          "name": "_token",
          "type": "string"
        }
      ],
      "name": "createToken",
      "outputs": [
        {
          "internalType": "bool",
          "name": "",
          "type": "bool"
        }
      ],
      "stateMutability": "nonpayable",
      "type": "function"
    },
    {
      "inputs": [
        {
          "internalType": "string",
          "name": "_tokenString",
          "type": "string"
        }
      ],
      "name": "getToken",
      "outputs": [
        {
          "components": [
            {
              "internalType": "bytes32",
              "name": "token",
              "type": "bytes32"
            },
            {
              "internalType": "bool",
              "name": "valid",
              "type": "bool"
            },
            {
              "internalType": "uint256",
              "name": "validUntil",
              "type": "uint256"
            },
            {
              "internalType": "uint256",
              "name": "usesLeft",
              "type": "uint256"
            },
            {
              "internalType": "bool",
              "name": "instanced",
              "type": "bool"
            }
          ],
          "internalType": "struct References.Token",
          "name": "",
          "type": "tuple"
        }
      ],
      "stateMutability": "view",
      "type": "function",
      "constant": true
    },
    {
      "inputs": [
        {
          "internalType": "address",
          "name": "_address",
          "type": "address"
        },
        {
          "internalType": "string",
          "name": "_tokenString",
          "type": "string"
        }
      ],
      "name": "validateToken",
      "outputs": [
        {
          "internalType": "bool",
          "name": "",
          "type": "bool"
        }
      ],
      "stateMutability": "view",
      "type": "function",
      "constant": true
    },
    {
      "inputs": [
        {
          "internalType": "address",
          "name": "_patient",
          "type": "address"
        },
        {
          "internalType": "string",
          "name": "_tokenString",
          "type": "string"
        }
      ],
      "name": "listReferencesThird",
      "outputs": [
        {
          "components": [
            {
              "internalType": "string",
              "name": "id",
              "type": "string"
            },
            {
              "internalType": "string",
              "name": "name",
              "type": "string"
            },
            {
              "internalType": "string",
              "name": "from",
              "type": "string"
            },
            {
              "internalType": "string",
              "name": "resourceType",
              "type": "string"
            },
            {
              "internalType": "uint256",
              "name": "date",
              "type": "uint256"
            }
          ],
          "internalType": "struct References.Reference[]",
          "name": "",
          "type": "tuple[]"
        }
      ],
      "stateMutability": "view",
      "type": "function",
      "constant": true
    },
    {
      "inputs": [
        {
          "internalType": "string",
          "name": "_tokenString",
          "type": "string"
        },
        {
          "internalType": "string",
          "name": "_id",
          "type": "string"
        },
        {
          "internalType": "string",
          "name": "_name",
          "type": "string"
        },
        {
          "internalType": "string",
          "name": "_type",
          "type": "string"
        },
        {
          "internalType": "string",
          "name": "_from",
          "type": "string"
        }
      ],
      "name": "createReferenceThird",
      "outputs": [
        {
          "internalType": "bool",
          "name": "",
          "type": "bool"
        }
      ],
      "stateMutability": "nonpayable",
      "type": "function"
    }
  ],
  "bytecode": "0x608060405234801561001057600080fd5b5061378e806100206000396000f3fe608060405234801561001057600080fd5b506004361061010b5760003560e01c80639d2ff01e116100a2578063c1733f6811610071578063c1733f6814610323578063c212d65f14610353578063c5a2a18e14610371578063f2a40db81461038f578063f91d099c146103c15761010b565b80639d2ff01e1461026d5780639e3ce8761461028b578063a4dec788146102bb578063a9964d1c146102ef5761010b565b80634208adc7116100de5780634208adc7146101bf57806345576f94146101ef578063605027f11461021f578063832880e71461024f5761010b565b80630869cfbc14610110578063138a5e8114610141578063177cf2181461017157806318b8275a1461018f575b600080fd5b61012a600480360381019061012591906124df565b6103f1565b6040516101389291906125b7565b60405180910390f35b61015b6004803603810190610156919061261d565b6104aa565b604051610168919061265d565b60405180910390f35b610179610563565b604051610186919061268e565b60405180910390f35b6101a960048036038101906101a491906127de565b61056a565b6040516101b69190612827565b60405180910390f35b6101d960048036038101906101d49190612842565b610787565b6040516101e69190612a44565b60405180910390f35b610209600480360381019061020491906127de565b610bd2565b6040516102169190612827565b60405180910390f35b61023960048036038101906102349190612a66565b610d67565b6040516102469190612827565b60405180910390f35b6102576110ca565b6040516102649190612b89565b60405180910390f35b6102756111ce565b6040516102829190612ccc565b60405180910390f35b6102a560048036038101906102a09190612cee565b61131f565b6040516102b29190612827565b60405180910390f35b6102d560048036038101906102d0919061261d565b61187e565b6040516102e6959493929190612df5565b60405180910390f35b61030960048036038101906103049190612e9a565b611af1565b60405161031a959493929190612ee9565b60405180910390f35b61033d600480360381019061033891906127de565b611b4e565b60405161034a9190612fb3565b60405180910390f35b61035b611c1a565b6040516103689190612a44565b60405180910390f35b610379611f97565b6040516103869190613090565b60405180910390f35b6103a960048036038101906103a491906130b2565b61213c565b6040516103b8939291906130ee565b60405180910390f35b6103db60048036038101906103d69190612842565b61221e565b6040516103e89190612827565b60405180910390f35b60016020528060005260406000206000915090508060000180546104149061315b565b80601f01602080910402602001604051908101604052809291908181526020018280546104409061315b565b801561048d5780601f106104625761010080835404028352916020019161048d565b820191906000526020600020905b81548152906001019060200180831161047057829003601f168201915b5050505050908060010160009054906101000a900460ff16905082565b600360205281600052604060002081815481106104c657600080fd5b906000526020600020016000915091505080546104e29061315b565b80601f016020809104026020016040519081016040528092919081815260200182805461050e9061315b565b801561055b5780601f106105305761010080835404028352916020019161055b565b820191906000526020600020905b81548152906001019060200180831161053e57829003601f168201915b505050505081565b6201518081565b6000600160003373ffffffffffffffffffffffffffffffffffffffff1673ffffffffffffffffffffffffffffffffffffffff16815260200190815260200160002060010160009054906101000a900460ff16156105fc576040517f08c379a00000000000000000000000000000000000000000000000000000000081526004016105f3906131d8565b60405180910390fd5b600060405180606001604052803373ffffffffffffffffffffffffffffffffffffffff1681526020018481526020016000600181111561063f5761063e6131f8565b5b815250908060018154018082558091505060019003906000526020600020906003020160009091909190915060008201518160000160006101000a81548173ffffffffffffffffffffffffffffffffffffffff021916908373ffffffffffffffffffffffffffffffffffffffff16021790555060208201518160010190816106c791906133d3565b5060408201518160020155505081600160003373ffffffffffffffffffffffffffffffffffffffff1673ffffffffffffffffffffffffffffffffffffffff168152602001908152602001600020600001908161072391906133d3565b5060018060003373ffffffffffffffffffffffffffffffffffffffff1673ffffffffffffffffffffffffffffffffffffffff16815260200190815260200160002060010160006101000a81548160ff02191690831515021790555060019050919050565b6060600061079483612383565b90506000600460008673ffffffffffffffffffffffffffffffffffffffff1673ffffffffffffffffffffffffffffffffffffffff16815260200190815260200160002060008381526020019081526020016000206040518060a0016040529081600082015481526020016001820160009054906101000a900460ff1615151515815260200160028201548152602001600382015481526020016004820160009054906101000a900460ff16151515158152505090508060800151801561085b575080602001515b61089a576040517f08c379a0000000000000000000000000000000000000000000000000000000008152600401610891906134f1565b60405180910390fd5b42816040015110156108e1576040517f08c379a00000000000000000000000000000000000000000000000000000000081526004016108d89061355d565b60405180910390fd5b600260008673ffffffffffffffffffffffffffffffffffffffff1673ffffffffffffffffffffffffffffffffffffffff168152602001908152602001600020805480602002602001604051908101604052809291908181526020016000905b82821015610bc457838290600052602060002090600502016040518060a00160405290816000820180546109739061315b565b80601f016020809104026020016040519081016040528092919081815260200182805461099f9061315b565b80156109ec5780601f106109c1576101008083540402835291602001916109ec565b820191906000526020600020905b8154815290600101906020018083116109cf57829003601f168201915b50505050508152602001600182018054610a059061315b565b80601f0160208091040260200160405190810160405280929190818152602001828054610a319061315b565b8015610a7e5780601f10610a5357610100808354040283529160200191610a7e565b820191906000526020600020905b815481529060010190602001808311610a6157829003601f168201915b50505050508152602001600282018054610a979061315b565b80601f0160208091040260200160405190810160405280929190818152602001828054610ac39061315b565b8015610b105780601f10610ae557610100808354040283529160200191610b10565b820191906000526020600020905b815481529060010190602001808311610af357829003601f168201915b50505050508152602001600382018054610b299061315b565b80601f0160208091040260200160405190810160405280929190818152602001828054610b559061315b565b8015610ba25780601f10610b7757610100808354040283529160200191610ba2565b820191906000526020600020905b815481529060010190602001808311610b8557829003601f168201915b5050505050815260200160048201548152505081526020019060010190610940565b505050509250505092915050565b6000600160003373ffffffffffffffffffffffffffffffffffffffff1673ffffffffffffffffffffffffffffffffffffffff16815260200190815260200160002060010160009054906101000a900460ff16610c63576040517f08c379a0000000000000000000000000000000000000000000000000000000008152600401610c5a906135c9565b60405180910390fd5b6000610c6e83612383565b90506040518060a001604052808281526020016001151581526020016201518042610c999190613618565b81526020016001815260200160011515815250600460003373ffffffffffffffffffffffffffffffffffffffff1673ffffffffffffffffffffffffffffffffffffffff16815260200190815260200160002060008381526020019081526020016000206000820151816000015560208201518160010160006101000a81548160ff021916908315150217905550604082015181600201556060820151816003015560808201518160040160006101000a81548160ff0219169083151502179055509050506001915050919050565b6000600160003373ffffffffffffffffffffffffffffffffffffffff1673ffffffffffffffffffffffffffffffffffffffff16815260200190815260200160002060010160009054906101000a900460ff16610df8576040517f08c379a0000000000000000000000000000000000000000000000000000000008152600401610def906135c9565b60405180910390fd5b610f1985600360003373ffffffffffffffffffffffffffffffffffffffff1673ffffffffffffffffffffffffffffffffffffffff168152602001908152602001600020805480602002602001604051908101604052809291908181526020016000905b82821015610f07578382906000526020600020018054610e7a9061315b565b80601f0160208091040260200160405190810160405280929190818152602001828054610ea69061315b565b8015610ef35780601f10610ec857610100808354040283529160200191610ef3565b820191906000526020600020905b815481529060010190602001808311610ed657829003601f168201915b505050505081526020019060010190610e5b565b5050505061239490919063ffffffff16565b15610f59576040517f08c379a0000000000000000000000000000000000000000000000000000000008152600401610f5090613698565b60405180910390fd5b600360003373ffffffffffffffffffffffffffffffffffffffff1673ffffffffffffffffffffffffffffffffffffffff16815260200190815260200160002085908060018154018082558091505060019003906000526020600020016000909190919091509081610fca91906133d3565b50600260003373ffffffffffffffffffffffffffffffffffffffff1673ffffffffffffffffffffffffffffffffffffffff1681526020019081526020016000206040518060a00160405280878152602001868152602001848152602001858152602001428152509080600181540180825580915050600190039060005260206000209060050201600090919091909150600082015181600001908161106f91906133d3565b50602082015181600101908161108591906133d3565b50604082015181600201908161109b91906133d3565b5060608201518160030190816110b191906133d3565b5060808201518160040155505060019050949350505050565b6110d261241b565b600160003373ffffffffffffffffffffffffffffffffffffffff1673ffffffffffffffffffffffffffffffffffffffff16815260200190815260200160002060405180604001604052908160008201805461112c9061315b565b80601f01602080910402602001604051908101604052809291908181526020018280546111589061315b565b80156111a55780601f1061117a576101008083540402835291602001916111a5565b820191906000526020600020905b81548152906001019060200180831161118857829003601f168201915b505050505081526020016001820160009054906101000a900460ff161515151581525050905090565b60606000805480602002602001604051908101604052809291908181526020016000905b8282101561131657838290600052602060002090600302016040518060600160405290816000820160009054906101000a900473ffffffffffffffffffffffffffffffffffffffff1673ffffffffffffffffffffffffffffffffffffffff1673ffffffffffffffffffffffffffffffffffffffff16815260200160018201805461127b9061315b565b80601f01602080910402602001604051908101604052809291908181526020018280546112a79061315b565b80156112f45780601f106112c9576101008083540402835291602001916112f4565b820191906000526020600020905b8154815290600101906020018083116112d757829003601f168201915b50505050508152602001600282015481525050815260200190600101906111f2565b50505050905090565b60008061132b87612383565b90506000600460003373ffffffffffffffffffffffffffffffffffffffff1673ffffffffffffffffffffffffffffffffffffffff16815260200190815260200160002060008381526020019081526020016000206040518060a0016040529081600082015481526020016001820160009054906101000a900460ff1615151515815260200160028201548152602001600382015481526020016004820160009054906101000a900460ff1615151515815250509050806080015180156113f2575080602001515b611431576040517f08c379a0000000000000000000000000000000000000000000000000000000008152600401611428906134f1565b60405180910390fd5b4281604001511015611478576040517f08c379a000000000000000000000000000000000000000000000000000000000815260040161146f9061355d565b60405180910390fd5b61159987600360003373ffffffffffffffffffffffffffffffffffffffff1673ffffffffffffffffffffffffffffffffffffffff168152602001908152602001600020805480602002602001604051908101604052809291908181526020016000905b828210156115875783829060005260206000200180546114fa9061315b565b80601f01602080910402602001604051908101604052809291908181526020018280546115269061315b565b80156115735780601f1061154857610100808354040283529160200191611573565b820191906000526020600020905b81548152906001019060200180831161155657829003601f168201915b5050505050815260200190600101906114db565b5050505061239490919063ffffffff16565b156115d9576040517f08c379a00000000000000000000000000000000000000000000000000000000081526004016115d090613698565b60405180910390fd5b600360003373ffffffffffffffffffffffffffffffffffffffff1673ffffffffffffffffffffffffffffffffffffffff1681526020019081526020016000208790806001815401808255809150506001900390600052602060002001600090919091909150908161164a91906133d3565b50600260003373ffffffffffffffffffffffffffffffffffffffff1673ffffffffffffffffffffffffffffffffffffffff1681526020019081526020016000206040518060a0016040528089815260200188815260200186815260200187815260200142815250908060018154018082558091505060019003906000526020600020906005020160009091909190915060008201518160000190816116ef91906133d3565b50602082015181600101908161170591906133d3565b50604082015181600201908161171b91906133d3565b50606082015181600301908161173191906133d3565b50608082015181600401555050600460003373ffffffffffffffffffffffffffffffffffffffff1673ffffffffffffffffffffffffffffffffffffffff168152602001908152602001600020600083815260200190815260200160002060030160008154809291906117a2906136b8565b91905055506000600460003373ffffffffffffffffffffffffffffffffffffffff1673ffffffffffffffffffffffffffffffffffffffff1681526020019081526020016000206000848152602001908152602001600020600301540361186f576000600460003373ffffffffffffffffffffffffffffffffffffffff1673ffffffffffffffffffffffffffffffffffffffff168152602001908152602001600020600084815260200190815260200160002060010160006101000a81548160ff0219169083151502179055505b60019250505095945050505050565b6002602052816000526040600020818154811061189a57600080fd5b9060005260206000209060050201600091509150508060000180546118be9061315b565b80601f01602080910402602001604051908101604052809291908181526020018280546118ea9061315b565b80156119375780601f1061190c57610100808354040283529160200191611937565b820191906000526020600020905b81548152906001019060200180831161191a57829003601f168201915b50505050509080600101805461194c9061315b565b80601f01602080910402602001604051908101604052809291908181526020018280546119789061315b565b80156119c55780601f1061199a576101008083540402835291602001916119c5565b820191906000526020600020905b8154815290600101906020018083116119a857829003601f168201915b5050505050908060020180546119da9061315b565b80601f0160208091040260200160405190810160405280929190818152602001828054611a069061315b565b8015611a535780601f10611a2857610100808354040283529160200191611a53565b820191906000526020600020905b815481529060010190602001808311611a3657829003601f168201915b505050505090806003018054611a689061315b565b80601f0160208091040260200160405190810160405280929190818152602001828054611a949061315b565b8015611ae15780601f10611ab657610100808354040283529160200191611ae1565b820191906000526020600020905b815481529060010190602001808311611ac457829003601f168201915b5050505050908060040154905085565b6004602052816000526040600020602052806000526040600020600091509150508060000154908060010160009054906101000a900460ff16908060020154908060030154908060040160009054906101000a900460ff16905085565b611b56612437565b6000611b6183612383565b9050600460003373ffffffffffffffffffffffffffffffffffffffff1673ffffffffffffffffffffffffffffffffffffffff16815260200190815260200160002060008281526020019081526020016000206040518060a0016040529081600082015481526020016001820160009054906101000a900460ff1615151515815260200160028201548152602001600382015481526020016004820160009054906101000a900460ff161515151581525050915050919050565b6060600160003373ffffffffffffffffffffffffffffffffffffffff1673ffffffffffffffffffffffffffffffffffffffff16815260200190815260200160002060010160009054906101000a900460ff16611cab576040517f08c379a0000000000000000000000000000000000000000000000000000000008152600401611ca2906135c9565b60405180910390fd5b600260003373ffffffffffffffffffffffffffffffffffffffff1673ffffffffffffffffffffffffffffffffffffffff168152602001908152602001600020805480602002602001604051908101604052809291908181526020016000905b82821015611f8e57838290600052602060002090600502016040518060a0016040529081600082018054611d3d9061315b565b80601f0160208091040260200160405190810160405280929190818152602001828054611d699061315b565b8015611db65780601f10611d8b57610100808354040283529160200191611db6565b820191906000526020600020905b815481529060010190602001808311611d9957829003601f168201915b50505050508152602001600182018054611dcf9061315b565b80601f0160208091040260200160405190810160405280929190818152602001828054611dfb9061315b565b8015611e485780601f10611e1d57610100808354040283529160200191611e48565b820191906000526020600020905b815481529060010190602001808311611e2b57829003601f168201915b50505050508152602001600282018054611e619061315b565b80601f0160208091040260200160405190810160405280929190818152602001828054611e8d9061315b565b8015611eda5780601f10611eaf57610100808354040283529160200191611eda565b820191906000526020600020905b815481529060010190602001808311611ebd57829003601f168201915b50505050508152602001600382018054611ef39061315b565b80601f0160208091040260200160405190810160405280929190818152602001828054611f1f9061315b565b8015611f6c5780601f10611f4157610100808354040283529160200191611f6c565b820191906000526020600020905b815481529060010190602001808311611f4f57829003601f168201915b5050505050815260200160048201548152505081526020019060010190611d0a565b50505050905090565b6060600160003373ffffffffffffffffffffffffffffffffffffffff1673ffffffffffffffffffffffffffffffffffffffff16815260200190815260200160002060010160009054906101000a900460ff16612028576040517f08c379a000000000000000000000000000000000000000000000000000000000815260040161201f906135c9565b60405180910390fd5b600360003373ffffffffffffffffffffffffffffffffffffffff1673ffffffffffffffffffffffffffffffffffffffff168152602001908152602001600020805480602002602001604051908101604052809291908181526020016000905b828210156121335783829060005260206000200180546120a69061315b565b80601f01602080910402602001604051908101604052809291908181526020018280546120d29061315b565b801561211f5780601f106120f45761010080835404028352916020019161211f565b820191906000526020600020905b81548152906001019060200180831161210257829003601f168201915b505050505081526020019060010190612087565b50505050905090565b6000818154811061214c57600080fd5b90600052602060002090600302016000915090508060000160009054906101000a900473ffffffffffffffffffffffffffffffffffffffff16908060010180546121959061315b565b80601f01602080910402602001604051908101604052809291908181526020018280546121c19061315b565b801561220e5780601f106121e35761010080835404028352916020019161220e565b820191906000526020600020905b8154815290600101906020018083116121f157829003601f168201915b5050505050908060020154905083565b60008061222a83612383565b90506000600460008673ffffffffffffffffffffffffffffffffffffffff1673ffffffffffffffffffffffffffffffffffffffff16815260200190815260200160002060008381526020019081526020016000206040518060a0016040529081600082015481526020016001820160009054906101000a900460ff1615151515815260200160028201548152602001600382015481526020016004820160009054906101000a900460ff1615151515815250509050806080015180156122f1575080602001515b612330576040517f08c379a0000000000000000000000000000000000000000000000000000000008152600401612327906134f1565b60405180910390fd5b4281604001511015612377576040517f08c379a000000000000000000000000000000000000000000000000000000000815260040161236e9061355d565b60405180910390fd5b60019250505092915050565b600081805190602001209050919050565b600080600090505b83518110156123f4576123d2838583815181106123bc576123bb6136e1565b5b602002602001015161240090919063ffffffff16565b156123e15760019150506123fa565b80806123ec90613710565b91505061239c565b50600090505b92915050565b60008180519060200120838051906020012014905092915050565b6040518060400160405280606081526020016000151581525090565b6040518060a001604052806000801916815260200160001515815260200160008152602001600081526020016000151581525090565b6000604051905090565b600080fd5b600080fd5b600073ffffffffffffffffffffffffffffffffffffffff82169050919050565b60006124ac82612481565b9050919050565b6124bc816124a1565b81146124c757600080fd5b50565b6000813590506124d9816124b3565b92915050565b6000602082840312156124f5576124f4612477565b5b6000612503848285016124ca565b91505092915050565b600081519050919050565b600082825260208201905092915050565b60005b8381101561254657808201518184015260208101905061252b565b60008484015250505050565b6000601f19601f8301169050919050565b600061256e8261250c565b6125788185612517565b9350612588818560208601612528565b61259181612552565b840191505092915050565b60008115159050919050565b6125b18161259c565b82525050565b600060408201905081810360008301526125d18185612563565b90506125e060208301846125a8565b9392505050565b6000819050919050565b6125fa816125e7565b811461260557600080fd5b50565b600081359050612617816125f1565b92915050565b6000806040838503121561263457612633612477565b5b6000612642858286016124ca565b925050602061265385828601612608565b9150509250929050565b600060208201905081810360008301526126778184612563565b905092915050565b612688816125e7565b82525050565b60006020820190506126a3600083018461267f565b92915050565b600080fd5b600080fd5b7f4e487b7100000000000000000000000000000000000000000000000000000000600052604160045260246000fd5b6126eb82612552565b810181811067ffffffffffffffff8211171561270a576127096126b3565b5b80604052505050565b600061271d61246d565b905061272982826126e2565b919050565b600067ffffffffffffffff821115612749576127486126b3565b5b61275282612552565b9050602081019050919050565b82818337600083830152505050565b600061278161277c8461272e565b612713565b90508281526020810184848401111561279d5761279c6126ae565b5b6127a884828561275f565b509392505050565b600082601f8301126127c5576127c46126a9565b5b81356127d584826020860161276e565b91505092915050565b6000602082840312156127f4576127f3612477565b5b600082013567ffffffffffffffff8111156128125761281161247c565b5b61281e848285016127b0565b91505092915050565b600060208201905061283c60008301846125a8565b92915050565b6000806040838503121561285957612858612477565b5b6000612867858286016124ca565b925050602083013567ffffffffffffffff8111156128885761288761247c565b5b612894858286016127b0565b9150509250929050565b600081519050919050565b600082825260208201905092915050565b6000819050602082019050919050565b600082825260208201905092915050565b60006128e68261250c565b6128f081856128ca565b9350612900818560208601612528565b61290981612552565b840191505092915050565b61291d816125e7565b82525050565b600060a083016000830151848203600086015261294082826128db565b9150506020830151848203602086015261295a82826128db565b9150506040830151848203604086015261297482826128db565b9150506060830151848203606086015261298e82826128db565b91505060808301516129a36080860182612914565b508091505092915050565b60006129ba8383612923565b905092915050565b6000602082019050919050565b60006129da8261289e565b6129e481856128a9565b9350836020820285016129f6856128ba565b8060005b85811015612a325784840389528151612a1385826129ae565b9450612a1e836129c2565b925060208a019950506001810190506129fa565b50829750879550505050505092915050565b60006020820190508181036000830152612a5e81846129cf565b905092915050565b60008060008060808587031215612a8057612a7f612477565b5b600085013567ffffffffffffffff811115612a9e57612a9d61247c565b5b612aaa878288016127b0565b945050602085013567ffffffffffffffff811115612acb57612aca61247c565b5b612ad7878288016127b0565b935050604085013567ffffffffffffffff811115612af857612af761247c565b5b612b04878288016127b0565b925050606085013567ffffffffffffffff811115612b2557612b2461247c565b5b612b31878288016127b0565b91505092959194509250565b612b468161259c565b82525050565b60006040830160008301518482036000860152612b6982826128db565b9150506020830151612b7e6020860182612b3d565b508091505092915050565b60006020820190508181036000830152612ba38184612b4c565b905092915050565b600081519050919050565b600082825260208201905092915050565b6000819050602082019050919050565b612be0816124a1565b82525050565b6000606083016000830151612bfe6000860182612bd7565b5060208301518482036020860152612c1682826128db565b9150506040830151612c2b6040860182612914565b508091505092915050565b6000612c428383612be6565b905092915050565b6000602082019050919050565b6000612c6282612bab565b612c6c8185612bb6565b935083602082028501612c7e85612bc7565b8060005b85811015612cba5784840389528151612c9b8582612c36565b9450612ca683612c4a565b925060208a01995050600181019050612c82565b50829750879550505050505092915050565b60006020820190508181036000830152612ce68184612c57565b905092915050565b600080600080600060a08688031215612d0a57612d09612477565b5b600086013567ffffffffffffffff811115612d2857612d2761247c565b5b612d34888289016127b0565b955050602086013567ffffffffffffffff811115612d5557612d5461247c565b5b612d61888289016127b0565b945050604086013567ffffffffffffffff811115612d8257612d8161247c565b5b612d8e888289016127b0565b935050606086013567ffffffffffffffff811115612daf57612dae61247c565b5b612dbb888289016127b0565b925050608086013567ffffffffffffffff811115612ddc57612ddb61247c565b5b612de8888289016127b0565b9150509295509295909350565b600060a0820190508181036000830152612e0f8188612563565b90508181036020830152612e238187612563565b90508181036040830152612e378186612563565b90508181036060830152612e4b8185612563565b9050612e5a608083018461267f565b9695505050505050565b6000819050919050565b612e7781612e64565b8114612e8257600080fd5b50565b600081359050612e9481612e6e565b92915050565b60008060408385031215612eb157612eb0612477565b5b6000612ebf858286016124ca565b9250506020612ed085828601612e85565b9150509250929050565b612ee381612e64565b82525050565b600060a082019050612efe6000830188612eda565b612f0b60208301876125a8565b612f18604083018661267f565b612f25606083018561267f565b612f3260808301846125a8565b9695505050505050565b612f4581612e64565b82525050565b60a082016000820151612f616000850182612f3c565b506020820151612f746020850182612b3d565b506040820151612f876040850182612914565b506060820151612f9a6060850182612914565b506080820151612fad6080850182612b3d565b50505050565b600060a082019050612fc86000830184612f4b565b92915050565b600081519050919050565b600082825260208201905092915050565b6000819050602082019050919050565b600061300683836128db565b905092915050565b6000602082019050919050565b600061302682612fce565b6130308185612fd9565b93508360208202850161304285612fea565b8060005b8581101561307e578484038952815161305f8582612ffa565b945061306a8361300e565b925060208a01995050600181019050613046565b50829750879550505050505092915050565b600060208201905081810360008301526130aa818461301b565b905092915050565b6000602082840312156130c8576130c7612477565b5b60006130d684828501612608565b91505092915050565b6130e8816124a1565b82525050565b600060608201905061310360008301866130df565b81810360208301526131158185612563565b9050613124604083018461267f565b949350505050565b7f4e487b7100000000000000000000000000000000000000000000000000000000600052602260045260246000fd5b6000600282049050600182168061317357607f821691505b6020821081036131865761318561312c565b5b50919050565b7f757365725f616c72656164795f65786973747300000000000000000000000000600082015250565b60006131c2601383612517565b91506131cd8261318c565b602082019050919050565b600060208201905081810360008301526131f1816131b5565b9050919050565b7f4e487b7100000000000000000000000000000000000000000000000000000000600052602160045260246000fd5b60008190508160005260206000209050919050565b60006020601f8301049050919050565b600082821b905092915050565b6000600883026132897fffffffffffffffffffffffffffffffffffffffffffffffffffffffffffffffff8261324c565b613293868361324c565b95508019841693508086168417925050509392505050565b6000819050919050565b60006132d06132cb6132c6846125e7565b6132ab565b6125e7565b9050919050565b6000819050919050565b6132ea836132b5565b6132fe6132f6826132d7565b848454613259565b825550505050565b600090565b613313613306565b61331e8184846132e1565b505050565b5b818110156133425761333760008261330b565b600181019050613324565b5050565b601f8211156133875761335881613227565b6133618461323c565b81016020851015613370578190505b61338461337c8561323c565b830182613323565b50505b505050565b600082821c905092915050565b60006133aa6000198460080261338c565b1980831691505092915050565b60006133c38383613399565b9150826002028217905092915050565b6133dc8261250c565b67ffffffffffffffff8111156133f5576133f46126b3565b5b6133ff825461315b565b61340a828285613346565b600060209050601f83116001811461343d576000841561342b578287015190505b61343585826133b7565b86555061349d565b601f19841661344b86613227565b60005b828110156134735784890151825560018201915060208501945060208101905061344e565b86831015613490578489015161348c601f891682613399565b8355505b6001600288020188555050505b505050505050565b7f696e76616c69645f746f6b656e00000000000000000000000000000000000000600082015250565b60006134db600d83612517565b91506134e6826134a5565b602082019050919050565b6000602082019050818103600083015261350a816134ce565b9050919050565b7f657870697265645f746f6b656e00000000000000000000000000000000000000600082015250565b6000613547600d83612517565b915061355282613511565b602082019050919050565b600060208201905081810360008301526135768161353a565b9050919050565b7f757365725f646f65735f6e6f745f657869737400000000000000000000000000600082015250565b60006135b3601383612517565b91506135be8261357d565b602082019050919050565b600060208201905081810360008301526135e2816135a6565b9050919050565b7f4e487b7100000000000000000000000000000000000000000000000000000000600052601160045260246000fd5b6000613623826125e7565b915061362e836125e7565b9250828201905080821115613646576136456135e9565b5b92915050565b7f7265666572656e63655f616c72656164795f6578697374730000000000000000600082015250565b6000613682601883612517565b915061368d8261364c565b602082019050919050565b600060208201905081810360008301526136b181613675565b9050919050565b60006136c3826125e7565b9150600082036136d6576136d56135e9565b5b600182039050919050565b7f4e487b7100000000000000000000000000000000000000000000000000000000600052603260045260246000fd5b600061371b826125e7565b91507fffffffffffffffffffffffffffffffffffffffffffffffffffffffffffffffff820361374d5761374c6135e9565b5b60018201905091905056fea26469706673582212205c5a31abb6aaf379f648df1c73da6c477b4671d2cdbdfacf2d8354378692b22d64736f6c63430008110033",
  "immutableReferences": {},
  "source": "// SPDX-License-Identifier: GPL-3.0\r\npragma solidity >=0.5.0 <0.9.0;\r\n\r\nimport {StringUtils, ArrayUtils, ByteUtils} from \"../utils/Utilities.sol\";\r\n\r\ncontract References {\r\n    using StringUtils for *;\r\n    using ArrayUtils for *;\r\n    using ByteUtils for *;\r\n\r\n    uint256 public constant UNIX_DAY = 86400;\r\n\r\n    enum AccountType {\r\n        Patient,\r\n        Professional\r\n    }\r\n\r\n    struct Account {\r\n        address id;\r\n        string name;\r\n        uint256 accountType;\r\n    }\r\n\r\n    struct Patient {\r\n        string name;\r\n        bool instanced;\r\n    }\r\n\r\n    struct Professional {\r\n        string name;\r\n        string workplace;\r\n        bool instanced;\r\n    }\r\n\r\n    struct Reference {\r\n        string id;\r\n        string name;\r\n        string from;\r\n        string resourceType;\r\n        uint256 date;\r\n    }\r\n\r\n    struct Token {\r\n        bytes32 token;\r\n        bool valid;\r\n        uint256 validUntil;\r\n        uint256 usesLeft;\r\n        bool instanced;\r\n    }\r\n\r\n    Account[] public accounts;\r\n    mapping(address => Patient) public patients;\r\n    mapping(address => Reference[]) public references;\r\n    mapping(address => string[]) public referenceIds;\r\n\r\n    //token mappings\r\n    mapping(address => mapping(bytes32 => Token)) public tokens;\r\n\r\n    modifier requireInstancedPatient() {\r\n        require(patients[msg.sender].instanced, \"user_does_not_exist\");\r\n        _;\r\n    }\r\n\r\n    constructor() {}\r\n\r\n    function addUser(string memory _name) public returns (bool) {\r\n        // check if user is already present\r\n        require(!patients[msg.sender].instanced, \"user_already_exists\");\r\n\r\n        // register user\r\n        accounts.push(\r\n            Account({\r\n                id: msg.sender,\r\n                name: _name,\r\n                accountType: uint256(AccountType.Patient)\r\n            })\r\n        );\r\n\r\n        patients[msg.sender].name = _name;\r\n        patients[msg.sender].instanced = true;\r\n        return true;\r\n    }\r\n\r\n    function getUser() public view returns (Patient memory) {\r\n        return patients[msg.sender];\r\n    }\r\n\r\n    function createReference(\r\n        string memory _id,\r\n        string memory _name,\r\n        string memory _type,\r\n        string memory _from\r\n    ) public requireInstancedPatient returns (bool) {\r\n        // check if a reference with this id is instanced\r\n        require(\r\n            !referenceIds[msg.sender].contains(_id),\r\n            \"reference_already_exists\"\r\n        );\r\n\r\n        //add reference\r\n        referenceIds[msg.sender].push(_id);\r\n\r\n        references[msg.sender].push(\r\n            Reference({\r\n                id: _id,\r\n                name: _name,\r\n                from: _from,\r\n                resourceType: _type,\r\n                date: block.timestamp\r\n            })\r\n        );\r\n\r\n        return true;\r\n    }\r\n\r\n    function listReferenceIds()\r\n        public\r\n        view\r\n        requireInstancedPatient\r\n        returns (string[] memory)\r\n    {\r\n        return referenceIds[msg.sender];\r\n    }\r\n\r\n    function listReferences()\r\n        public\r\n        view\r\n        requireInstancedPatient\r\n        returns (Reference[] memory)\r\n    {\r\n        return references[msg.sender];\r\n    }\r\n\r\n    function listPatients() public view returns (Account[] memory) {\r\n        return accounts;\r\n    }\r\n\r\n    function createToken(string memory _token)\r\n        public\r\n        requireInstancedPatient\r\n        returns (bool)\r\n    {\r\n        bytes32 tokenHash = _token.getHash();\r\n\r\n        tokens[msg.sender][tokenHash] = Token({\r\n            token: tokenHash,\r\n            valid: true,\r\n            validUntil: block.timestamp + UNIX_DAY,\r\n            usesLeft: 1,\r\n            instanced: true\r\n        });\r\n\r\n        return true;\r\n    }\r\n\r\n    function getToken(string memory _tokenString)\r\n        public\r\n        view\r\n        returns (Token memory)\r\n    {\r\n        bytes32 tokenHash = _tokenString.getHash();\r\n        return tokens[msg.sender][tokenHash];\r\n    }\r\n\r\n    function validateToken(address _address, string memory _tokenString)\r\n        public\r\n        view\r\n        returns (bool)\r\n    {\r\n        bytes32 tokenHash = _tokenString.getHash();\r\n\r\n        Token memory token = tokens[_address][tokenHash];\r\n        require(token.instanced && token.valid, \"invalid_token\");\r\n        require(token.validUntil >= block.timestamp, \"expired_token\");\r\n\r\n        return true;\r\n    }\r\n\r\n    function listReferencesThird(address _patient, string memory _tokenString)\r\n        public\r\n        view\r\n        returns (Reference[] memory)\r\n    {\r\n        bytes32 tokenHash = _tokenString.getHash();\r\n\r\n        Token memory token = tokens[_patient][tokenHash];\r\n        require(token.instanced && token.valid, \"invalid_token\");\r\n        require(token.validUntil >= block.timestamp, \"expired_token\");\r\n\r\n        return references[_patient];\r\n    }\r\n\r\n    function createReferenceThird(\r\n        string memory _tokenString,\r\n        string memory _id,\r\n        string memory _name,\r\n        string memory _type,\r\n        string memory _from\r\n    ) public returns (bool) {\r\n        bytes32 tokenHash = _tokenString.getHash();\r\n\r\n        Token memory token = tokens[msg.sender][tokenHash];\r\n        require(token.instanced && token.valid, \"invalid_token\");\r\n        require(token.validUntil >= block.timestamp, \"expired_token\");\r\n\r\n        // check if a reference with this id is instanced\r\n        require(\r\n            !referenceIds[msg.sender].contains(_id),\r\n            \"reference_already_exists\"\r\n        );\r\n\r\n        //add reference\r\n        referenceIds[msg.sender].push(_id);\r\n\r\n        references[msg.sender].push(\r\n            Reference({\r\n                id: _id,\r\n                name: _name,\r\n                from: _from,\r\n                resourceType: _type,\r\n                date: block.timestamp\r\n            })\r\n        );\r\n\r\n        tokens[msg.sender][tokenHash].usesLeft--;\r\n        if (tokens[msg.sender][tokenHash].usesLeft == 0)\r\n            tokens[msg.sender][tokenHash].valid = false;\r\n\r\n        return true;\r\n    }\r\n}\r\n",
  "sourcePath": "D:\\.higia\\backend-smartcontracts\\src\\contracts\\references.sol",
  "compiler": {
    "name": "solc",
    "version": "0.8.17+commit.8df45f5f.Emscripten.clang"
  },
  "schemaVersion": "3.4.9",
  "updatedAt": "2022-10-02T19:24:46.861Z",
  "networkType": "ethereum",
  "devdoc": {
    "kind": "dev",
    "methods": {},
    "version": 1
  },
  "userdoc": {
    "kind": "user",
    "methods": {},
    "version": 1
  }
}