{
  "contractName": "References",
  "abi": [
    {
      "inputs": [],
      "stateMutability": "nonpayable",
      "type": "constructor"
    },
    {
      "inputs": [],
      "name": "UNIX_DAY",
      "outputs": [
        {
          "internalType": "uint256",
          "name": "",
          "type": "uint256"
        }
      ],
      "stateMutability": "view",
      "type": "function",
      "constant": true
    },
    {
      "inputs": [
        {
          "internalType": "uint256",
          "name": "",
          "type": "uint256"
        }
      ],
      "name": "accounts",
      "outputs": [
        {
          "internalType": "address",
          "name": "id",
          "type": "address"
        },
        {
          "internalType": "string",
          "name": "name",
          "type": "string"
        },
        {
          "internalType": "uint256",
          "name": "accountType",
          "type": "uint256"
        }
      ],
      "stateMutability": "view",
      "type": "function",
      "constant": true
    },
    {
      "inputs": [
        {
          "internalType": "address",
          "name": "",
          "type": "address"
        }
      ],
      "name": "patients",
      "outputs": [
        {
          "internalType": "string",
          "name": "name",
          "type": "string"
        },
        {
          "internalType": "bool",
          "name": "instanced",
          "type": "bool"
        }
      ],
      "stateMutability": "view",
      "type": "function",
      "constant": true
    },
    {
      "inputs": [
        {
          "internalType": "address",
          "name": "",
          "type": "address"
        },
        {
          "internalType": "uint256",
          "name": "",
          "type": "uint256"
        }
      ],
      "name": "referenceIds",
      "outputs": [
        {
          "internalType": "string",
          "name": "",
          "type": "string"
        }
      ],
      "stateMutability": "view",
      "type": "function",
      "constant": true
    },
    {
      "inputs": [
        {
          "internalType": "address",
          "name": "",
          "type": "address"
        },
        {
          "internalType": "uint256",
          "name": "",
          "type": "uint256"
        }
      ],
      "name": "references",
      "outputs": [
        {
          "internalType": "string",
          "name": "id",
          "type": "string"
        },
        {
          "internalType": "string",
          "name": "name",
          "type": "string"
        },
        {
          "internalType": "string",
          "name": "resourceType",
          "type": "string"
        },
        {
          "internalType": "uint256",
          "name": "date",
          "type": "uint256"
        }
      ],
      "stateMutability": "view",
      "type": "function",
      "constant": true
    },
    {
      "inputs": [
        {
          "internalType": "string",
          "name": "_name",
          "type": "string"
        }
      ],
      "name": "addUser",
      "outputs": [
        {
          "internalType": "bool",
          "name": "",
          "type": "bool"
        }
      ],
      "stateMutability": "nonpayable",
      "type": "function"
    },
    {
      "inputs": [],
      "name": "getUser",
      "outputs": [
        {
          "components": [
            {
              "internalType": "string",
              "name": "name",
              "type": "string"
            },
            {
              "internalType": "bool",
              "name": "instanced",
              "type": "bool"
            }
          ],
          "internalType": "struct References.Patient",
          "name": "",
          "type": "tuple"
        }
      ],
      "stateMutability": "view",
      "type": "function",
      "constant": true
    },
    {
      "inputs": [
        {
          "internalType": "string",
          "name": "_id",
          "type": "string"
        },
        {
          "internalType": "string",
          "name": "_name",
          "type": "string"
        },
        {
          "internalType": "string",
          "name": "_type",
          "type": "string"
        }
      ],
      "name": "createReference",
      "outputs": [
        {
          "internalType": "bool",
          "name": "",
          "type": "bool"
        }
      ],
      "stateMutability": "nonpayable",
      "type": "function"
    },
    {
      "inputs": [],
      "name": "listReferenceIds",
      "outputs": [
        {
          "internalType": "string[]",
          "name": "",
          "type": "string[]"
        }
      ],
      "stateMutability": "view",
      "type": "function",
      "constant": true
    },
    {
      "inputs": [],
      "name": "listReferences",
      "outputs": [
        {
          "components": [
            {
              "internalType": "string",
              "name": "id",
              "type": "string"
            },
            {
              "internalType": "string",
              "name": "name",
              "type": "string"
            },
            {
              "internalType": "string",
              "name": "resourceType",
              "type": "string"
            },
            {
              "internalType": "uint256",
              "name": "date",
              "type": "uint256"
            }
          ],
          "internalType": "struct References.Reference[]",
          "name": "",
          "type": "tuple[]"
        }
      ],
      "stateMutability": "view",
      "type": "function",
      "constant": true
    },
    {
      "inputs": [],
      "name": "listPatients",
      "outputs": [
        {
          "components": [
            {
              "internalType": "address",
              "name": "id",
              "type": "address"
            },
            {
              "internalType": "string",
              "name": "name",
              "type": "string"
            },
            {
              "internalType": "uint256",
              "name": "accountType",
              "type": "uint256"
            }
          ],
          "internalType": "struct References.Account[]",
          "name": "",
          "type": "tuple[]"
        }
      ],
      "stateMutability": "view",
      "type": "function",
      "constant": true
    }
  ],
  "bytecode": "0x608060405234801561001057600080fd5b50612255806100206000396000f3fe608060405234801561001057600080fd5b50600436106100a95760003560e01c8063832880e711610071578063832880e71461018d5780639d2ff01e146101ab578063a4dec788146101c9578063c212d65f146101fc578063c5a2a18e1461021a578063f2a40db814610238576100a9565b80630869cfbc146100ae578063138a5e81146100df578063177cf2181461010f57806318b8275a1461012d5780636fc5e80b1461015d575b600080fd5b6100c860048036038101906100c39190611407565b61026a565b6040516100d69291906114df565b60405180910390f35b6100f960048036038101906100f49190611545565b610323565b6040516101069190611585565b60405180910390f35b6101176103dc565b60405161012491906115b6565b60405180910390f35b61014760048036038101906101429190611706565b6103e3565b604051610154919061174f565b60405180910390f35b6101776004803603810190610172919061176a565b610600565b604051610184919061174f565b60405180910390f35b610195610946565b6040516101a291906118a7565b60405180910390f35b6101b3610a4a565b6040516101c091906119f9565b60405180910390f35b6101e360048036038101906101de9190611545565b610b9b565b6040516101f39493929190611a1b565b60405180910390f35b610204610d80565b6040516102119190611ba8565b60405180910390f35b61022261106b565b60405161022f9190611c8c565b60405180910390f35b610252600480360381019061024d9190611cae565b611210565b60405161026193929190611cea565b60405180910390f35b600160205280600052604060002060009150905080600001805461028d90611d57565b80601f01602080910402602001604051908101604052809291908181526020018280546102b990611d57565b80156103065780601f106102db57610100808354040283529160200191610306565b820191906000526020600020905b8154815290600101906020018083116102e957829003601f168201915b5050505050908060010160009054906101000a900460ff16905082565b6003602052816000526040600020818154811061033f57600080fd5b9060005260206000200160009150915050805461035b90611d57565b80601f016020809104026020016040519081016040528092919081815260200182805461038790611d57565b80156103d45780601f106103a9576101008083540402835291602001916103d4565b820191906000526020600020905b8154815290600101906020018083116103b757829003601f168201915b505050505081565b6201518081565b6000600160003373ffffffffffffffffffffffffffffffffffffffff1673ffffffffffffffffffffffffffffffffffffffff16815260200190815260200160002060010160009054906101000a900460ff1615610475576040517f08c379a000000000000000000000000000000000000000000000000000000000815260040161046c90611dd4565b60405180910390fd5b600060405180606001604052803373ffffffffffffffffffffffffffffffffffffffff168152602001848152602001600060018111156104b8576104b7611df4565b5b815250908060018154018082558091505060019003906000526020600020906003020160009091909190915060008201518160000160006101000a81548173ffffffffffffffffffffffffffffffffffffffff021916908373ffffffffffffffffffffffffffffffffffffffff16021790555060208201518160010190816105409190611fcf565b5060408201518160020155505081600160003373ffffffffffffffffffffffffffffffffffffffff1673ffffffffffffffffffffffffffffffffffffffff168152602001908152602001600020600001908161059c9190611fcf565b5060018060003373ffffffffffffffffffffffffffffffffffffffff1673ffffffffffffffffffffffffffffffffffffffff16815260200190815260200160002060010160006101000a81548160ff02191690831515021790555060019050919050565b6000600160003373ffffffffffffffffffffffffffffffffffffffff1673ffffffffffffffffffffffffffffffffffffffff16815260200190815260200160002060010160009054906101000a900460ff16610691576040517f08c379a0000000000000000000000000000000000000000000000000000000008152600401610688906120ed565b60405180910390fd5b6107b284600360003373ffffffffffffffffffffffffffffffffffffffff1673ffffffffffffffffffffffffffffffffffffffff168152602001908152602001600020805480602002602001604051908101604052809291908181526020016000905b828210156107a057838290600052602060002001805461071390611d57565b80601f016020809104026020016040519081016040528092919081815260200182805461073f90611d57565b801561078c5780601f106107615761010080835404028352916020019161078c565b820191906000526020600020905b81548152906001019060200180831161076f57829003601f168201915b5050505050815260200190600101906106f4565b505050506112f290919063ffffffff16565b156107f2576040517f08c379a00000000000000000000000000000000000000000000000000000000081526004016107e990612159565b60405180910390fd5b600360003373ffffffffffffffffffffffffffffffffffffffff1673ffffffffffffffffffffffffffffffffffffffff168152602001908152602001600020849080600181540180825580915050600190039060005260206000200160009091909190915090816108639190611fcf565b50600260003373ffffffffffffffffffffffffffffffffffffffff1673ffffffffffffffffffffffffffffffffffffffff168152602001908152602001600020604051806080016040528086815260200185815260200184815260200142815250908060018154018082558091505060019003906000526020600020906004020160009091909190915060008201518160000190816109029190611fcf565b5060208201518160010190816109189190611fcf565b50604082015181600201908161092e9190611fcf565b50606082015181600301555050600190509392505050565b61094e611379565b600160003373ffffffffffffffffffffffffffffffffffffffff1673ffffffffffffffffffffffffffffffffffffffff1681526020019081526020016000206040518060400160405290816000820180546109a890611d57565b80601f01602080910402602001604051908101604052809291908181526020018280546109d490611d57565b8015610a215780601f106109f657610100808354040283529160200191610a21565b820191906000526020600020905b815481529060010190602001808311610a0457829003601f168201915b505050505081526020016001820160009054906101000a900460ff161515151581525050905090565b60606000805480602002602001604051908101604052809291908181526020016000905b82821015610b9257838290600052602060002090600302016040518060600160405290816000820160009054906101000a900473ffffffffffffffffffffffffffffffffffffffff1673ffffffffffffffffffffffffffffffffffffffff1673ffffffffffffffffffffffffffffffffffffffff168152602001600182018054610af790611d57565b80601f0160208091040260200160405190810160405280929190818152602001828054610b2390611d57565b8015610b705780601f10610b4557610100808354040283529160200191610b70565b820191906000526020600020905b815481529060010190602001808311610b5357829003601f168201915b5050505050815260200160028201548152505081526020019060010190610a6e565b50505050905090565b60026020528160005260406000208181548110610bb757600080fd5b906000526020600020906004020160009150915050806000018054610bdb90611d57565b80601f0160208091040260200160405190810160405280929190818152602001828054610c0790611d57565b8015610c545780601f10610c2957610100808354040283529160200191610c54565b820191906000526020600020905b815481529060010190602001808311610c3757829003601f168201915b505050505090806001018054610c6990611d57565b80601f0160208091040260200160405190810160405280929190818152602001828054610c9590611d57565b8015610ce25780601f10610cb757610100808354040283529160200191610ce2565b820191906000526020600020905b815481529060010190602001808311610cc557829003601f168201915b505050505090806002018054610cf790611d57565b80601f0160208091040260200160405190810160405280929190818152602001828054610d2390611d57565b8015610d705780601f10610d4557610100808354040283529160200191610d70565b820191906000526020600020905b815481529060010190602001808311610d5357829003601f168201915b5050505050908060030154905084565b6060600160003373ffffffffffffffffffffffffffffffffffffffff1673ffffffffffffffffffffffffffffffffffffffff16815260200190815260200160002060010160009054906101000a900460ff16610e11576040517f08c379a0000000000000000000000000000000000000000000000000000000008152600401610e08906120ed565b60405180910390fd5b600260003373ffffffffffffffffffffffffffffffffffffffff1673ffffffffffffffffffffffffffffffffffffffff168152602001908152602001600020805480602002602001604051908101604052809291908181526020016000905b828210156110625783829060005260206000209060040201604051806080016040529081600082018054610ea390611d57565b80601f0160208091040260200160405190810160405280929190818152602001828054610ecf90611d57565b8015610f1c5780601f10610ef157610100808354040283529160200191610f1c565b820191906000526020600020905b815481529060010190602001808311610eff57829003601f168201915b50505050508152602001600182018054610f3590611d57565b80601f0160208091040260200160405190810160405280929190818152602001828054610f6190611d57565b8015610fae5780601f10610f8357610100808354040283529160200191610fae565b820191906000526020600020905b815481529060010190602001808311610f9157829003601f168201915b50505050508152602001600282018054610fc790611d57565b80601f0160208091040260200160405190810160405280929190818152602001828054610ff390611d57565b80156110405780601f1061101557610100808354040283529160200191611040565b820191906000526020600020905b81548152906001019060200180831161102357829003601f168201915b5050505050815260200160038201548152505081526020019060010190610e70565b50505050905090565b6060600160003373ffffffffffffffffffffffffffffffffffffffff1673ffffffffffffffffffffffffffffffffffffffff16815260200190815260200160002060010160009054906101000a900460ff166110fc576040517f08c379a00000000000000000000000000000000000000000000000000000000081526004016110f3906120ed565b60405180910390fd5b600360003373ffffffffffffffffffffffffffffffffffffffff1673ffffffffffffffffffffffffffffffffffffffff168152602001908152602001600020805480602002602001604051908101604052809291908181526020016000905b8282101561120757838290600052602060002001805461117a90611d57565b80601f01602080910402602001604051908101604052809291908181526020018280546111a690611d57565b80156111f35780601f106111c8576101008083540402835291602001916111f3565b820191906000526020600020905b8154815290600101906020018083116111d657829003601f168201915b50505050508152602001906001019061115b565b50505050905090565b6000818154811061122057600080fd5b90600052602060002090600302016000915090508060000160009054906101000a900473ffffffffffffffffffffffffffffffffffffffff169080600101805461126990611d57565b80601f016020809104026020016040519081016040528092919081815260200182805461129590611d57565b80156112e25780601f106112b7576101008083540402835291602001916112e2565b820191906000526020600020905b8154815290600101906020018083116112c557829003601f168201915b5050505050908060020154905083565b600080600090505b8351811015611352576113308385838151811061131a57611319612179565b5b602002602001015161135e90919063ffffffff16565b1561133f576001915050611358565b808061134a906121d7565b9150506112fa565b50600090505b92915050565b60008180519060200120838051906020012014905092915050565b6040518060400160405280606081526020016000151581525090565b6000604051905090565b600080fd5b600080fd5b600073ffffffffffffffffffffffffffffffffffffffff82169050919050565b60006113d4826113a9565b9050919050565b6113e4816113c9565b81146113ef57600080fd5b50565b600081359050611401816113db565b92915050565b60006020828403121561141d5761141c61139f565b5b600061142b848285016113f2565b91505092915050565b600081519050919050565b600082825260208201905092915050565b60005b8381101561146e578082015181840152602081019050611453565b60008484015250505050565b6000601f19601f8301169050919050565b600061149682611434565b6114a0818561143f565b93506114b0818560208601611450565b6114b98161147a565b840191505092915050565b60008115159050919050565b6114d9816114c4565b82525050565b600060408201905081810360008301526114f9818561148b565b905061150860208301846114d0565b9392505050565b6000819050919050565b6115228161150f565b811461152d57600080fd5b50565b60008135905061153f81611519565b92915050565b6000806040838503121561155c5761155b61139f565b5b600061156a858286016113f2565b925050602061157b85828601611530565b9150509250929050565b6000602082019050818103600083015261159f818461148b565b905092915050565b6115b08161150f565b82525050565b60006020820190506115cb60008301846115a7565b92915050565b600080fd5b600080fd5b7f4e487b7100000000000000000000000000000000000000000000000000000000600052604160045260246000fd5b6116138261147a565b810181811067ffffffffffffffff82111715611632576116316115db565b5b80604052505050565b6000611645611395565b9050611651828261160a565b919050565b600067ffffffffffffffff821115611671576116706115db565b5b61167a8261147a565b9050602081019050919050565b82818337600083830152505050565b60006116a96116a484611656565b61163b565b9050828152602081018484840111156116c5576116c46115d6565b5b6116d0848285611687565b509392505050565b600082601f8301126116ed576116ec6115d1565b5b81356116fd848260208601611696565b91505092915050565b60006020828403121561171c5761171b61139f565b5b600082013567ffffffffffffffff81111561173a576117396113a4565b5b611746848285016116d8565b91505092915050565b600060208201905061176460008301846114d0565b92915050565b6000806000606084860312156117835761178261139f565b5b600084013567ffffffffffffffff8111156117a1576117a06113a4565b5b6117ad868287016116d8565b935050602084013567ffffffffffffffff8111156117ce576117cd6113a4565b5b6117da868287016116d8565b925050604084013567ffffffffffffffff8111156117fb576117fa6113a4565b5b611807868287016116d8565b9150509250925092565b600082825260208201905092915050565b600061182d82611434565b6118378185611811565b9350611847818560208601611450565b6118508161147a565b840191505092915050565b611864816114c4565b82525050565b600060408301600083015184820360008601526118878282611822565b915050602083015161189c602086018261185b565b508091505092915050565b600060208201905081810360008301526118c1818461186a565b905092915050565b600081519050919050565b600082825260208201905092915050565b6000819050602082019050919050565b6118fe816113c9565b82525050565b61190d8161150f565b82525050565b600060608301600083015161192b60008601826118f5565b50602083015184820360208601526119438282611822565b91505060408301516119586040860182611904565b508091505092915050565b600061196f8383611913565b905092915050565b6000602082019050919050565b600061198f826118c9565b61199981856118d4565b9350836020820285016119ab856118e5565b8060005b858110156119e757848403895281516119c88582611963565b94506119d383611977565b925060208a019950506001810190506119af565b50829750879550505050505092915050565b60006020820190508181036000830152611a138184611984565b905092915050565b60006080820190508181036000830152611a35818761148b565b90508181036020830152611a49818661148b565b90508181036040830152611a5d818561148b565b9050611a6c60608301846115a7565b95945050505050565b600081519050919050565b600082825260208201905092915050565b6000819050602082019050919050565b60006080830160008301518482036000860152611abe8282611822565b91505060208301518482036020860152611ad88282611822565b91505060408301518482036040860152611af28282611822565b9150506060830151611b076060860182611904565b508091505092915050565b6000611b1e8383611aa1565b905092915050565b6000602082019050919050565b6000611b3e82611a75565b611b488185611a80565b935083602082028501611b5a85611a91565b8060005b85811015611b965784840389528151611b778582611b12565b9450611b8283611b26565b925060208a01995050600181019050611b5e565b50829750879550505050505092915050565b60006020820190508181036000830152611bc28184611b33565b905092915050565b600081519050919050565b600082825260208201905092915050565b6000819050602082019050919050565b6000611c028383611822565b905092915050565b6000602082019050919050565b6000611c2282611bca565b611c2c8185611bd5565b935083602082028501611c3e85611be6565b8060005b85811015611c7a5784840389528151611c5b8582611bf6565b9450611c6683611c0a565b925060208a01995050600181019050611c42565b50829750879550505050505092915050565b60006020820190508181036000830152611ca68184611c17565b905092915050565b600060208284031215611cc457611cc361139f565b5b6000611cd284828501611530565b91505092915050565b611ce4816113c9565b82525050565b6000606082019050611cff6000830186611cdb565b8181036020830152611d11818561148b565b9050611d2060408301846115a7565b949350505050565b7f4e487b7100000000000000000000000000000000000000000000000000000000600052602260045260246000fd5b60006002820490506001821680611d6f57607f821691505b602082108103611d8257611d81611d28565b5b50919050565b7f757365725f616c72656164795f65786973747300000000000000000000000000600082015250565b6000611dbe60138361143f565b9150611dc982611d88565b602082019050919050565b60006020820190508181036000830152611ded81611db1565b9050919050565b7f4e487b7100000000000000000000000000000000000000000000000000000000600052602160045260246000fd5b60008190508160005260206000209050919050565b60006020601f8301049050919050565b600082821b905092915050565b600060088302611e857fffffffffffffffffffffffffffffffffffffffffffffffffffffffffffffffff82611e48565b611e8f8683611e48565b95508019841693508086168417925050509392505050565b6000819050919050565b6000611ecc611ec7611ec28461150f565b611ea7565b61150f565b9050919050565b6000819050919050565b611ee683611eb1565b611efa611ef282611ed3565b848454611e55565b825550505050565b600090565b611f0f611f02565b611f1a818484611edd565b505050565b5b81811015611f3e57611f33600082611f07565b600181019050611f20565b5050565b601f821115611f8357611f5481611e23565b611f5d84611e38565b81016020851015611f6c578190505b611f80611f7885611e38565b830182611f1f565b50505b505050565b600082821c905092915050565b6000611fa660001984600802611f88565b1980831691505092915050565b6000611fbf8383611f95565b9150826002028217905092915050565b611fd882611434565b67ffffffffffffffff811115611ff157611ff06115db565b5b611ffb8254611d57565b612006828285611f42565b600060209050601f8311600181146120395760008415612027578287015190505b6120318582611fb3565b865550612099565b601f19841661204786611e23565b60005b8281101561206f5784890151825560018201915060208501945060208101905061204a565b8683101561208c5784890151612088601f891682611f95565b8355505b6001600288020188555050505b505050505050565b7f757365725f646f65735f6e6f745f657869737400000000000000000000000000600082015250565b60006120d760138361143f565b91506120e2826120a1565b602082019050919050565b60006020820190508181036000830152612106816120ca565b9050919050565b7f7265666572656e63655f616c72656164795f6578697374730000000000000000600082015250565b600061214360188361143f565b915061214e8261210d565b602082019050919050565b6000602082019050818103600083015261217281612136565b9050919050565b7f4e487b7100000000000000000000000000000000000000000000000000000000600052603260045260246000fd5b7f4e487b7100000000000000000000000000000000000000000000000000000000600052601160045260246000fd5b60006121e28261150f565b91507fffffffffffffffffffffffffffffffffffffffffffffffffffffffffffffffff8203612214576122136121a8565b5b60018201905091905056fea2646970667358221220fa53537d030a3dc7a18c78719853ca1581235b807adb3cd654f67c61d65c268264736f6c63430008110033",
  "immutableReferences": {},
  "source": "// SPDX-License-Identifier: GPL-3.0\r\npragma solidity >=0.5.0 <0.9.0;\r\n\r\nimport {StringUtils, ArrayUtils, ByteUtils} from \"../utils/Utilities.sol\";\r\n\r\ncontract References {\r\n    using StringUtils for *;\r\n    using ArrayUtils for *;\r\n    using ByteUtils for *;\r\n\r\n    uint256 public constant UNIX_DAY = 86400;\r\n\r\n    enum AccountType {\r\n        Patient,\r\n        Professional\r\n    }\r\n\r\n    struct Account {\r\n        address id;\r\n        string name;\r\n        uint256 accountType;\r\n    }\r\n\r\n    struct Patient {\r\n        string name;\r\n        bool instanced;\r\n    }\r\n\r\n    struct Professional {\r\n        string name;\r\n        string workplace;\r\n        bool instanced;\r\n    }\r\n\r\n    struct Reference {\r\n        string id;\r\n        string name;\r\n        string resourceType;\r\n        uint256 date;\r\n    }\r\n\r\n    Account[] public accounts;\r\n    mapping(address => Patient) public patients;\r\n    mapping(address => Reference[]) public references;\r\n    mapping(address => string[]) public referenceIds;\r\n\r\n    modifier requireInstancedPatient() {\r\n        require(patients[msg.sender].instanced, \"user_does_not_exist\");\r\n        _;\r\n    }\r\n\r\n    constructor() {}\r\n\r\n    function addUser(string memory _name) public returns (bool) {\r\n        // check if user is already present\r\n        require(!patients[msg.sender].instanced, \"user_already_exists\");\r\n\r\n        // register user\r\n        accounts.push(\r\n            Account({\r\n                id: msg.sender,\r\n                name: _name,\r\n                accountType: uint256(AccountType.Patient)\r\n            })\r\n        );\r\n\r\n        patients[msg.sender].name = _name;\r\n        patients[msg.sender].instanced = true;\r\n        return true;\r\n    }\r\n\r\n    function getUser() public view returns (Patient memory) {\r\n        return patients[msg.sender];\r\n    }\r\n\r\n    function createReference(\r\n        string memory _id,\r\n        string memory _name,\r\n        string memory _type\r\n    ) public requireInstancedPatient returns (bool) {\r\n        // check if a reference with this id is instanced\r\n        require(\r\n            !referenceIds[msg.sender].contains(_id),\r\n            \"reference_already_exists\"\r\n        );\r\n\r\n        //add reference\r\n        referenceIds[msg.sender].push(_id);\r\n\r\n        references[msg.sender].push(\r\n            Reference({\r\n                id: _id,\r\n                name: _name,\r\n                resourceType: _type,\r\n                date: block.timestamp\r\n            })\r\n        );\r\n\r\n        return true;\r\n    }\r\n\r\n    function listReferenceIds()\r\n        public\r\n        view\r\n        requireInstancedPatient\r\n        returns (string[] memory)\r\n    {\r\n        return referenceIds[msg.sender];\r\n    }\r\n\r\n    function listReferences()\r\n        public\r\n        view\r\n        requireInstancedPatient\r\n        returns (Reference[] memory)\r\n    {\r\n        return references[msg.sender];\r\n    }\r\n\r\n    function listPatients() public view returns (Account[] memory) {\r\n        return accounts;\r\n    }\r\n}\r\n",
  "sourcePath": "C:\\Users\\b_bri\\Documents\\.higia\\backend-smartcontracts\\src\\contracts\\references.sol",
  "compiler": {
    "name": "solc",
    "version": "0.8.17+commit.8df45f5f.Emscripten.clang"
  },
  "schemaVersion": "3.4.9",
  "updatedAt": "2022-09-12T21:02:01.326Z",
  "networkType": "ethereum",
  "devdoc": {
    "kind": "dev",
    "methods": {},
    "version": 1
  },
  "userdoc": {
    "kind": "user",
    "methods": {},
    "version": 1
  }
}