{
  "contractName": "References",
  "abi": [
    {
      "inputs": [],
      "stateMutability": "nonpayable",
      "type": "constructor"
    },
    {
      "inputs": [],
      "name": "UNIX_DAY",
      "outputs": [
        {
          "internalType": "uint256",
          "name": "",
          "type": "uint256"
        }
      ],
      "stateMutability": "view",
      "type": "function",
      "constant": true
    },
    {
      "inputs": [
        {
          "internalType": "uint256",
          "name": "",
          "type": "uint256"
        }
      ],
      "name": "accounts",
      "outputs": [
        {
          "internalType": "address",
          "name": "id",
          "type": "address"
        },
        {
          "internalType": "string",
          "name": "name",
          "type": "string"
        },
        {
          "internalType": "uint256",
          "name": "accountType",
          "type": "uint256"
        }
      ],
      "stateMutability": "view",
      "type": "function",
      "constant": true
    },
    {
      "inputs": [
        {
          "internalType": "address",
          "name": "",
          "type": "address"
        }
      ],
      "name": "patients",
      "outputs": [
        {
          "internalType": "string",
          "name": "name",
          "type": "string"
        },
        {
          "internalType": "bool",
          "name": "instanced",
          "type": "bool"
        }
      ],
      "stateMutability": "view",
      "type": "function",
      "constant": true
    },
    {
      "inputs": [
        {
          "internalType": "address",
          "name": "",
          "type": "address"
        },
        {
          "internalType": "uint256",
          "name": "",
          "type": "uint256"
        }
      ],
      "name": "referenceIds",
      "outputs": [
        {
          "internalType": "string",
          "name": "",
          "type": "string"
        }
      ],
      "stateMutability": "view",
      "type": "function",
      "constant": true
    },
    {
      "inputs": [
        {
          "internalType": "address",
          "name": "",
          "type": "address"
        },
        {
          "internalType": "uint256",
          "name": "",
          "type": "uint256"
        }
      ],
      "name": "references",
      "outputs": [
        {
          "internalType": "string",
          "name": "id",
          "type": "string"
        },
        {
          "internalType": "string",
          "name": "name",
          "type": "string"
        },
        {
          "internalType": "string",
          "name": "from",
          "type": "string"
        },
        {
          "internalType": "string",
          "name": "resourceType",
          "type": "string"
        },
        {
          "internalType": "uint256",
          "name": "date",
          "type": "uint256"
        }
      ],
      "stateMutability": "view",
      "type": "function",
      "constant": true
    },
    {
      "inputs": [
        {
          "internalType": "address",
          "name": "",
          "type": "address"
        },
        {
          "internalType": "bytes32",
          "name": "",
          "type": "bytes32"
        }
      ],
      "name": "tokens",
      "outputs": [
        {
          "internalType": "bytes32",
          "name": "token",
          "type": "bytes32"
        },
        {
          "internalType": "bool",
          "name": "valid",
          "type": "bool"
        },
        {
          "internalType": "uint256",
          "name": "validUntil",
          "type": "uint256"
        },
        {
          "internalType": "uint256",
          "name": "usesLeft",
          "type": "uint256"
        },
        {
          "internalType": "bool",
          "name": "instanced",
          "type": "bool"
        }
      ],
      "stateMutability": "view",
      "type": "function",
      "constant": true
    },
    {
      "inputs": [
        {
          "internalType": "string",
          "name": "_name",
          "type": "string"
        }
      ],
      "name": "addUser",
      "outputs": [
        {
          "internalType": "bool",
          "name": "",
          "type": "bool"
        }
      ],
      "stateMutability": "nonpayable",
      "type": "function"
    },
    {
      "inputs": [],
      "name": "getUser",
      "outputs": [
        {
          "components": [
            {
              "internalType": "string",
              "name": "name",
              "type": "string"
            },
            {
              "internalType": "bool",
              "name": "instanced",
              "type": "bool"
            }
          ],
          "internalType": "struct References.Patient",
          "name": "",
          "type": "tuple"
        }
      ],
      "stateMutability": "view",
      "type": "function",
      "constant": true
    },
    {
      "inputs": [
        {
          "internalType": "string",
          "name": "_id",
          "type": "string"
        },
        {
          "internalType": "string",
          "name": "_name",
          "type": "string"
        },
        {
          "internalType": "string",
          "name": "_type",
          "type": "string"
        },
        {
          "internalType": "string",
          "name": "_from",
          "type": "string"
        }
      ],
      "name": "createReference",
      "outputs": [
        {
          "internalType": "bool",
          "name": "",
          "type": "bool"
        }
      ],
      "stateMutability": "nonpayable",
      "type": "function"
    },
    {
      "inputs": [],
      "name": "listReferenceIds",
      "outputs": [
        {
          "internalType": "string[]",
          "name": "",
          "type": "string[]"
        }
      ],
      "stateMutability": "view",
      "type": "function",
      "constant": true
    },
    {
      "inputs": [],
      "name": "listReferences",
      "outputs": [
        {
          "components": [
            {
              "internalType": "string",
              "name": "id",
              "type": "string"
            },
            {
              "internalType": "string",
              "name": "name",
              "type": "string"
            },
            {
              "internalType": "string",
              "name": "from",
              "type": "string"
            },
            {
              "internalType": "string",
              "name": "resourceType",
              "type": "string"
            },
            {
              "internalType": "uint256",
              "name": "date",
              "type": "uint256"
            }
          ],
          "internalType": "struct References.Reference[]",
          "name": "",
          "type": "tuple[]"
        }
      ],
      "stateMutability": "view",
      "type": "function",
      "constant": true
    },
    {
      "inputs": [],
      "name": "listPatients",
      "outputs": [
        {
          "components": [
            {
              "internalType": "address",
              "name": "id",
              "type": "address"
            },
            {
              "internalType": "string",
              "name": "name",
              "type": "string"
            },
            {
              "internalType": "uint256",
              "name": "accountType",
              "type": "uint256"
            }
          ],
          "internalType": "struct References.Account[]",
          "name": "",
          "type": "tuple[]"
        }
      ],
      "stateMutability": "view",
      "type": "function",
      "constant": true
    },
    {
      "inputs": [
        {
          "internalType": "string",
          "name": "_token",
          "type": "string"
        }
      ],
      "name": "createToken",
      "outputs": [
        {
          "internalType": "bool",
          "name": "",
          "type": "bool"
        }
      ],
      "stateMutability": "nonpayable",
      "type": "function"
    },
    {
      "inputs": [
        {
          "internalType": "string",
          "name": "_tokenString",
          "type": "string"
        }
      ],
      "name": "getToken",
      "outputs": [
        {
          "components": [
            {
              "internalType": "bytes32",
              "name": "token",
              "type": "bytes32"
            },
            {
              "internalType": "bool",
              "name": "valid",
              "type": "bool"
            },
            {
              "internalType": "uint256",
              "name": "validUntil",
              "type": "uint256"
            },
            {
              "internalType": "uint256",
              "name": "usesLeft",
              "type": "uint256"
            },
            {
              "internalType": "bool",
              "name": "instanced",
              "type": "bool"
            }
          ],
          "internalType": "struct References.Token",
          "name": "",
          "type": "tuple"
        }
      ],
      "stateMutability": "view",
      "type": "function",
      "constant": true
    },
    {
      "inputs": [
        {
          "internalType": "address",
          "name": "_patient",
          "type": "address"
        },
        {
          "internalType": "string",
          "name": "_tokenString",
          "type": "string"
        }
      ],
      "name": "listReferencesThird",
      "outputs": [
        {
          "components": [
            {
              "internalType": "string",
              "name": "id",
              "type": "string"
            },
            {
              "internalType": "string",
              "name": "name",
              "type": "string"
            },
            {
              "internalType": "string",
              "name": "from",
              "type": "string"
            },
            {
              "internalType": "string",
              "name": "resourceType",
              "type": "string"
            },
            {
              "internalType": "uint256",
              "name": "date",
              "type": "uint256"
            }
          ],
          "internalType": "struct References.Reference[]",
          "name": "",
          "type": "tuple[]"
        }
      ],
      "stateMutability": "view",
      "type": "function",
      "constant": true
    },
    {
      "inputs": [
        {
          "internalType": "string",
          "name": "_tokenString",
          "type": "string"
        },
        {
          "internalType": "string",
          "name": "_id",
          "type": "string"
        },
        {
          "internalType": "string",
          "name": "_name",
          "type": "string"
        },
        {
          "internalType": "string",
          "name": "_type",
          "type": "string"
        },
        {
          "internalType": "string",
          "name": "_from",
          "type": "string"
        }
      ],
      "name": "createReferenceThird",
      "outputs": [
        {
          "internalType": "bool",
          "name": "",
          "type": "bool"
        }
      ],
      "stateMutability": "nonpayable",
      "type": "function"
    }
  ],
  "bytecode": "0x608060405234801561001057600080fd5b506135ee806100206000396000f3fe608060405234801561001057600080fd5b50600436106101005760003560e01c80639d2ff01e11610097578063c1733f6811610066578063c1733f6814610318578063c212d65f14610348578063c5a2a18e14610366578063f2a40db81461038457610100565b80639d2ff01e146102625780639e3ce87614610280578063a4dec788146102b0578063a9964d1c146102e457610100565b80634208adc7116100d35780634208adc7146101b457806345576f94146101e4578063605027f114610214578063832880e71461024457610100565b80630869cfbc14610105578063138a5e8114610136578063177cf2181461016657806318b8275a14610184575b600080fd5b61011f600480360381019061011a919061233f565b6103b6565b60405161012d929190612417565b60405180910390f35b610150600480360381019061014b919061247d565b61046f565b60405161015d91906124bd565b60405180910390f35b61016e610528565b60405161017b91906124ee565b60405180910390f35b61019e6004803603810190610199919061263e565b61052f565b6040516101ab9190612687565b60405180910390f35b6101ce60048036038101906101c991906126a2565b61074c565b6040516101db91906128a4565b60405180910390f35b6101fe60048036038101906101f9919061263e565b610b97565b60405161020b9190612687565b60405180910390f35b61022e600480360381019061022991906128c6565b610d2c565b60405161023b9190612687565b60405180910390f35b61024c61108f565b60405161025991906129e9565b60405180910390f35b61026a611193565b6040516102779190612b2c565b60405180910390f35b61029a60048036038101906102959190612b4e565b6112e4565b6040516102a79190612687565b60405180910390f35b6102ca60048036038101906102c5919061247d565b611843565b6040516102db959493929190612c55565b60405180910390f35b6102fe60048036038101906102f99190612cfa565b611ab6565b60405161030f959493929190612d49565b60405180910390f35b610332600480360381019061032d919061263e565b611b13565b60405161033f9190612e13565b60405180910390f35b610350611bdf565b60405161035d91906128a4565b60405180910390f35b61036e611f5c565b60405161037b9190612ef0565b60405180910390f35b61039e60048036038101906103999190612f12565b612101565b6040516103ad93929190612f4e565b60405180910390f35b60016020528060005260406000206000915090508060000180546103d990612fbb565b80601f016020809104026020016040519081016040528092919081815260200182805461040590612fbb565b80156104525780601f1061042757610100808354040283529160200191610452565b820191906000526020600020905b81548152906001019060200180831161043557829003601f168201915b5050505050908060010160009054906101000a900460ff16905082565b6003602052816000526040600020818154811061048b57600080fd5b906000526020600020016000915091505080546104a790612fbb565b80601f01602080910402602001604051908101604052809291908181526020018280546104d390612fbb565b80156105205780601f106104f557610100808354040283529160200191610520565b820191906000526020600020905b81548152906001019060200180831161050357829003601f168201915b505050505081565b6201518081565b6000600160003373ffffffffffffffffffffffffffffffffffffffff1673ffffffffffffffffffffffffffffffffffffffff16815260200190815260200160002060010160009054906101000a900460ff16156105c1576040517f08c379a00000000000000000000000000000000000000000000000000000000081526004016105b890613038565b60405180910390fd5b600060405180606001604052803373ffffffffffffffffffffffffffffffffffffffff1681526020018481526020016000600181111561060457610603613058565b5b815250908060018154018082558091505060019003906000526020600020906003020160009091909190915060008201518160000160006101000a81548173ffffffffffffffffffffffffffffffffffffffff021916908373ffffffffffffffffffffffffffffffffffffffff160217905550602082015181600101908161068c9190613233565b5060408201518160020155505081600160003373ffffffffffffffffffffffffffffffffffffffff1673ffffffffffffffffffffffffffffffffffffffff16815260200190815260200160002060000190816106e89190613233565b5060018060003373ffffffffffffffffffffffffffffffffffffffff1673ffffffffffffffffffffffffffffffffffffffff16815260200190815260200160002060010160006101000a81548160ff02191690831515021790555060019050919050565b60606000610759836121e3565b90506000600460008673ffffffffffffffffffffffffffffffffffffffff1673ffffffffffffffffffffffffffffffffffffffff16815260200190815260200160002060008381526020019081526020016000206040518060a0016040529081600082015481526020016001820160009054906101000a900460ff1615151515815260200160028201548152602001600382015481526020016004820160009054906101000a900460ff161515151581525050905080608001518015610820575080602001515b61085f576040517f08c379a000000000000000000000000000000000000000000000000000000000815260040161085690613351565b60405180910390fd5b42816040015110156108a6576040517f08c379a000000000000000000000000000000000000000000000000000000000815260040161089d906133bd565b60405180910390fd5b600260008673ffffffffffffffffffffffffffffffffffffffff1673ffffffffffffffffffffffffffffffffffffffff168152602001908152602001600020805480602002602001604051908101604052809291908181526020016000905b82821015610b8957838290600052602060002090600502016040518060a001604052908160008201805461093890612fbb565b80601f016020809104026020016040519081016040528092919081815260200182805461096490612fbb565b80156109b15780601f10610986576101008083540402835291602001916109b1565b820191906000526020600020905b81548152906001019060200180831161099457829003601f168201915b505050505081526020016001820180546109ca90612fbb565b80601f01602080910402602001604051908101604052809291908181526020018280546109f690612fbb565b8015610a435780601f10610a1857610100808354040283529160200191610a43565b820191906000526020600020905b815481529060010190602001808311610a2657829003601f168201915b50505050508152602001600282018054610a5c90612fbb565b80601f0160208091040260200160405190810160405280929190818152602001828054610a8890612fbb565b8015610ad55780601f10610aaa57610100808354040283529160200191610ad5565b820191906000526020600020905b815481529060010190602001808311610ab857829003601f168201915b50505050508152602001600382018054610aee90612fbb565b80601f0160208091040260200160405190810160405280929190818152602001828054610b1a90612fbb565b8015610b675780601f10610b3c57610100808354040283529160200191610b67565b820191906000526020600020905b815481529060010190602001808311610b4a57829003601f168201915b5050505050815260200160048201548152505081526020019060010190610905565b505050509250505092915050565b6000600160003373ffffffffffffffffffffffffffffffffffffffff1673ffffffffffffffffffffffffffffffffffffffff16815260200190815260200160002060010160009054906101000a900460ff16610c28576040517f08c379a0000000000000000000000000000000000000000000000000000000008152600401610c1f90613429565b60405180910390fd5b6000610c33836121e3565b90506040518060a001604052808281526020016001151581526020016201518042610c5e9190613478565b81526020016001815260200160011515815250600460003373ffffffffffffffffffffffffffffffffffffffff1673ffffffffffffffffffffffffffffffffffffffff16815260200190815260200160002060008381526020019081526020016000206000820151816000015560208201518160010160006101000a81548160ff021916908315150217905550604082015181600201556060820151816003015560808201518160040160006101000a81548160ff0219169083151502179055509050506001915050919050565b6000600160003373ffffffffffffffffffffffffffffffffffffffff1673ffffffffffffffffffffffffffffffffffffffff16815260200190815260200160002060010160009054906101000a900460ff16610dbd576040517f08c379a0000000000000000000000000000000000000000000000000000000008152600401610db490613429565b60405180910390fd5b610ede85600360003373ffffffffffffffffffffffffffffffffffffffff1673ffffffffffffffffffffffffffffffffffffffff168152602001908152602001600020805480602002602001604051908101604052809291908181526020016000905b82821015610ecc578382906000526020600020018054610e3f90612fbb565b80601f0160208091040260200160405190810160405280929190818152602001828054610e6b90612fbb565b8015610eb85780601f10610e8d57610100808354040283529160200191610eb8565b820191906000526020600020905b815481529060010190602001808311610e9b57829003601f168201915b505050505081526020019060010190610e20565b505050506121f490919063ffffffff16565b15610f1e576040517f08c379a0000000000000000000000000000000000000000000000000000000008152600401610f15906134f8565b60405180910390fd5b600360003373ffffffffffffffffffffffffffffffffffffffff1673ffffffffffffffffffffffffffffffffffffffff16815260200190815260200160002085908060018154018082558091505060019003906000526020600020016000909190919091509081610f8f9190613233565b50600260003373ffffffffffffffffffffffffffffffffffffffff1673ffffffffffffffffffffffffffffffffffffffff1681526020019081526020016000206040518060a0016040528087815260200186815260200184815260200185815260200142815250908060018154018082558091505060019003906000526020600020906005020160009091909190915060008201518160000190816110349190613233565b50602082015181600101908161104a9190613233565b5060408201518160020190816110609190613233565b5060608201518160030190816110769190613233565b5060808201518160040155505060019050949350505050565b61109761227b565b600160003373ffffffffffffffffffffffffffffffffffffffff1673ffffffffffffffffffffffffffffffffffffffff1681526020019081526020016000206040518060400160405290816000820180546110f190612fbb565b80601f016020809104026020016040519081016040528092919081815260200182805461111d90612fbb565b801561116a5780601f1061113f5761010080835404028352916020019161116a565b820191906000526020600020905b81548152906001019060200180831161114d57829003601f168201915b505050505081526020016001820160009054906101000a900460ff161515151581525050905090565b60606000805480602002602001604051908101604052809291908181526020016000905b828210156112db57838290600052602060002090600302016040518060600160405290816000820160009054906101000a900473ffffffffffffffffffffffffffffffffffffffff1673ffffffffffffffffffffffffffffffffffffffff1673ffffffffffffffffffffffffffffffffffffffff16815260200160018201805461124090612fbb565b80601f016020809104026020016040519081016040528092919081815260200182805461126c90612fbb565b80156112b95780601f1061128e576101008083540402835291602001916112b9565b820191906000526020600020905b81548152906001019060200180831161129c57829003601f168201915b50505050508152602001600282015481525050815260200190600101906111b7565b50505050905090565b6000806112f0876121e3565b90506000600460003373ffffffffffffffffffffffffffffffffffffffff1673ffffffffffffffffffffffffffffffffffffffff16815260200190815260200160002060008381526020019081526020016000206040518060a0016040529081600082015481526020016001820160009054906101000a900460ff1615151515815260200160028201548152602001600382015481526020016004820160009054906101000a900460ff1615151515815250509050806080015180156113b7575080602001515b6113f6576040517f08c379a00000000000000000000000000000000000000000000000000000000081526004016113ed90613351565b60405180910390fd5b428160400151101561143d576040517f08c379a0000000000000000000000000000000000000000000000000000000008152600401611434906133bd565b60405180910390fd5b61155e87600360003373ffffffffffffffffffffffffffffffffffffffff1673ffffffffffffffffffffffffffffffffffffffff168152602001908152602001600020805480602002602001604051908101604052809291908181526020016000905b8282101561154c5783829060005260206000200180546114bf90612fbb565b80601f01602080910402602001604051908101604052809291908181526020018280546114eb90612fbb565b80156115385780601f1061150d57610100808354040283529160200191611538565b820191906000526020600020905b81548152906001019060200180831161151b57829003601f168201915b5050505050815260200190600101906114a0565b505050506121f490919063ffffffff16565b1561159e576040517f08c379a0000000000000000000000000000000000000000000000000000000008152600401611595906134f8565b60405180910390fd5b600360003373ffffffffffffffffffffffffffffffffffffffff1673ffffffffffffffffffffffffffffffffffffffff1681526020019081526020016000208790806001815401808255809150506001900390600052602060002001600090919091909150908161160f9190613233565b50600260003373ffffffffffffffffffffffffffffffffffffffff1673ffffffffffffffffffffffffffffffffffffffff1681526020019081526020016000206040518060a0016040528089815260200188815260200186815260200187815260200142815250908060018154018082558091505060019003906000526020600020906005020160009091909190915060008201518160000190816116b49190613233565b5060208201518160010190816116ca9190613233565b5060408201518160020190816116e09190613233565b5060608201518160030190816116f69190613233565b50608082015181600401555050600460003373ffffffffffffffffffffffffffffffffffffffff1673ffffffffffffffffffffffffffffffffffffffff1681526020019081526020016000206000838152602001908152602001600020600301600081548092919061176790613518565b91905055506000600460003373ffffffffffffffffffffffffffffffffffffffff1673ffffffffffffffffffffffffffffffffffffffff16815260200190815260200160002060008481526020019081526020016000206003015403611834576000600460003373ffffffffffffffffffffffffffffffffffffffff1673ffffffffffffffffffffffffffffffffffffffff168152602001908152602001600020600084815260200190815260200160002060010160006101000a81548160ff0219169083151502179055505b60019250505095945050505050565b6002602052816000526040600020818154811061185f57600080fd5b90600052602060002090600502016000915091505080600001805461188390612fbb565b80601f01602080910402602001604051908101604052809291908181526020018280546118af90612fbb565b80156118fc5780601f106118d1576101008083540402835291602001916118fc565b820191906000526020600020905b8154815290600101906020018083116118df57829003601f168201915b50505050509080600101805461191190612fbb565b80601f016020809104026020016040519081016040528092919081815260200182805461193d90612fbb565b801561198a5780601f1061195f5761010080835404028352916020019161198a565b820191906000526020600020905b81548152906001019060200180831161196d57829003601f168201915b50505050509080600201805461199f90612fbb565b80601f01602080910402602001604051908101604052809291908181526020018280546119cb90612fbb565b8015611a185780601f106119ed57610100808354040283529160200191611a18565b820191906000526020600020905b8154815290600101906020018083116119fb57829003601f168201915b505050505090806003018054611a2d90612fbb565b80601f0160208091040260200160405190810160405280929190818152602001828054611a5990612fbb565b8015611aa65780601f10611a7b57610100808354040283529160200191611aa6565b820191906000526020600020905b815481529060010190602001808311611a8957829003601f168201915b5050505050908060040154905085565b6004602052816000526040600020602052806000526040600020600091509150508060000154908060010160009054906101000a900460ff16908060020154908060030154908060040160009054906101000a900460ff16905085565b611b1b612297565b6000611b26836121e3565b9050600460003373ffffffffffffffffffffffffffffffffffffffff1673ffffffffffffffffffffffffffffffffffffffff16815260200190815260200160002060008281526020019081526020016000206040518060a0016040529081600082015481526020016001820160009054906101000a900460ff1615151515815260200160028201548152602001600382015481526020016004820160009054906101000a900460ff161515151581525050915050919050565b6060600160003373ffffffffffffffffffffffffffffffffffffffff1673ffffffffffffffffffffffffffffffffffffffff16815260200190815260200160002060010160009054906101000a900460ff16611c70576040517f08c379a0000000000000000000000000000000000000000000000000000000008152600401611c6790613429565b60405180910390fd5b600260003373ffffffffffffffffffffffffffffffffffffffff1673ffffffffffffffffffffffffffffffffffffffff168152602001908152602001600020805480602002602001604051908101604052809291908181526020016000905b82821015611f5357838290600052602060002090600502016040518060a0016040529081600082018054611d0290612fbb565b80601f0160208091040260200160405190810160405280929190818152602001828054611d2e90612fbb565b8015611d7b5780601f10611d5057610100808354040283529160200191611d7b565b820191906000526020600020905b815481529060010190602001808311611d5e57829003601f168201915b50505050508152602001600182018054611d9490612fbb565b80601f0160208091040260200160405190810160405280929190818152602001828054611dc090612fbb565b8015611e0d5780601f10611de257610100808354040283529160200191611e0d565b820191906000526020600020905b815481529060010190602001808311611df057829003601f168201915b50505050508152602001600282018054611e2690612fbb565b80601f0160208091040260200160405190810160405280929190818152602001828054611e5290612fbb565b8015611e9f5780601f10611e7457610100808354040283529160200191611e9f565b820191906000526020600020905b815481529060010190602001808311611e8257829003601f168201915b50505050508152602001600382018054611eb890612fbb565b80601f0160208091040260200160405190810160405280929190818152602001828054611ee490612fbb565b8015611f315780601f10611f0657610100808354040283529160200191611f31565b820191906000526020600020905b815481529060010190602001808311611f1457829003601f168201915b5050505050815260200160048201548152505081526020019060010190611ccf565b50505050905090565b6060600160003373ffffffffffffffffffffffffffffffffffffffff1673ffffffffffffffffffffffffffffffffffffffff16815260200190815260200160002060010160009054906101000a900460ff16611fed576040517f08c379a0000000000000000000000000000000000000000000000000000000008152600401611fe490613429565b60405180910390fd5b600360003373ffffffffffffffffffffffffffffffffffffffff1673ffffffffffffffffffffffffffffffffffffffff168152602001908152602001600020805480602002602001604051908101604052809291908181526020016000905b828210156120f857838290600052602060002001805461206b90612fbb565b80601f016020809104026020016040519081016040528092919081815260200182805461209790612fbb565b80156120e45780601f106120b9576101008083540402835291602001916120e4565b820191906000526020600020905b8154815290600101906020018083116120c757829003601f168201915b50505050508152602001906001019061204c565b50505050905090565b6000818154811061211157600080fd5b90600052602060002090600302016000915090508060000160009054906101000a900473ffffffffffffffffffffffffffffffffffffffff169080600101805461215a90612fbb565b80601f016020809104026020016040519081016040528092919081815260200182805461218690612fbb565b80156121d35780601f106121a8576101008083540402835291602001916121d3565b820191906000526020600020905b8154815290600101906020018083116121b657829003601f168201915b5050505050908060020154905083565b600081805190602001209050919050565b600080600090505b8351811015612254576122328385838151811061221c5761221b613541565b5b602002602001015161226090919063ffffffff16565b1561224157600191505061225a565b808061224c90613570565b9150506121fc565b50600090505b92915050565b60008180519060200120838051906020012014905092915050565b6040518060400160405280606081526020016000151581525090565b6040518060a001604052806000801916815260200160001515815260200160008152602001600081526020016000151581525090565b6000604051905090565b600080fd5b600080fd5b600073ffffffffffffffffffffffffffffffffffffffff82169050919050565b600061230c826122e1565b9050919050565b61231c81612301565b811461232757600080fd5b50565b60008135905061233981612313565b92915050565b600060208284031215612355576123546122d7565b5b60006123638482850161232a565b91505092915050565b600081519050919050565b600082825260208201905092915050565b60005b838110156123a657808201518184015260208101905061238b565b60008484015250505050565b6000601f19601f8301169050919050565b60006123ce8261236c565b6123d88185612377565b93506123e8818560208601612388565b6123f1816123b2565b840191505092915050565b60008115159050919050565b612411816123fc565b82525050565b6000604082019050818103600083015261243181856123c3565b90506124406020830184612408565b9392505050565b6000819050919050565b61245a81612447565b811461246557600080fd5b50565b60008135905061247781612451565b92915050565b60008060408385031215612494576124936122d7565b5b60006124a28582860161232a565b92505060206124b385828601612468565b9150509250929050565b600060208201905081810360008301526124d781846123c3565b905092915050565b6124e881612447565b82525050565b600060208201905061250360008301846124df565b92915050565b600080fd5b600080fd5b7f4e487b7100000000000000000000000000000000000000000000000000000000600052604160045260246000fd5b61254b826123b2565b810181811067ffffffffffffffff8211171561256a57612569612513565b5b80604052505050565b600061257d6122cd565b90506125898282612542565b919050565b600067ffffffffffffffff8211156125a9576125a8612513565b5b6125b2826123b2565b9050602081019050919050565b82818337600083830152505050565b60006125e16125dc8461258e565b612573565b9050828152602081018484840111156125fd576125fc61250e565b5b6126088482856125bf565b509392505050565b600082601f83011261262557612624612509565b5b81356126358482602086016125ce565b91505092915050565b600060208284031215612654576126536122d7565b5b600082013567ffffffffffffffff811115612672576126716122dc565b5b61267e84828501612610565b91505092915050565b600060208201905061269c6000830184612408565b92915050565b600080604083850312156126b9576126b86122d7565b5b60006126c78582860161232a565b925050602083013567ffffffffffffffff8111156126e8576126e76122dc565b5b6126f485828601612610565b9150509250929050565b600081519050919050565b600082825260208201905092915050565b6000819050602082019050919050565b600082825260208201905092915050565b60006127468261236c565b612750818561272a565b9350612760818560208601612388565b612769816123b2565b840191505092915050565b61277d81612447565b82525050565b600060a08301600083015184820360008601526127a0828261273b565b915050602083015184820360208601526127ba828261273b565b915050604083015184820360408601526127d4828261273b565b915050606083015184820360608601526127ee828261273b565b91505060808301516128036080860182612774565b508091505092915050565b600061281a8383612783565b905092915050565b6000602082019050919050565b600061283a826126fe565b6128448185612709565b9350836020820285016128568561271a565b8060005b858110156128925784840389528151612873858261280e565b945061287e83612822565b925060208a0199505060018101905061285a565b50829750879550505050505092915050565b600060208201905081810360008301526128be818461282f565b905092915050565b600080600080608085870312156128e0576128df6122d7565b5b600085013567ffffffffffffffff8111156128fe576128fd6122dc565b5b61290a87828801612610565b945050602085013567ffffffffffffffff81111561292b5761292a6122dc565b5b61293787828801612610565b935050604085013567ffffffffffffffff811115612958576129576122dc565b5b61296487828801612610565b925050606085013567ffffffffffffffff811115612985576129846122dc565b5b61299187828801612610565b91505092959194509250565b6129a6816123fc565b82525050565b600060408301600083015184820360008601526129c9828261273b565b91505060208301516129de602086018261299d565b508091505092915050565b60006020820190508181036000830152612a0381846129ac565b905092915050565b600081519050919050565b600082825260208201905092915050565b6000819050602082019050919050565b612a4081612301565b82525050565b6000606083016000830151612a5e6000860182612a37565b5060208301518482036020860152612a76828261273b565b9150506040830151612a8b6040860182612774565b508091505092915050565b6000612aa28383612a46565b905092915050565b6000602082019050919050565b6000612ac282612a0b565b612acc8185612a16565b935083602082028501612ade85612a27565b8060005b85811015612b1a5784840389528151612afb8582612a96565b9450612b0683612aaa565b925060208a01995050600181019050612ae2565b50829750879550505050505092915050565b60006020820190508181036000830152612b468184612ab7565b905092915050565b600080600080600060a08688031215612b6a57612b696122d7565b5b600086013567ffffffffffffffff811115612b8857612b876122dc565b5b612b9488828901612610565b955050602086013567ffffffffffffffff811115612bb557612bb46122dc565b5b612bc188828901612610565b945050604086013567ffffffffffffffff811115612be257612be16122dc565b5b612bee88828901612610565b935050606086013567ffffffffffffffff811115612c0f57612c0e6122dc565b5b612c1b88828901612610565b925050608086013567ffffffffffffffff811115612c3c57612c3b6122dc565b5b612c4888828901612610565b9150509295509295909350565b600060a0820190508181036000830152612c6f81886123c3565b90508181036020830152612c8381876123c3565b90508181036040830152612c9781866123c3565b90508181036060830152612cab81856123c3565b9050612cba60808301846124df565b9695505050505050565b6000819050919050565b612cd781612cc4565b8114612ce257600080fd5b50565b600081359050612cf481612cce565b92915050565b60008060408385031215612d1157612d106122d7565b5b6000612d1f8582860161232a565b9250506020612d3085828601612ce5565b9150509250929050565b612d4381612cc4565b82525050565b600060a082019050612d5e6000830188612d3a565b612d6b6020830187612408565b612d7860408301866124df565b612d8560608301856124df565b612d926080830184612408565b9695505050505050565b612da581612cc4565b82525050565b60a082016000820151612dc16000850182612d9c565b506020820151612dd4602085018261299d565b506040820151612de76040850182612774565b506060820151612dfa6060850182612774565b506080820151612e0d608085018261299d565b50505050565b600060a082019050612e286000830184612dab565b92915050565b600081519050919050565b600082825260208201905092915050565b6000819050602082019050919050565b6000612e66838361273b565b905092915050565b6000602082019050919050565b6000612e8682612e2e565b612e908185612e39565b935083602082028501612ea285612e4a565b8060005b85811015612ede5784840389528151612ebf8582612e5a565b9450612eca83612e6e565b925060208a01995050600181019050612ea6565b50829750879550505050505092915050565b60006020820190508181036000830152612f0a8184612e7b565b905092915050565b600060208284031215612f2857612f276122d7565b5b6000612f3684828501612468565b91505092915050565b612f4881612301565b82525050565b6000606082019050612f636000830186612f3f565b8181036020830152612f7581856123c3565b9050612f8460408301846124df565b949350505050565b7f4e487b7100000000000000000000000000000000000000000000000000000000600052602260045260246000fd5b60006002820490506001821680612fd357607f821691505b602082108103612fe657612fe5612f8c565b5b50919050565b7f757365725f616c72656164795f65786973747300000000000000000000000000600082015250565b6000613022601383612377565b915061302d82612fec565b602082019050919050565b6000602082019050818103600083015261305181613015565b9050919050565b7f4e487b7100000000000000000000000000000000000000000000000000000000600052602160045260246000fd5b60008190508160005260206000209050919050565b60006020601f8301049050919050565b600082821b905092915050565b6000600883026130e97fffffffffffffffffffffffffffffffffffffffffffffffffffffffffffffffff826130ac565b6130f386836130ac565b95508019841693508086168417925050509392505050565b6000819050919050565b600061313061312b61312684612447565b61310b565b612447565b9050919050565b6000819050919050565b61314a83613115565b61315e61315682613137565b8484546130b9565b825550505050565b600090565b613173613166565b61317e818484613141565b505050565b5b818110156131a25761319760008261316b565b600181019050613184565b5050565b601f8211156131e7576131b881613087565b6131c18461309c565b810160208510156131d0578190505b6131e46131dc8561309c565b830182613183565b50505b505050565b600082821c905092915050565b600061320a600019846008026131ec565b1980831691505092915050565b600061322383836131f9565b9150826002028217905092915050565b61323c8261236c565b67ffffffffffffffff81111561325557613254612513565b5b61325f8254612fbb565b61326a8282856131a6565b600060209050601f83116001811461329d576000841561328b578287015190505b6132958582613217565b8655506132fd565b601f1984166132ab86613087565b60005b828110156132d3578489015182556001820191506020850194506020810190506132ae565b868310156132f057848901516132ec601f8916826131f9565b8355505b6001600288020188555050505b505050505050565b7f696e76616c69645f746f6b656e00000000000000000000000000000000000000600082015250565b600061333b600d83612377565b915061334682613305565b602082019050919050565b6000602082019050818103600083015261336a8161332e565b9050919050565b7f657870697265645f746f6b656e00000000000000000000000000000000000000600082015250565b60006133a7600d83612377565b91506133b282613371565b602082019050919050565b600060208201905081810360008301526133d68161339a565b9050919050565b7f757365725f646f65735f6e6f745f657869737400000000000000000000000000600082015250565b6000613413601383612377565b915061341e826133dd565b602082019050919050565b6000602082019050818103600083015261344281613406565b9050919050565b7f4e487b7100000000000000000000000000000000000000000000000000000000600052601160045260246000fd5b600061348382612447565b915061348e83612447565b92508282019050808211156134a6576134a5613449565b5b92915050565b7f7265666572656e63655f616c72656164795f6578697374730000000000000000600082015250565b60006134e2601883612377565b91506134ed826134ac565b602082019050919050565b60006020820190508181036000830152613511816134d5565b9050919050565b600061352382612447565b91506000820361353657613535613449565b5b600182039050919050565b7f4e487b7100000000000000000000000000000000000000000000000000000000600052603260045260246000fd5b600061357b82612447565b91507fffffffffffffffffffffffffffffffffffffffffffffffffffffffffffffffff82036135ad576135ac613449565b5b60018201905091905056fea2646970667358221220e40f362e2961390de114192a0fb7bf100eb919c273509609e4446d4f7e7f807964736f6c63430008110033",
  "immutableReferences": {},
  "source": "// SPDX-License-Identifier: GPL-3.0\r\npragma solidity >=0.5.0 <0.9.0;\r\n\r\nimport {StringUtils, ArrayUtils, ByteUtils} from \"../utils/Utilities.sol\";\r\n\r\ncontract References {\r\n    using StringUtils for *;\r\n    using ArrayUtils for *;\r\n    using ByteUtils for *;\r\n\r\n    uint256 public constant UNIX_DAY = 86400;\r\n\r\n    enum AccountType {\r\n        Patient,\r\n        Professional\r\n    }\r\n\r\n    struct Account {\r\n        address id;\r\n        string name;\r\n        uint256 accountType;\r\n    }\r\n\r\n    struct Patient {\r\n        string name;\r\n        bool instanced;\r\n    }\r\n\r\n    struct Professional {\r\n        string name;\r\n        string workplace;\r\n        bool instanced;\r\n    }\r\n\r\n    struct Reference {\r\n        string id;\r\n        string name;\r\n        string from;\r\n        string resourceType;\r\n        uint256 date;\r\n    }\r\n\r\n    struct Token {\r\n        bytes32 token;\r\n        bool valid;\r\n        uint256 validUntil;\r\n        uint256 usesLeft;\r\n        bool instanced;\r\n    }\r\n\r\n    Account[] public accounts;\r\n    mapping(address => Patient) public patients;\r\n    mapping(address => Reference[]) public references;\r\n    mapping(address => string[]) public referenceIds;\r\n\r\n    //token mappings\r\n    mapping(address => mapping(bytes32 => Token)) public tokens;\r\n\r\n    modifier requireInstancedPatient() {\r\n        require(patients[msg.sender].instanced, \"user_does_not_exist\");\r\n        _;\r\n    }\r\n\r\n    constructor() {}\r\n\r\n    function addUser(string memory _name) public returns (bool) {\r\n        // check if user is already present\r\n        require(!patients[msg.sender].instanced, \"user_already_exists\");\r\n\r\n        // register user\r\n        accounts.push(\r\n            Account({\r\n                id: msg.sender,\r\n                name: _name,\r\n                accountType: uint256(AccountType.Patient)\r\n            })\r\n        );\r\n\r\n        patients[msg.sender].name = _name;\r\n        patients[msg.sender].instanced = true;\r\n        return true;\r\n    }\r\n\r\n    function getUser() public view returns (Patient memory) {\r\n        return patients[msg.sender];\r\n    }\r\n\r\n    function createReference(\r\n        string memory _id,\r\n        string memory _name,\r\n        string memory _type,\r\n        string memory _from\r\n    ) public requireInstancedPatient returns (bool) {\r\n        // check if a reference with this id is instanced\r\n        require(\r\n            !referenceIds[msg.sender].contains(_id),\r\n            \"reference_already_exists\"\r\n        );\r\n\r\n        //add reference\r\n        referenceIds[msg.sender].push(_id);\r\n\r\n        references[msg.sender].push(\r\n            Reference({\r\n                id: _id,\r\n                name: _name,\r\n                from: _from,\r\n                resourceType: _type,\r\n                date: block.timestamp\r\n            })\r\n        );\r\n\r\n        return true;\r\n    }\r\n\r\n    function listReferenceIds()\r\n        public\r\n        view\r\n        requireInstancedPatient\r\n        returns (string[] memory)\r\n    {\r\n        return referenceIds[msg.sender];\r\n    }\r\n\r\n    function listReferences()\r\n        public\r\n        view\r\n        requireInstancedPatient\r\n        returns (Reference[] memory)\r\n    {\r\n        return references[msg.sender];\r\n    }\r\n\r\n    function listPatients() public view returns (Account[] memory) {\r\n        return accounts;\r\n    }\r\n\r\n    function createToken(string memory _token)\r\n        public\r\n        requireInstancedPatient\r\n        returns (bool)\r\n    {\r\n        bytes32 tokenHash = _token.getHash();\r\n\r\n        tokens[msg.sender][tokenHash] = Token({\r\n            token: tokenHash,\r\n            valid: true,\r\n            validUntil: block.timestamp + UNIX_DAY,\r\n            usesLeft: 1,\r\n            instanced: true\r\n        });\r\n\r\n        return true;\r\n    }\r\n\r\n    function getToken(string memory _tokenString)\r\n        public\r\n        view\r\n        returns (Token memory)\r\n    {\r\n        bytes32 tokenHash = _tokenString.getHash();\r\n        return tokens[msg.sender][tokenHash];\r\n    }\r\n\r\n    function listReferencesThird(address _patient, string memory _tokenString)\r\n        public\r\n        view\r\n        returns (Reference[] memory)\r\n    {\r\n        bytes32 tokenHash = _tokenString.getHash();\r\n\r\n        Token memory token = tokens[_patient][tokenHash];\r\n        require(token.instanced && token.valid, \"invalid_token\");\r\n        require(token.validUntil >= block.timestamp, \"expired_token\");\r\n\r\n        return references[_patient];\r\n    }\r\n\r\n    function createReferenceThird(\r\n        string memory _tokenString,\r\n        string memory _id,\r\n        string memory _name,\r\n        string memory _type,\r\n        string memory _from\r\n    ) public returns (bool) {\r\n        bytes32 tokenHash = _tokenString.getHash();\r\n\r\n        Token memory token = tokens[msg.sender][tokenHash];\r\n        require(token.instanced && token.valid, \"invalid_token\");\r\n        require(token.validUntil >= block.timestamp, \"expired_token\");\r\n\r\n        // check if a reference with this id is instanced\r\n        require(\r\n            !referenceIds[msg.sender].contains(_id),\r\n            \"reference_already_exists\"\r\n        );\r\n\r\n        //add reference\r\n        referenceIds[msg.sender].push(_id);\r\n\r\n        references[msg.sender].push(\r\n            Reference({\r\n                id: _id,\r\n                name: _name,\r\n                from: _from,\r\n                resourceType: _type,\r\n                date: block.timestamp\r\n            })\r\n        );\r\n\r\n        tokens[msg.sender][tokenHash].usesLeft--;\r\n        if (tokens[msg.sender][tokenHash].usesLeft == 0)\r\n            tokens[msg.sender][tokenHash].valid = false;\r\n\r\n        return true;\r\n    }\r\n}\r\n",
  "sourcePath": "D:\\.higia\\backend-smartcontracts\\src\\contracts\\references.sol",
  "compiler": {
    "name": "solc",
    "version": "0.8.17+commit.8df45f5f.Emscripten.clang"
  },
  "schemaVersion": "3.4.9",
  "updatedAt": "2022-09-21T03:18:11.221Z",
  "networkType": "ethereum",
  "devdoc": {
    "kind": "dev",
    "methods": {},
    "version": 1
  },
  "userdoc": {
    "kind": "user",
    "methods": {},
    "version": 1
  }
}