{
  "contractName": "References",
  "abi": [
    {
      "inputs": [],
      "stateMutability": "nonpayable",
      "type": "constructor"
    },
    {
      "inputs": [],
      "name": "UNIX_DAY",
      "outputs": [
        {
          "internalType": "uint256",
          "name": "",
          "type": "uint256"
        }
      ],
      "stateMutability": "view",
      "type": "function",
      "constant": true
    },
    {
      "inputs": [
        {
          "internalType": "uint256",
          "name": "",
          "type": "uint256"
        }
      ],
      "name": "accounts",
      "outputs": [
        {
          "internalType": "address",
          "name": "id",
          "type": "address"
        },
        {
          "internalType": "string",
          "name": "name",
          "type": "string"
        },
        {
          "internalType": "uint256",
          "name": "accountType",
          "type": "uint256"
        }
      ],
      "stateMutability": "view",
      "type": "function",
      "constant": true
    },
    {
      "inputs": [
        {
          "internalType": "address",
          "name": "",
          "type": "address"
        }
      ],
      "name": "patients",
      "outputs": [
        {
          "internalType": "string",
          "name": "name",
          "type": "string"
        },
        {
          "internalType": "bool",
          "name": "instanced",
          "type": "bool"
        }
      ],
      "stateMutability": "view",
      "type": "function",
      "constant": true
    },
    {
      "inputs": [
        {
          "internalType": "address",
          "name": "",
          "type": "address"
        },
        {
          "internalType": "uint256",
          "name": "",
          "type": "uint256"
        }
      ],
      "name": "referenceIds",
      "outputs": [
        {
          "internalType": "string",
          "name": "",
          "type": "string"
        }
      ],
      "stateMutability": "view",
      "type": "function",
      "constant": true
    },
    {
      "inputs": [
        {
          "internalType": "address",
          "name": "",
          "type": "address"
        },
        {
          "internalType": "uint256",
          "name": "",
          "type": "uint256"
        }
      ],
      "name": "references",
      "outputs": [
        {
          "internalType": "string",
          "name": "id",
          "type": "string"
        },
        {
          "internalType": "string",
          "name": "name",
          "type": "string"
        },
        {
          "internalType": "string",
          "name": "from",
          "type": "string"
        },
        {
          "internalType": "string",
          "name": "resourceType",
          "type": "string"
        },
        {
          "internalType": "uint256",
          "name": "date",
          "type": "uint256"
        }
      ],
      "stateMutability": "view",
      "type": "function",
      "constant": true
    },
    {
      "inputs": [
        {
          "internalType": "address",
          "name": "",
          "type": "address"
        },
        {
          "internalType": "bytes32",
          "name": "",
          "type": "bytes32"
        }
      ],
      "name": "tokens",
      "outputs": [
        {
          "internalType": "bytes32",
          "name": "token",
          "type": "bytes32"
        },
        {
          "internalType": "bool",
          "name": "valid",
          "type": "bool"
        },
        {
          "internalType": "uint256",
          "name": "validUntil",
          "type": "uint256"
        },
        {
          "internalType": "uint256",
          "name": "usesLeft",
          "type": "uint256"
        },
        {
          "internalType": "bool",
          "name": "instanced",
          "type": "bool"
        }
      ],
      "stateMutability": "view",
      "type": "function",
      "constant": true
    },
    {
      "inputs": [
        {
          "internalType": "string",
          "name": "_id",
          "type": "string"
        },
        {
          "internalType": "string",
          "name": "_name",
          "type": "string"
        }
      ],
      "name": "addUser",
      "outputs": [
        {
          "internalType": "bool",
          "name": "",
          "type": "bool"
        }
      ],
      "stateMutability": "nonpayable",
      "type": "function"
    },
    {
      "inputs": [],
      "name": "getUser",
      "outputs": [
        {
          "components": [
            {
              "internalType": "string",
              "name": "name",
              "type": "string"
            },
            {
              "internalType": "bool",
              "name": "instanced",
              "type": "bool"
            }
          ],
          "internalType": "struct References.Patient",
          "name": "",
          "type": "tuple"
        }
      ],
      "stateMutability": "view",
      "type": "function",
      "constant": true
    },
    {
      "inputs": [
        {
          "internalType": "string",
          "name": "_id",
          "type": "string"
        },
        {
          "internalType": "string",
          "name": "_name",
          "type": "string"
        },
        {
          "internalType": "string",
          "name": "_type",
          "type": "string"
        },
        {
          "internalType": "string",
          "name": "_from",
          "type": "string"
        }
      ],
      "name": "createReference",
      "outputs": [
        {
          "internalType": "bool",
          "name": "",
          "type": "bool"
        }
      ],
      "stateMutability": "nonpayable",
      "type": "function"
    },
    {
      "inputs": [],
      "name": "listReferenceIds",
      "outputs": [
        {
          "internalType": "string[]",
          "name": "",
          "type": "string[]"
        }
      ],
      "stateMutability": "view",
      "type": "function",
      "constant": true
    },
    {
      "inputs": [],
      "name": "listReferences",
      "outputs": [
        {
          "components": [
            {
              "internalType": "string",
              "name": "id",
              "type": "string"
            },
            {
              "internalType": "string",
              "name": "name",
              "type": "string"
            },
            {
              "internalType": "string",
              "name": "from",
              "type": "string"
            },
            {
              "internalType": "string",
              "name": "resourceType",
              "type": "string"
            },
            {
              "internalType": "uint256",
              "name": "date",
              "type": "uint256"
            }
          ],
          "internalType": "struct References.Reference[]",
          "name": "",
          "type": "tuple[]"
        }
      ],
      "stateMutability": "view",
      "type": "function",
      "constant": true
    },
    {
      "inputs": [],
      "name": "listPatients",
      "outputs": [
        {
          "components": [
            {
              "internalType": "address",
              "name": "id",
              "type": "address"
            },
            {
              "internalType": "string",
              "name": "name",
              "type": "string"
            },
            {
              "internalType": "uint256",
              "name": "accountType",
              "type": "uint256"
            }
          ],
          "internalType": "struct References.Account[]",
          "name": "",
          "type": "tuple[]"
        }
      ],
      "stateMutability": "view",
      "type": "function",
      "constant": true
    },
    {
      "inputs": [
        {
          "internalType": "string",
          "name": "_token",
          "type": "string"
        }
      ],
      "name": "createToken",
      "outputs": [
        {
          "internalType": "bool",
          "name": "",
          "type": "bool"
        }
      ],
      "stateMutability": "nonpayable",
      "type": "function"
    },
    {
      "inputs": [
        {
          "internalType": "string",
          "name": "_tokenString",
          "type": "string"
        }
      ],
      "name": "getToken",
      "outputs": [
        {
          "components": [
            {
              "internalType": "bytes32",
              "name": "token",
              "type": "bytes32"
            },
            {
              "internalType": "bool",
              "name": "valid",
              "type": "bool"
            },
            {
              "internalType": "uint256",
              "name": "validUntil",
              "type": "uint256"
            },
            {
              "internalType": "uint256",
              "name": "usesLeft",
              "type": "uint256"
            },
            {
              "internalType": "bool",
              "name": "instanced",
              "type": "bool"
            }
          ],
          "internalType": "struct References.Token",
          "name": "",
          "type": "tuple"
        }
      ],
      "stateMutability": "view",
      "type": "function",
      "constant": true
    },
    {
      "inputs": [
        {
          "internalType": "address",
          "name": "_address",
          "type": "address"
        },
        {
          "internalType": "string",
          "name": "_tokenString",
          "type": "string"
        }
      ],
      "name": "validateToken",
      "outputs": [
        {
          "internalType": "bool",
          "name": "",
          "type": "bool"
        }
      ],
      "stateMutability": "view",
      "type": "function",
      "constant": true
    },
    {
      "inputs": [
        {
          "internalType": "address",
          "name": "_patient",
          "type": "address"
        },
        {
          "internalType": "string",
          "name": "_tokenString",
          "type": "string"
        }
      ],
      "name": "listReferencesThird",
      "outputs": [
        {
          "components": [
            {
              "internalType": "string",
              "name": "id",
              "type": "string"
            },
            {
              "internalType": "string",
              "name": "name",
              "type": "string"
            },
            {
              "internalType": "string",
              "name": "from",
              "type": "string"
            },
            {
              "internalType": "string",
              "name": "resourceType",
              "type": "string"
            },
            {
              "internalType": "uint256",
              "name": "date",
              "type": "uint256"
            }
          ],
          "internalType": "struct References.Reference[]",
          "name": "",
          "type": "tuple[]"
        }
      ],
      "stateMutability": "view",
      "type": "function",
      "constant": true
    },
    {
      "inputs": [
        {
          "internalType": "string",
          "name": "_tokenString",
          "type": "string"
        },
        {
          "internalType": "string",
          "name": "_id",
          "type": "string"
        },
        {
          "internalType": "string",
          "name": "_name",
          "type": "string"
        },
        {
          "internalType": "string",
          "name": "_type",
          "type": "string"
        },
        {
          "internalType": "string",
          "name": "_from",
          "type": "string"
        }
      ],
      "name": "createReferenceThird",
      "outputs": [
        {
          "internalType": "bool",
          "name": "",
          "type": "bool"
        }
      ],
      "stateMutability": "nonpayable",
      "type": "function"
    },
    {
      "inputs": [
        {
          "internalType": "string",
          "name": "a",
          "type": "string"
        },
        {
          "internalType": "string",
          "name": "b",
          "type": "string"
        }
      ],
      "name": "compareStrings",
      "outputs": [
        {
          "internalType": "bool",
          "name": "",
          "type": "bool"
        }
      ],
      "stateMutability": "view",
      "type": "function",
      "constant": true
    }
  ],
  "bytecode": "0x608060405234801561001057600080fd5b50613962806100206000396000f3fe608060405234801561001057600080fd5b50600436106101165760003560e01c80639e3ce876116100a2578063c1733f6811610071578063c1733f681461035e578063c212d65f1461038e578063c5a2a18e146103ac578063f2a40db8146103ca578063f91d099c146103fc57610116565b80639e3ce87614610296578063a4dec788146102c6578063a9964d1c146102fa578063bed34bba1461032e57610116565b80634208adc7116100e95780634208adc7146101ca57806345576f94146101fa578063605027f11461022a578063832880e71461025a5780639d2ff01e1461027857610116565b8063079eaf341461011b5780630869cfbc1461014b578063138a5e811461017c578063177cf218146101ac575b600080fd5b610135600480360381019061013091906126d0565b61042c565b6040516101429190612763565b60405180910390f35b610165600480360381019061016091906127dc565b6106be565b604051610173929190612888565b60405180910390f35b610196600480360381019061019191906128ee565b610777565b6040516101a3919061292e565b60405180910390f35b6101b4610830565b6040516101c1919061295f565b60405180910390f35b6101e460048036038101906101df919061297a565b610837565b6040516101f19190612b7c565b60405180910390f35b610214600480360381019061020f9190612b9e565b610c82565b6040516102219190612763565b60405180910390f35b610244600480360381019061023f9190612be7565b610e17565b6040516102519190612763565b60405180910390f35b61026261117a565b60405161026f9190612d0a565b60405180910390f35b61028061127e565b60405161028d9190612e4d565b60405180910390f35b6102b060048036038101906102ab9190612e6f565b6113cf565b6040516102bd9190612763565b60405180910390f35b6102e060048036038101906102db91906128ee565b61192e565b6040516102f1959493929190612f76565b60405180910390f35b610314600480360381019061030f919061301b565b611ba1565b60405161032595949392919061306a565b60405180910390f35b610348600480360381019061034391906126d0565b611bfe565b6040516103559190612763565b60405180910390f35b61037860048036038101906103739190612b9e565b611c57565b6040516103859190613134565b60405180910390f35b610396611d23565b6040516103a39190612b7c565b60405180910390f35b6103b46120a0565b6040516103c19190613211565b60405180910390f35b6103e460048036038101906103df9190613233565b612245565b6040516103f39392919061326f565b60405180910390f35b6104166004803603810190610411919061297a565b612327565b6040516104239190612763565b60405180910390f35b6000600160003373ffffffffffffffffffffffffffffffffffffffff1673ffffffffffffffffffffffffffffffffffffffff16815260200190815260200160002060010160009054906101000a900460ff16156104be576040517f08c379a00000000000000000000000000000000000000000000000000000000081526004016104b5906132f9565b60405180910390fd5b600060405180606001604052803373ffffffffffffffffffffffffffffffffffffffff1681526020018481526020016000600181111561050157610500613319565b5b815250908060018154018082558091505060019003906000526020600020906003020160009091909190915060008201518160000160006101000a81548173ffffffffffffffffffffffffffffffffffffffff021916908373ffffffffffffffffffffffffffffffffffffffff16021790555060208201518160010190816105899190613554565b5060408201518160020155505081600160003373ffffffffffffffffffffffffffffffffffffffff1673ffffffffffffffffffffffffffffffffffffffff16815260200190815260200160002060000190816105e59190613554565b5060018060003373ffffffffffffffffffffffffffffffffffffffff1673ffffffffffffffffffffffffffffffffffffffff16815260200190815260200160002060010160006101000a81548160ff0219169083151502179055506106b683836040518060400160405280600781526020017f50617469656e74000000000000000000000000000000000000000000000000008152506040518060400160405280600481526020017f73656c6600000000000000000000000000000000000000000000000000000000815250610e17565b905092915050565b60016020528060005260406000206000915090508060000180546106e190613377565b80601f016020809104026020016040519081016040528092919081815260200182805461070d90613377565b801561075a5780601f1061072f5761010080835404028352916020019161075a565b820191906000526020600020905b81548152906001019060200180831161073d57829003601f168201915b5050505050908060010160009054906101000a900460ff16905082565b6003602052816000526040600020818154811061079357600080fd5b906000526020600020016000915091505080546107af90613377565b80601f01602080910402602001604051908101604052809291908181526020018280546107db90613377565b80156108285780601f106107fd57610100808354040283529160200191610828565b820191906000526020600020905b81548152906001019060200180831161080b57829003601f168201915b505050505081565b6201518081565b606060006108448361248c565b90506000600460008673ffffffffffffffffffffffffffffffffffffffff1673ffffffffffffffffffffffffffffffffffffffff16815260200190815260200160002060008381526020019081526020016000206040518060a0016040529081600082015481526020016001820160009054906101000a900460ff1615151515815260200160028201548152602001600382015481526020016004820160009054906101000a900460ff16151515158152505090508060800151801561090b575080602001515b61094a576040517f08c379a000000000000000000000000000000000000000000000000000000000815260040161094190613672565b60405180910390fd5b4281604001511015610991576040517f08c379a0000000000000000000000000000000000000000000000000000000008152600401610988906136de565b60405180910390fd5b600260008673ffffffffffffffffffffffffffffffffffffffff1673ffffffffffffffffffffffffffffffffffffffff168152602001908152602001600020805480602002602001604051908101604052809291908181526020016000905b82821015610c7457838290600052602060002090600502016040518060a0016040529081600082018054610a2390613377565b80601f0160208091040260200160405190810160405280929190818152602001828054610a4f90613377565b8015610a9c5780601f10610a7157610100808354040283529160200191610a9c565b820191906000526020600020905b815481529060010190602001808311610a7f57829003601f168201915b50505050508152602001600182018054610ab590613377565b80601f0160208091040260200160405190810160405280929190818152602001828054610ae190613377565b8015610b2e5780601f10610b0357610100808354040283529160200191610b2e565b820191906000526020600020905b815481529060010190602001808311610b1157829003601f168201915b50505050508152602001600282018054610b4790613377565b80601f0160208091040260200160405190810160405280929190818152602001828054610b7390613377565b8015610bc05780601f10610b9557610100808354040283529160200191610bc0565b820191906000526020600020905b815481529060010190602001808311610ba357829003601f168201915b50505050508152602001600382018054610bd990613377565b80601f0160208091040260200160405190810160405280929190818152602001828054610c0590613377565b8015610c525780601f10610c2757610100808354040283529160200191610c52565b820191906000526020600020905b815481529060010190602001808311610c3557829003601f168201915b50505050508152602001600482015481525050815260200190600101906109f0565b505050509250505092915050565b6000600160003373ffffffffffffffffffffffffffffffffffffffff1673ffffffffffffffffffffffffffffffffffffffff16815260200190815260200160002060010160009054906101000a900460ff16610d13576040517f08c379a0000000000000000000000000000000000000000000000000000000008152600401610d0a9061374a565b60405180910390fd5b6000610d1e8361248c565b90506040518060a001604052808281526020016001151581526020016201518042610d499190613799565b81526020016001815260200160011515815250600460003373ffffffffffffffffffffffffffffffffffffffff1673ffffffffffffffffffffffffffffffffffffffff16815260200190815260200160002060008381526020019081526020016000206000820151816000015560208201518160010160006101000a81548160ff021916908315150217905550604082015181600201556060820151816003015560808201518160040160006101000a81548160ff0219169083151502179055509050506001915050919050565b6000600160003373ffffffffffffffffffffffffffffffffffffffff1673ffffffffffffffffffffffffffffffffffffffff16815260200190815260200160002060010160009054906101000a900460ff16610ea8576040517f08c379a0000000000000000000000000000000000000000000000000000000008152600401610e9f9061374a565b60405180910390fd5b610fc985600360003373ffffffffffffffffffffffffffffffffffffffff1673ffffffffffffffffffffffffffffffffffffffff168152602001908152602001600020805480602002602001604051908101604052809291908181526020016000905b82821015610fb7578382906000526020600020018054610f2a90613377565b80601f0160208091040260200160405190810160405280929190818152602001828054610f5690613377565b8015610fa35780601f10610f7857610100808354040283529160200191610fa3565b820191906000526020600020905b815481529060010190602001808311610f8657829003601f168201915b505050505081526020019060010190610f0b565b5050505061249d90919063ffffffff16565b15611009576040517f08c379a000000000000000000000000000000000000000000000000000000000815260040161100090613819565b60405180910390fd5b600360003373ffffffffffffffffffffffffffffffffffffffff1673ffffffffffffffffffffffffffffffffffffffff1681526020019081526020016000208590806001815401808255809150506001900390600052602060002001600090919091909150908161107a9190613554565b50600260003373ffffffffffffffffffffffffffffffffffffffff1673ffffffffffffffffffffffffffffffffffffffff1681526020019081526020016000206040518060a00160405280878152602001868152602001848152602001858152602001428152509080600181540180825580915050600190039060005260206000209060050201600090919091909150600082015181600001908161111f9190613554565b5060208201518160010190816111359190613554565b50604082015181600201908161114b9190613554565b5060608201518160030190816111619190613554565b5060808201518160040155505060019050949350505050565b611182612524565b600160003373ffffffffffffffffffffffffffffffffffffffff1673ffffffffffffffffffffffffffffffffffffffff1681526020019081526020016000206040518060400160405290816000820180546111dc90613377565b80601f016020809104026020016040519081016040528092919081815260200182805461120890613377565b80156112555780601f1061122a57610100808354040283529160200191611255565b820191906000526020600020905b81548152906001019060200180831161123857829003601f168201915b505050505081526020016001820160009054906101000a900460ff161515151581525050905090565b60606000805480602002602001604051908101604052809291908181526020016000905b828210156113c657838290600052602060002090600302016040518060600160405290816000820160009054906101000a900473ffffffffffffffffffffffffffffffffffffffff1673ffffffffffffffffffffffffffffffffffffffff1673ffffffffffffffffffffffffffffffffffffffff16815260200160018201805461132b90613377565b80601f016020809104026020016040519081016040528092919081815260200182805461135790613377565b80156113a45780601f10611379576101008083540402835291602001916113a4565b820191906000526020600020905b81548152906001019060200180831161138757829003601f168201915b50505050508152602001600282015481525050815260200190600101906112a2565b50505050905090565b6000806113db8761248c565b90506000600460003373ffffffffffffffffffffffffffffffffffffffff1673ffffffffffffffffffffffffffffffffffffffff16815260200190815260200160002060008381526020019081526020016000206040518060a0016040529081600082015481526020016001820160009054906101000a900460ff1615151515815260200160028201548152602001600382015481526020016004820160009054906101000a900460ff1615151515815250509050806080015180156114a2575080602001515b6114e1576040517f08c379a00000000000000000000000000000000000000000000000000000000081526004016114d890613672565b60405180910390fd5b4281604001511015611528576040517f08c379a000000000000000000000000000000000000000000000000000000000815260040161151f906136de565b60405180910390fd5b61164987600360003373ffffffffffffffffffffffffffffffffffffffff1673ffffffffffffffffffffffffffffffffffffffff168152602001908152602001600020805480602002602001604051908101604052809291908181526020016000905b828210156116375783829060005260206000200180546115aa90613377565b80601f01602080910402602001604051908101604052809291908181526020018280546115d690613377565b80156116235780601f106115f857610100808354040283529160200191611623565b820191906000526020600020905b81548152906001019060200180831161160657829003601f168201915b50505050508152602001906001019061158b565b5050505061249d90919063ffffffff16565b15611689576040517f08c379a000000000000000000000000000000000000000000000000000000000815260040161168090613819565b60405180910390fd5b600360003373ffffffffffffffffffffffffffffffffffffffff1673ffffffffffffffffffffffffffffffffffffffff168152602001908152602001600020879080600181540180825580915050600190039060005260206000200160009091909190915090816116fa9190613554565b50600260003373ffffffffffffffffffffffffffffffffffffffff1673ffffffffffffffffffffffffffffffffffffffff1681526020019081526020016000206040518060a00160405280898152602001888152602001868152602001878152602001428152509080600181540180825580915050600190039060005260206000209060050201600090919091909150600082015181600001908161179f9190613554565b5060208201518160010190816117b59190613554565b5060408201518160020190816117cb9190613554565b5060608201518160030190816117e19190613554565b50608082015181600401555050600460003373ffffffffffffffffffffffffffffffffffffffff1673ffffffffffffffffffffffffffffffffffffffff1681526020019081526020016000206000838152602001908152602001600020600301600081548092919061185290613839565b91905055506000600460003373ffffffffffffffffffffffffffffffffffffffff1673ffffffffffffffffffffffffffffffffffffffff1681526020019081526020016000206000848152602001908152602001600020600301540361191f576000600460003373ffffffffffffffffffffffffffffffffffffffff1673ffffffffffffffffffffffffffffffffffffffff168152602001908152602001600020600084815260200190815260200160002060010160006101000a81548160ff0219169083151502179055505b60019250505095945050505050565b6002602052816000526040600020818154811061194a57600080fd5b90600052602060002090600502016000915091505080600001805461196e90613377565b80601f016020809104026020016040519081016040528092919081815260200182805461199a90613377565b80156119e75780601f106119bc576101008083540402835291602001916119e7565b820191906000526020600020905b8154815290600101906020018083116119ca57829003601f168201915b5050505050908060010180546119fc90613377565b80601f0160208091040260200160405190810160405280929190818152602001828054611a2890613377565b8015611a755780601f10611a4a57610100808354040283529160200191611a75565b820191906000526020600020905b815481529060010190602001808311611a5857829003601f168201915b505050505090806002018054611a8a90613377565b80601f0160208091040260200160405190810160405280929190818152602001828054611ab690613377565b8015611b035780601f10611ad857610100808354040283529160200191611b03565b820191906000526020600020905b815481529060010190602001808311611ae657829003601f168201915b505050505090806003018054611b1890613377565b80601f0160208091040260200160405190810160405280929190818152602001828054611b4490613377565b8015611b915780601f10611b6657610100808354040283529160200191611b91565b820191906000526020600020905b815481529060010190602001808311611b7457829003601f168201915b5050505050908060040154905085565b6004602052816000526040600020602052806000526040600020600091509150508060000154908060010160009054906101000a900460ff16908060020154908060030154908060040160009054906101000a900460ff16905085565b600081604051602001611c11919061389e565b6040516020818303038152906040528051906020012083604051602001611c38919061389e565b6040516020818303038152906040528051906020012014905092915050565b611c5f612540565b6000611c6a8361248c565b9050600460003373ffffffffffffffffffffffffffffffffffffffff1673ffffffffffffffffffffffffffffffffffffffff16815260200190815260200160002060008281526020019081526020016000206040518060a0016040529081600082015481526020016001820160009054906101000a900460ff1615151515815260200160028201548152602001600382015481526020016004820160009054906101000a900460ff161515151581525050915050919050565b6060600160003373ffffffffffffffffffffffffffffffffffffffff1673ffffffffffffffffffffffffffffffffffffffff16815260200190815260200160002060010160009054906101000a900460ff16611db4576040517f08c379a0000000000000000000000000000000000000000000000000000000008152600401611dab9061374a565b60405180910390fd5b600260003373ffffffffffffffffffffffffffffffffffffffff1673ffffffffffffffffffffffffffffffffffffffff168152602001908152602001600020805480602002602001604051908101604052809291908181526020016000905b8282101561209757838290600052602060002090600502016040518060a0016040529081600082018054611e4690613377565b80601f0160208091040260200160405190810160405280929190818152602001828054611e7290613377565b8015611ebf5780601f10611e9457610100808354040283529160200191611ebf565b820191906000526020600020905b815481529060010190602001808311611ea257829003601f168201915b50505050508152602001600182018054611ed890613377565b80601f0160208091040260200160405190810160405280929190818152602001828054611f0490613377565b8015611f515780601f10611f2657610100808354040283529160200191611f51565b820191906000526020600020905b815481529060010190602001808311611f3457829003601f168201915b50505050508152602001600282018054611f6a90613377565b80601f0160208091040260200160405190810160405280929190818152602001828054611f9690613377565b8015611fe35780601f10611fb857610100808354040283529160200191611fe3565b820191906000526020600020905b815481529060010190602001808311611fc657829003601f168201915b50505050508152602001600382018054611ffc90613377565b80601f016020809104026020016040519081016040528092919081815260200182805461202890613377565b80156120755780601f1061204a57610100808354040283529160200191612075565b820191906000526020600020905b81548152906001019060200180831161205857829003601f168201915b5050505050815260200160048201548152505081526020019060010190611e13565b50505050905090565b6060600160003373ffffffffffffffffffffffffffffffffffffffff1673ffffffffffffffffffffffffffffffffffffffff16815260200190815260200160002060010160009054906101000a900460ff16612131576040517f08c379a00000000000000000000000000000000000000000000000000000000081526004016121289061374a565b60405180910390fd5b600360003373ffffffffffffffffffffffffffffffffffffffff1673ffffffffffffffffffffffffffffffffffffffff168152602001908152602001600020805480602002602001604051908101604052809291908181526020016000905b8282101561223c5783829060005260206000200180546121af90613377565b80601f01602080910402602001604051908101604052809291908181526020018280546121db90613377565b80156122285780601f106121fd57610100808354040283529160200191612228565b820191906000526020600020905b81548152906001019060200180831161220b57829003601f168201915b505050505081526020019060010190612190565b50505050905090565b6000818154811061225557600080fd5b90600052602060002090600302016000915090508060000160009054906101000a900473ffffffffffffffffffffffffffffffffffffffff169080600101805461229e90613377565b80601f01602080910402602001604051908101604052809291908181526020018280546122ca90613377565b80156123175780601f106122ec57610100808354040283529160200191612317565b820191906000526020600020905b8154815290600101906020018083116122fa57829003601f168201915b5050505050908060020154905083565b6000806123338361248c565b90506000600460008673ffffffffffffffffffffffffffffffffffffffff1673ffffffffffffffffffffffffffffffffffffffff16815260200190815260200160002060008381526020019081526020016000206040518060a0016040529081600082015481526020016001820160009054906101000a900460ff1615151515815260200160028201548152602001600382015481526020016004820160009054906101000a900460ff1615151515815250509050806080015180156123fa575080602001515b612439576040517f08c379a000000000000000000000000000000000000000000000000000000000815260040161243090613672565b60405180910390fd5b4281604001511015612480576040517f08c379a0000000000000000000000000000000000000000000000000000000008152600401612477906136de565b60405180910390fd5b60019250505092915050565b600081805190602001209050919050565b600080600090505b83518110156124fd576124db838583815181106124c5576124c46138b5565b5b602002602001015161250990919063ffffffff16565b156124ea576001915050612503565b80806124f5906138e4565b9150506124a5565b50600090505b92915050565b60008180519060200120838051906020012014905092915050565b6040518060400160405280606081526020016000151581525090565b6040518060a001604052806000801916815260200160001515815260200160008152602001600081526020016000151581525090565b6000604051905090565b600080fd5b600080fd5b600080fd5b600080fd5b6000601f19601f8301169050919050565b7f4e487b7100000000000000000000000000000000000000000000000000000000600052604160045260246000fd5b6125dd82612594565b810181811067ffffffffffffffff821117156125fc576125fb6125a5565b5b80604052505050565b600061260f612576565b905061261b82826125d4565b919050565b600067ffffffffffffffff82111561263b5761263a6125a5565b5b61264482612594565b9050602081019050919050565b82818337600083830152505050565b600061267361266e84612620565b612605565b90508281526020810184848401111561268f5761268e61258f565b5b61269a848285612651565b509392505050565b600082601f8301126126b7576126b661258a565b5b81356126c7848260208601612660565b91505092915050565b600080604083850312156126e7576126e6612580565b5b600083013567ffffffffffffffff81111561270557612704612585565b5b612711858286016126a2565b925050602083013567ffffffffffffffff81111561273257612731612585565b5b61273e858286016126a2565b9150509250929050565b60008115159050919050565b61275d81612748565b82525050565b60006020820190506127786000830184612754565b92915050565b600073ffffffffffffffffffffffffffffffffffffffff82169050919050565b60006127a98261277e565b9050919050565b6127b98161279e565b81146127c457600080fd5b50565b6000813590506127d6816127b0565b92915050565b6000602082840312156127f2576127f1612580565b5b6000612800848285016127c7565b91505092915050565b600081519050919050565b600082825260208201905092915050565b60005b83811015612843578082015181840152602081019050612828565b60008484015250505050565b600061285a82612809565b6128648185612814565b9350612874818560208601612825565b61287d81612594565b840191505092915050565b600060408201905081810360008301526128a2818561284f565b90506128b16020830184612754565b9392505050565b6000819050919050565b6128cb816128b8565b81146128d657600080fd5b50565b6000813590506128e8816128c2565b92915050565b6000806040838503121561290557612904612580565b5b6000612913858286016127c7565b9250506020612924858286016128d9565b9150509250929050565b60006020820190508181036000830152612948818461284f565b905092915050565b612959816128b8565b82525050565b60006020820190506129746000830184612950565b92915050565b6000806040838503121561299157612990612580565b5b600061299f858286016127c7565b925050602083013567ffffffffffffffff8111156129c0576129bf612585565b5b6129cc858286016126a2565b9150509250929050565b600081519050919050565b600082825260208201905092915050565b6000819050602082019050919050565b600082825260208201905092915050565b6000612a1e82612809565b612a288185612a02565b9350612a38818560208601612825565b612a4181612594565b840191505092915050565b612a55816128b8565b82525050565b600060a0830160008301518482036000860152612a788282612a13565b91505060208301518482036020860152612a928282612a13565b91505060408301518482036040860152612aac8282612a13565b91505060608301518482036060860152612ac68282612a13565b9150506080830151612adb6080860182612a4c565b508091505092915050565b6000612af28383612a5b565b905092915050565b6000602082019050919050565b6000612b12826129d6565b612b1c81856129e1565b935083602082028501612b2e856129f2565b8060005b85811015612b6a5784840389528151612b4b8582612ae6565b9450612b5683612afa565b925060208a01995050600181019050612b32565b50829750879550505050505092915050565b60006020820190508181036000830152612b968184612b07565b905092915050565b600060208284031215612bb457612bb3612580565b5b600082013567ffffffffffffffff811115612bd257612bd1612585565b5b612bde848285016126a2565b91505092915050565b60008060008060808587031215612c0157612c00612580565b5b600085013567ffffffffffffffff811115612c1f57612c1e612585565b5b612c2b878288016126a2565b945050602085013567ffffffffffffffff811115612c4c57612c4b612585565b5b612c58878288016126a2565b935050604085013567ffffffffffffffff811115612c7957612c78612585565b5b612c85878288016126a2565b925050606085013567ffffffffffffffff811115612ca657612ca5612585565b5b612cb2878288016126a2565b91505092959194509250565b612cc781612748565b82525050565b60006040830160008301518482036000860152612cea8282612a13565b9150506020830151612cff6020860182612cbe565b508091505092915050565b60006020820190508181036000830152612d248184612ccd565b905092915050565b600081519050919050565b600082825260208201905092915050565b6000819050602082019050919050565b612d618161279e565b82525050565b6000606083016000830151612d7f6000860182612d58565b5060208301518482036020860152612d978282612a13565b9150506040830151612dac6040860182612a4c565b508091505092915050565b6000612dc38383612d67565b905092915050565b6000602082019050919050565b6000612de382612d2c565b612ded8185612d37565b935083602082028501612dff85612d48565b8060005b85811015612e3b5784840389528151612e1c8582612db7565b9450612e2783612dcb565b925060208a01995050600181019050612e03565b50829750879550505050505092915050565b60006020820190508181036000830152612e678184612dd8565b905092915050565b600080600080600060a08688031215612e8b57612e8a612580565b5b600086013567ffffffffffffffff811115612ea957612ea8612585565b5b612eb5888289016126a2565b955050602086013567ffffffffffffffff811115612ed657612ed5612585565b5b612ee2888289016126a2565b945050604086013567ffffffffffffffff811115612f0357612f02612585565b5b612f0f888289016126a2565b935050606086013567ffffffffffffffff811115612f3057612f2f612585565b5b612f3c888289016126a2565b925050608086013567ffffffffffffffff811115612f5d57612f5c612585565b5b612f69888289016126a2565b9150509295509295909350565b600060a0820190508181036000830152612f90818861284f565b90508181036020830152612fa4818761284f565b90508181036040830152612fb8818661284f565b90508181036060830152612fcc818561284f565b9050612fdb6080830184612950565b9695505050505050565b6000819050919050565b612ff881612fe5565b811461300357600080fd5b50565b60008135905061301581612fef565b92915050565b6000806040838503121561303257613031612580565b5b6000613040858286016127c7565b925050602061305185828601613006565b9150509250929050565b61306481612fe5565b82525050565b600060a08201905061307f600083018861305b565b61308c6020830187612754565b6130996040830186612950565b6130a66060830185612950565b6130b36080830184612754565b9695505050505050565b6130c681612fe5565b82525050565b60a0820160008201516130e260008501826130bd565b5060208201516130f56020850182612cbe565b5060408201516131086040850182612a4c565b50606082015161311b6060850182612a4c565b50608082015161312e6080850182612cbe565b50505050565b600060a08201905061314960008301846130cc565b92915050565b600081519050919050565b600082825260208201905092915050565b6000819050602082019050919050565b60006131878383612a13565b905092915050565b6000602082019050919050565b60006131a78261314f565b6131b1818561315a565b9350836020820285016131c38561316b565b8060005b858110156131ff57848403895281516131e0858261317b565b94506131eb8361318f565b925060208a019950506001810190506131c7565b50829750879550505050505092915050565b6000602082019050818103600083015261322b818461319c565b905092915050565b60006020828403121561324957613248612580565b5b6000613257848285016128d9565b91505092915050565b6132698161279e565b82525050565b60006060820190506132846000830186613260565b8181036020830152613296818561284f565b90506132a56040830184612950565b949350505050565b7f757365725f616c72656164795f65786973747300000000000000000000000000600082015250565b60006132e3601383612814565b91506132ee826132ad565b602082019050919050565b60006020820190508181036000830152613312816132d6565b9050919050565b7f4e487b7100000000000000000000000000000000000000000000000000000000600052602160045260246000fd5b7f4e487b7100000000000000000000000000000000000000000000000000000000600052602260045260246000fd5b6000600282049050600182168061338f57607f821691505b6020821081036133a2576133a1613348565b5b50919050565b60008190508160005260206000209050919050565b60006020601f8301049050919050565b600082821b905092915050565b60006008830261340a7fffffffffffffffffffffffffffffffffffffffffffffffffffffffffffffffff826133cd565b61341486836133cd565b95508019841693508086168417925050509392505050565b6000819050919050565b600061345161344c613447846128b8565b61342c565b6128b8565b9050919050565b6000819050919050565b61346b83613436565b61347f61347782613458565b8484546133da565b825550505050565b600090565b613494613487565b61349f818484613462565b505050565b5b818110156134c3576134b860008261348c565b6001810190506134a5565b5050565b601f821115613508576134d9816133a8565b6134e2846133bd565b810160208510156134f1578190505b6135056134fd856133bd565b8301826134a4565b50505b505050565b600082821c905092915050565b600061352b6000198460080261350d565b1980831691505092915050565b6000613544838361351a565b9150826002028217905092915050565b61355d82612809565b67ffffffffffffffff811115613576576135756125a5565b5b6135808254613377565b61358b8282856134c7565b600060209050601f8311600181146135be57600084156135ac578287015190505b6135b68582613538565b86555061361e565b601f1984166135cc866133a8565b60005b828110156135f4578489015182556001820191506020850194506020810190506135cf565b86831015613611578489015161360d601f89168261351a565b8355505b6001600288020188555050505b505050505050565b7f696e76616c69645f746f6b656e00000000000000000000000000000000000000600082015250565b600061365c600d83612814565b915061366782613626565b602082019050919050565b6000602082019050818103600083015261368b8161364f565b9050919050565b7f657870697265645f746f6b656e00000000000000000000000000000000000000600082015250565b60006136c8600d83612814565b91506136d382613692565b602082019050919050565b600060208201905081810360008301526136f7816136bb565b9050919050565b7f757365725f646f65735f6e6f745f657869737400000000000000000000000000600082015250565b6000613734601383612814565b915061373f826136fe565b602082019050919050565b6000602082019050818103600083015261376381613727565b9050919050565b7f4e487b7100000000000000000000000000000000000000000000000000000000600052601160045260246000fd5b60006137a4826128b8565b91506137af836128b8565b92508282019050808211156137c7576137c661376a565b5b92915050565b7f7265666572656e63655f616c72656164795f6578697374730000000000000000600082015250565b6000613803601883612814565b915061380e826137cd565b602082019050919050565b60006020820190508181036000830152613832816137f6565b9050919050565b6000613844826128b8565b9150600082036138575761385661376a565b5b600182039050919050565b600081905092915050565b600061387882612809565b6138828185613862565b9350613892818560208601612825565b80840191505092915050565b60006138aa828461386d565b915081905092915050565b7f4e487b7100000000000000000000000000000000000000000000000000000000600052603260045260246000fd5b60006138ef826128b8565b91507fffffffffffffffffffffffffffffffffffffffffffffffffffffffffffffffff82036139215761392061376a565b5b60018201905091905056fea264697066735822122037168df1d294947a45aabb314d29ebc28ee0075d2b8eae776e25c5c9bcad309964736f6c63430008110033",
  "immutableReferences": {},
  "source": "// SPDX-License-Identifier: GPL-3.0\r\npragma solidity >=0.5.0 <0.9.0;\r\n\r\nimport {StringUtils, ArrayUtils, ByteUtils} from \"../utils/Utilities.sol\";\r\n\r\ncontract References {\r\n    using StringUtils for *;\r\n    using ArrayUtils for *;\r\n    using ByteUtils for *;\r\n\r\n    uint256 public constant UNIX_DAY = 86400;\r\n\r\n    enum AccountType {\r\n        Patient,\r\n        Professional\r\n    }\r\n\r\n    struct Account {\r\n        address id;\r\n        string name;\r\n        uint256 accountType;\r\n    }\r\n\r\n    struct Patient {\r\n        string name;\r\n        bool instanced;\r\n    }\r\n\r\n    struct Professional {\r\n        string name;\r\n        string workplace;\r\n        bool instanced;\r\n    }\r\n\r\n    struct Reference {\r\n        string id;\r\n        string name;\r\n        string from;\r\n        string resourceType;\r\n        uint256 date;\r\n    }\r\n\r\n    struct Token {\r\n        bytes32 token;\r\n        bool valid;\r\n        uint256 validUntil;\r\n        uint256 usesLeft;\r\n        bool instanced;\r\n    }\r\n\r\n    Account[] public accounts;\r\n    mapping(address => Patient) public patients;\r\n    mapping(address => Reference[]) public references;\r\n    mapping(address => string[]) public referenceIds;\r\n\r\n    //token mappings\r\n    mapping(address => mapping(bytes32 => Token)) public tokens;\r\n\r\n    modifier requireInstancedPatient() {\r\n        require(patients[msg.sender].instanced, \"user_does_not_exist\");\r\n        _;\r\n    }\r\n\r\n    constructor() {}\r\n\r\n    function addUser(string memory _id, string memory _name) public returns (bool) {\r\n        // check if user is already present\r\n        require(!patients[msg.sender].instanced, \"user_already_exists\");\r\n\r\n        // register user\r\n        accounts.push(\r\n            Account({\r\n                id: msg.sender,\r\n                name: _name,\r\n                accountType: uint256(AccountType.Patient)\r\n            })\r\n        );\r\n\r\n        patients[msg.sender].name = _name;\r\n        patients[msg.sender].instanced = true;\r\n\r\n        return createReference(_id, _name, \"Patient\", \"self\");\r\n    }\r\n\r\n    function getUser() public view returns (Patient memory) {\r\n        return patients[msg.sender];\r\n    }\r\n\r\n    function createReference(\r\n        string memory _id,\r\n        string memory _name,\r\n        string memory _type,\r\n        string memory _from\r\n    ) public requireInstancedPatient returns (bool) {\r\n        // check if a reference with this id is instanced\r\n        require(\r\n            !referenceIds[msg.sender].contains(_id),\r\n            \"reference_already_exists\"\r\n        );\r\n\r\n        // if(compareStrings(_type, 'Patient') && patients[msg.sender].instanced){\r\n        //     return false;\r\n        // }\r\n\r\n        //add reference\r\n        referenceIds[msg.sender].push(_id);\r\n\r\n        references[msg.sender].push(\r\n            Reference({\r\n                id: _id,\r\n                name: _name,\r\n                from: _from,\r\n                resourceType: _type,\r\n                date: block.timestamp\r\n            })\r\n        );\r\n\r\n        return true;\r\n    }\r\n\r\n    function listReferenceIds()\r\n        public\r\n        view\r\n        requireInstancedPatient\r\n        returns (string[] memory)\r\n    {\r\n        return referenceIds[msg.sender];\r\n    }\r\n\r\n    function listReferences()\r\n        public\r\n        view\r\n        requireInstancedPatient\r\n        returns (Reference[] memory)\r\n    {\r\n        return references[msg.sender];\r\n    }\r\n\r\n    function listPatients() public view returns (Account[] memory) {\r\n        return accounts;\r\n    }\r\n\r\n    function createToken(string memory _token)\r\n        public\r\n        requireInstancedPatient\r\n        returns (bool)\r\n    {\r\n        bytes32 tokenHash = _token.getHash();\r\n\r\n        tokens[msg.sender][tokenHash] = Token({\r\n            token: tokenHash,\r\n            valid: true,\r\n            validUntil: block.timestamp + UNIX_DAY,\r\n            usesLeft: 1,\r\n            instanced: true\r\n        });\r\n\r\n        return true;\r\n    }\r\n\r\n    function getToken(string memory _tokenString)\r\n        public\r\n        view\r\n        returns (Token memory)\r\n    {\r\n        bytes32 tokenHash = _tokenString.getHash();\r\n        return tokens[msg.sender][tokenHash];\r\n    }\r\n\r\n    function validateToken(address _address, string memory _tokenString)\r\n        public\r\n        view\r\n        returns (bool)\r\n    {\r\n        bytes32 tokenHash = _tokenString.getHash();\r\n\r\n        Token memory token = tokens[_address][tokenHash];\r\n        require(token.instanced && token.valid, \"invalid_token\");\r\n        require(token.validUntil >= block.timestamp, \"expired_token\");\r\n\r\n        return true;\r\n    }\r\n\r\n    function listReferencesThird(address _patient, string memory _tokenString)\r\n        public\r\n        view\r\n        returns (Reference[] memory)\r\n    {\r\n        bytes32 tokenHash = _tokenString.getHash();\r\n\r\n        Token memory token = tokens[_patient][tokenHash];\r\n        require(token.instanced && token.valid, \"invalid_token\");\r\n        require(token.validUntil >= block.timestamp, \"expired_token\");\r\n\r\n        return references[_patient];\r\n    }\r\n\r\n    function createReferenceThird(\r\n        string memory _tokenString,\r\n        string memory _id,\r\n        string memory _name,\r\n        string memory _type,\r\n        string memory _from\r\n    ) public returns (bool) {\r\n        bytes32 tokenHash = _tokenString.getHash();\r\n\r\n        Token memory token = tokens[msg.sender][tokenHash];\r\n        require(token.instanced && token.valid, \"invalid_token\");\r\n        require(token.validUntil >= block.timestamp, \"expired_token\");\r\n\r\n        // check if a reference with this id is instanced\r\n        require(\r\n            !referenceIds[msg.sender].contains(_id),\r\n            \"reference_already_exists\"\r\n        );\r\n\r\n        //add reference\r\n        referenceIds[msg.sender].push(_id);\r\n\r\n        references[msg.sender].push(\r\n            Reference({\r\n                id: _id,\r\n                name: _name,\r\n                from: _from,\r\n                resourceType: _type,\r\n                date: block.timestamp\r\n            })\r\n        );\r\n\r\n        tokens[msg.sender][tokenHash].usesLeft--;\r\n        if (tokens[msg.sender][tokenHash].usesLeft == 0)\r\n            tokens[msg.sender][tokenHash].valid = false;\r\n\r\n        return true;\r\n    }\r\n\r\n    function toAsciiString(address x) internal pure returns (string memory) {\r\n    bytes memory s = new bytes(40);\r\n    for (uint i = 0; i < 20; i++) {\r\n        bytes1 b = bytes1(uint8(uint(uint160(x)) / (2**(8*(19 - i)))));\r\n        bytes1 hi = bytes1(uint8(b) / 16);\r\n        bytes1 lo = bytes1(uint8(b) - 16 * uint8(hi));\r\n        s[2*i] = char(hi);\r\n        s[2*i+1] = char(lo);            \r\n    }\r\n    return string(s);\r\n    }\r\n\r\n    function char(bytes1 b) internal pure returns (bytes1 c) {\r\n        if (uint8(b) < 10) return bytes1(uint8(b) + 0x30);\r\n        else return bytes1(uint8(b) + 0x57);\r\n    }\r\n\r\n    function compareStrings(string memory a, string memory b) public view returns (bool) {\r\n        return (keccak256(abi.encodePacked((a))) == keccak256(abi.encodePacked((b))));\r\n    }\r\n}\r\n",
  "sourcePath": "D:\\.higia\\backend-smartcontracts\\src\\contracts\\references.sol",
  "compiler": {
    "name": "solc",
    "version": "0.8.17+commit.8df45f5f.Emscripten.clang"
  },
  "schemaVersion": "3.4.9",
  "updatedAt": "2022-10-17T02:59:36.172Z",
  "networkType": "ethereum",
  "devdoc": {
    "kind": "dev",
    "methods": {},
    "version": 1
  },
  "userdoc": {
    "kind": "user",
    "methods": {},
    "version": 1
  }
}